:020000040000FA
:0400000056EF00F0C7
:100008005E82F2AA0AEF00F00CEF00F017EF00F0A2
:10001800F2A411EF00F013EF00F017EF00F0AFECCF
:100028001EF054EF00F0F2AC1CEF00F01EEF00F0F1
:1000380054EF00F0A0A223EF00F025EF00F030EF1E
:1000480000F0A1A22AEF00F02CEF00F030EF00F052
:1000580043EC1DF054EF00F09DA435EF00F037EFAE
:1000680000F042EF00F09EA43CEF00F03EEF00F0FD
:1000780042EF00F012EC1FF054EF00F09DA247EFA2
:1000880000F049EF00F054EF00F09EA24EEF00F0B0
:1000980050EF00F054EF00F062EC1FF054EF00F066
:0800A8005E9211000DEF1DF046
:100800000001000800400000020010008001000A02
:10081000006400E803102701001000000100100030
:1008200000803F1872313FF0FD753E4758633D58D8
:10083000951D3C82C4AE3AA8782139EF938037A049
:1008400092A7354656153400000000C4FF7F3F8054
:10085000EFFFBE90E1A93EEC8276BE82AD2B3E0E4C
:100860003CC3BD87D1133D4178D3BB7BE1303132EE
:100870003334353637383941424344454600303108
:100880003233343536373839616263646566004522
:1008900063686F3A2D2D2D2D6D6D202D2D2D53005C
:1008A00047616C733A2D2D2D2D202D2D2D250025E2
:1008B0006E322F256E322F256E3200266E322F2596
:1008C0006E322F256E32002D2D2D2D00256E33001A
:0508D000256E3400005C
:1008D600120E276E000E286EEDEF09F0250E2E186B
:1008E600D8B478EF04F07AEF04F084EF04F00EC089
:1008F600D9FF0FC0DAFF2EC0DFFF0E4A0F2AEDEF39
:1009060009F0000E2D6E000E2C6E000E306E000EDD
:100916002F6EA0EF04F02F86104A112AA0EF04F0E4
:100926002F80104A112AA0EF04F03086104A112AAF
:10093600A0EF04F02F84104A112A10C0F6FF11C050
:10094600F7FF0800F550200AD8B493EF04F0030A25
:10095600D8B498EF04F00E0AD8B48EEF04F01D0A4E
:10096600D8B49DEF04F0B8EF04F02FA6BDEF04F065
:10097600BFEF04F0C0EF04F02F9410C0F6FF11C0D3
:10098600F7FF0800F55096EC1EF0D8A0CDEF04F066
:10099600CFEF04F008EF05F0000E2D6E000E2C6E62
:1009A6002CC002F02DC003F0000E056E0A0E046E78
:1009B600E0EC1EF002C02CF003C02DF0D00E186E35
:1009C600FF0E196E10C0F6FF11C0F7FF0800F550B4
:1009D6001A6E1B6A18501A2619501B221A502C26FA
:1009E6001B502D22104A112A10C0F6FF11C0F7FF26
:1009F6000800F55096EC1EF0D8B004EF05F006EFAF
:100A060005F0D3EF04F024EF05F010C0F6FF11C097
:100A1600F7FF0800F5502A0AD8A414EF05F016EFE0
:100A260005F024EF05F027C0D9FF28C0DAFFDECF96
:100A36002CF0DDCF2DF0020E2726000E2822104ABC
:100A4600112A10C0F6FF11C0F7FF0800F5502E0A54
:100A5600D8A430EF05F032EF05F07EEF05F0308CCC
:100A6600104A112A10C0F6FF11C0F7FF0800F55012
:100A76002A0AD8A441EF05F043EF05F05BEF05F035
:100A860027C0D9FF28C0DAFFDF502B6E020E2726BB
:100A9600000E28222BBE54EF05F052EF05F057EF5B
:100AA60005F0000E2B6E309C104A112A2CEF06F032
:100AB600000E2B6E6DEF05F00A0E2B02F3502B6E17
:100AC60010C0F6FF11C0F7FF0800F550D00F2B2617
:100AD600104A112A10C0F6FF11C0F7FF0800F550A2
:100AE60096EC1EF0D8B07AEF05F07CEF05F05FEFDC
:100AF60005F02CEF06F0000E2B6E2CEF06F02F8C77
:100B060058EF06F02F8A2F8E58EF06F02B50D8B4E8
:100B16008FEF05F091EF05F0A4EF05F0800E2BBEE8
:100B26007F0E186E25502B5C2650800A1858D8B0B8
:100B36009FEF05F0A1EF05F0A4EF05F02BC025F01F
:100B4600266A2C50255C2D502658D8B0ADEF05F0FE
:100B5600AFEF05F0B5EF05F025502C5E26502D5A67
:100B6600B9EF05F0000E2D6E000E2C6E2FB6BEEFFF
:100B760005F0C0EF05F0E7EF05F0CAEF05F00EC08F
:100B8600D9FF0FC0DAFF200EDF6E0E4A0F2A2C06A1
:100B9600D8A02D062C2806E12D28D8A4D5EF05F0DF
:100BA600D7EF05F0C2EF05F0E7EF05F01DC0D9FF5E
:100BB6001EC0DAFF0EC0E1FF0FC0E2FFDFCFE7FF86
:100BC6001D4A1E2A0E4A0F2A2506D8A026062528C3
:100BD60006E12628D8A4F2EF05F0F4EF05F0D9EFE8
:100BE60005F02FA6F9EF05F0FBEF05F0EDEF09F0A4
:100BF60005EF06F00EC0D9FF0FC0DAFF200EDF6E3C
:100C06000E4A0F2A2C06D8A02D062C2806E12D28E0
:100C1600D8A410EF06F012EF06F0FDEF05F0EDEFA9
:100C260009F027C0D9FF28C0DAFFDF502E6E020E6A
:100C36002726000E28222E0E1D6E000E1E6E000E9A
:100C4600266E010E256E89EF05F0C00E2F1258EFA5
:100C560006F010C0F6FF11C0F7FF104A112A08006F
:100C6600F5CF2EF02E50000AD8B4FEEF09F0580A40
:100C7600D8B485EF05F03B0AD8B414EF06F0070A9E
:100C8600D8B458EF06F00D0AD8B458EF06F0060AA5
:100C9600D8B482EF05F01A0AD8B428EF06F00D0A88
:100CA600D8B486EF05F01EEF06F0C00E2F14186EAE
:100CB600000E3014196E18501910D8A465EF06F0FE
:100CC60067EF06F082EF06F027C0D9FF28C0DAFFEB
:100CD600DECF29F0DDCF2AF0020E2726000E2822CD
:100CE6002ABE7AEF06F078EF06F08EEF06F0030ED6
:100CF6002F12296C2A1ED8B02A2A8EEF06F027C09A
:100D0600D9FF28C0DAFFDECF29F0DDCF2AF0020EA8
:100D16002726000E28222B50D8A494EF06F096EF33
:100D260006F017EF07F029502A10D8A49DEF06F019
:100D36009FEF06F017EF07F02B2A17EF07F0010ECB
:100D46002E6E050E2E18D8A4ABEF06F0ADEF06F00A
:100D5600AFEF06F02BEF07F02E50020D0D0EF32429
:100D6600F66E080EF420F76E0900F550295C0900AE
:100D7600F5502A58D8B0C2EF06F0C4EF06F0C6EF19
:100D860006F02BEF07F02E2AA4EF06F0010E2E6ECA
:100D9600040E2E18D8A4D2EF06F0D4EF06F0D6EF44
:100DA60006F02BEF07F02E50020D170EF324F66E09
:100DB600080EF420F76E0900F550295C0900F5507D
:100DC6002A58D8B0E9EF06F0EBEF06F0EDEF06F0A3
:100DD6002BEF07F02E2ACBEF06F0010E2E6E060E35
:100DE6002E18D8A4F9EF06F0FBEF06F0FDEF06F09B
:100DF6002BEF07F02E50020D010EF324F66E080EAF
:100E0600F420F76E0900F550295C0900F5502A58C0
:100E1600D8B010EF07F012EF07F014EF07F02BEF42
:100E260007F02E2AF2EF06F02F50C00B000AD8B4B6
:100E3600A2EF06F0400AD8B4F0EF06F0C00AD8B424
:100E4600C9EF06F0400AD8B4A2EF06F02BEF07F080
:100E56002E50D880D8842BAE2B5CD8A0D884D8B49A
:100E660037EF07F039EF07F03DEF07F02BC02EF014
:100E76004CEF07F02E50D8902BAE2B5CD8B0D88014
:100E8600D8B048EF07F04AEF07F04CEF07F02EC056
:100E96002BF02C502D10D8B453EF07F055EF07F078
:100EA60067EF07F0030E2F14186E000E3014196E3C
:100EB60018501910D8B462EF07F064EF07F067EF27
:100EC60007F02C06D8A02D0630AC6CEF07F06EEFBD
:100ED60007F08AEF07F0800E2BBE7F0E186E2C509F
:100EE6002B5C2D50800A1858D8B07CEF07F07EEFA7
:100EF60007F086EF07F02B502C5E000E2BBEFF0E80
:100F06002D5A8AEF07F0000E2D6E000E2C6EC40EC1
:100F1600186E080E196E2FC01AF030C01BF018504C
:100F26001A1619501B16400E1A1807E1080E1B1840
:100F3600D8A4A0EF07F0A2EF07F0B0EF07F02C500F
:100F46002D10D8B4A9EF07F0ABEF07F0E0EF07F0EC
:100F56002C06D8A02D06E0EF07F0C00E186E080E7E
:100F6600196E2FC01AF030C01BF018501A161950FF
:100F76001B16800E1A1807E1080E1B18D8A4C6EF18
:100F860007F0C8EF07F0E0EF07F02DBED4EF07F04B
:100F96002D5009E1030E2C5CD8A0D4EF07F0D6EF54
:100FA60007F0DCEF07F0FE0E2C26FF0E2D22E0EFF9
:100FB60007F0000E2D6E000E2C6E2E50186E196A5C
:100FC6002C50185C1950800A1A6E2D50800A1A5837
:100FD600D8B0F0EF07F0F2EF07F0F8EF07F02E5079
:100FE6002C5E000E2D5AFCEF07F0000E2D6E000E43
:100FF6002C6E2FA401EF08F003EF08F083EF08F042
:10100600030E2F14186E000E3014196E1850191096
:10101600D8B410EF08F012EF08F01CEF08F00EC07D
:10102600D9FF0FC0DAFF2D0EDF6E0E4A0F2A64EFCE
:1010360008F02FA021EF08F023EF08F02BEF08F0BF
:101046000EC0D9FF0FC0DAFF200EDF6E18EF08F0D2
:10105600C00E186E080E196E2FC01AF030C01BF0A5
:1010660018501A1619501B16800E1A1807E1080E8A
:101076001B18D8A441EF08F043EF08F064EF08F01E
:101086000EC0D9FF0FC0DAFF300EDF6E0E4A0F2AF0
:101096002FBA50EF08F052EF08F058EF08F0000EA4
:1010A600206E780E1F6E5CEF08F0000E206E580E54
:1010B6001F6E0EC0D9FF0FC0DAFF1FC0DFFF18EF8B
:1010C60008F02C502D10D8B46BEF08F06DEF08F037
:1010D600BCEF09F00EC0D9FF0FC0DAFF300EDF6E8D
:1010E6000E4A0F2A2C06D8A02D062C502D10D8A457
:1010F6007FEF08F081EF08F06DEF08F0BCEF09F024
:101106002C502D10D8B48AEF08F08CEF08F0A7EF1A
:1011160008F02FB691EF08F093EF08F0A7EF08F06C
:101126000EC0D9FF0FC0DAFF200EDF6E0E4A0F2A5F
:101136002C06D8A02D062C502D10D8A4A5EF08F00B
:10114600A7EF08F093EF08F0030E2F14186E000EA9
:101156003014196E18501910D8B4B4EF08F0B6EF61
:1011660008F0C0EF08F00EC0D9FF0FC0DAFF2D0E51
:10117600DF6E0E4A0F2ACFEF08F02FA0C5EF08F05A
:10118600C7EF08F0CFEF08F00EC0D9FF0FC0DAFFA7
:10119600200EDF6EBCEF08F0C00E186E080E196E3A
:1011A6002FC01AF030C01BF018501A1619501B1613
:1011B600400E1A1807E1080E1B18D8A4E5EF08F030
:1011C600E7EF08F0F1EF08F00EC0D9FF0FC0DAFF25
:1011D600300EDF6E0E4A0F2ABCEF09F0C00E186EF5
:1011E600080E196E2FC01AF030C01BF018501A16D0
:1011F60019501B16800E1A1807E1080E1B18D8A4E2
:1012060007EF09F009EF09F02AEF09F00EC0D9FF40
:101216000FC0DAFF300EDF6E0E4A0F2A2FBA16EF16
:1012260009F018EF09F01EEF09F0000E226E780E95
:10123600216E22EF09F0000E226E580E216E0EC0AE
:10124600D9FF0FC0DAFF21C0DFFFEDEF08F0BCEFDA
:1012560009F02B50020D0D0EF324F66E080EF42045
:10126600F76E0900F5CF04F00A00F5CF05F029C0A6
:1012760002F02AC003F0D3EC1CF002C009F003C050
:101286000AF0000E0C6E0A0E0B6E77EC1DF009507C
:10129600300F2E6EB4EF09F029C002F02AC003F019
:1012A6002B50020D170EF324F66E080EF420F76E7F
:1012B6000900F5CF04F00A00F5CF05F0D3EC1CF0D9
:1012C60002500F0B1C6E2FBA6BEF09F06DEF09F091
:1012D60073EF09F07E0E236E080E246E77EF09F089
:1012E6006D0E236E080E246E1C502324186E000EFD
:1012F6002420196E18C0F6FF19C0F7FF0800F5CFB5
:101306002EF0B4EF09F029C002F02AC003F02B50EA
:10131600020D010EF324F66E080EF420F76E090096
:10132600F5CF04F00A00F5CF05F0D3EC1CF002501F
:10133600070B300F2E6EB4EF09F02F50C00B000ACA
:10134600D8B42CEF09F0400AD8B486EF09F0C00AE9
:10135600D8B44FEF09F0400AD8B42CEF09F0B4EF37
:1013660009F00EC0D9FF0FC0DAFF2EC0DFFFEDEF88
:1013760008F02B062B28D8A4C3EF09F0C5EF09F017
:10138600A0EF09F02FA6CAEF09F0CCEF09F0EDEFB8
:1013960009F02DBED7EF09F02D5008E12C04D8A096
:1013A600D7EF09F0D9EF09F0EDEF09F00EC0D9FF3C
:1013B6000FC0DAFF200EDF6E0E4A0F2A2C06D8A0C9
:1013C6002D062C502D10D8A4EBEF09F0EDEF09F007
:1013D600D9EF09F010C0F6FF11C0F7FF104A112A25
:1013E6000800F5CF2EF02E50D8A4FCEF09F0FEEF42
:1013F60009F071EF04F00EC0D9FF0FC0DAFF000E3E
:10140600DF6E12005650800B0001716F5650562445
:10141600736F55AE11EF0AF013EF0AF014EF0AF0EE
:1014260073817351D8B41AEF0AF01CEF0AF031EF4A
:101436000AF07329D8A422EF0AF024EF0AF02CEF61
:101446000AF0000E536E000E546E000E556E000E1E
:10145600566E558E000E566E39EF0AF0000E536E1C
:10146600000E546E000E556E000E566E5A50800BCE
:10147600726F71517219D8B443EF0AF045EF0AF052
:1014860046EF0AF0718D5A505A24726F59AE4EEFDC
:101496000AF050EF0AF051EF0AF072817251D8B497
:1014A60057EF0AF059EF0AF06EEF0AF07229D8A446
:1014B6005FEF0AF061EF0AF069EF0AF0000E576E6F
:1014C600000E586E000E596E000E5A6E598E000EA2
:1014D6005A6E76EF0AF0000E576E000E586E000E2A
:1014E600596E000E5A6E7351725DD8B07DEF0AF0D8
:1014F6007FEF0AF0A6EF0AF071AD84EF0AF086EFEF
:101506000AF088EF0AF0800E711B73C074F072C087
:1015160073F074C072F053C074F057C053F074C0C7
:1015260057F054C074F058C054F074C058F055C009
:1015360074F059C055F074C059F056C074F05AC0D2
:1015460056F074C05AF0000E746F735172C06DF08D
:101556006E6B6D5F000E6E5B6EBFBBEF0AF06E5179
:1015660009E11A0E6D5DD8A0BBEF0AF0BDEF0AF0D7
:10157600F4EF0AF05350541055105610D8A4C6EF85
:101586000AF0C9EF0AF0010ECAEF0AF0000E746FF6
:10159600000E536E000E546E000E556E000E566E03
:1015A60072C073F0FDEF0AF074A1DCEF0AF0DEEF13
:1015B6000AF0E4EF0AF0D89074310109746FE6EF8F
:1015C6000AF0D890743353A0EBEF0AF0EDEF0AF06F
:1015D600EEEF0AF0748F5634563255325432533287
:1015E600732B7251735DD8A0FBEF0AF0FDEF0AF082
:1015F600D7EF0AF071BD02EF0BF004EF0BF044EFEA
:101606000BF07351D8A40AEF0BF00CEF0BF016EFAA
:101616000BF0000E536E000E546E000E556E000E4B
:10162600566E65EF0CF057505326585054225950B9
:1016360055225A50562256A023EF0BF025EF0BF0F9
:10164600D1EF0BF074A12AEF0BF02CEF0BF032EF79
:101656000BF0D89074310109746F34EF0BF0D89009
:10166600743353A039EF0BF03BEF0BF03CEF0BF06C
:10167600748F56345632553254325332732BD1EF5F
:101686000BF05750535C58505458595055585650B3
:10169600800A6D6F5A50800A6D59D8B055EF0BF01D
:1016A60057EF0BF082EF0BF05350575C6D6F5450B1
:1016B60058586E6F555059586F6F56505A58706F2C
:1016C600FF0E6D25536EFF0E6E21546EFF0E6F21B9
:1016D600556EFF0E7021566E800E711B746D74511F
:1016E600D8A478EF0BF07AEF0BF08AEF0BF0010E2F
:1016F6005326000E5422552256228AEF0BF05750DD
:10170600535E5850545A5950555A5A50565A535077
:10171600541055105610D8A493EF0BF095EF0BF01C
:10172600CAEF0BF07451D8A49BEF0BF09DEF0BF0B2
:10173600CAEF0BF0000E536E000E546E000E556E7F
:10174600000E566E65EF0CF0D8905336543655366B
:10175600563674AFB1EF0BF0B3EF0BF0B4EF0BF0FE
:10176600538074A1B9EF0BF0BBEF0BF0BFEF0BF09A
:10177600D8807437C1EF0BF0D89074377351D8B452
:10178600C7EF0BF0C9EF0BF0CAEF0BF0730755AEBE
:10179600CFEF0BF0D1EF0BF0A7EF0BF0000E726F4F
:1017A60074AFD8EF0BF0DAEF0BF0F2EF0BF074C07A
:1017B6006DF07F0E6D17D8B4E3EF0BF0E5EF0BF08D
:1017C600E9EF0BF0010E726FF2EF0BF053A0EEEFA4
:1017D6000BF0F0EF0BF0F2EF0BF0E5EF0BF07251C0
:1017E600D8B4F8EF0BF0FAEF0BF025EF0CF0010E82
:1017F6005326000E54225522562256A005EF0CF011
:1018060007EF0CF025EF0CF053C06DF054C06EF0EE
:1018160055C06FF056C070F0703570336F336E334D
:101826006D336DC053F06EC054F06FC055F070C08C
:1018360056F07329D8B422EF0CF024EF0CF025EF04
:101846000CF0732B7329D8B42BEF0CF02DEF0CF0A2
:1018560035EF0CF07351D8A433EF0CF035EF0CF0E4
:1018660047EF0CF0000E536E000E546E000E556ED0
:10187600000E566E7351D8A443EF0CF045EF0CF0F2
:1018860047EF0CF0000E716F73A14CEF0CF04EEFAA
:101896000CF051EF0CF0558E52EF0CF0559ED8908F
:1018A6007331566E71AF5AEF0CF05CEF0CF05DEFD2
:1018B6000CF0568E53C053F054C054F055C055F03A
:1018C60056C056F012004A50800B0001606F4A5015
:1018D6004A24666F49AE72EF0CF074EF0CF075EFA8
:1018E6000CF066816651D8B47BEF0CF07DEF0CF0FE
:1018F60090EF0CF06629D8A483EF0CF085EF0CF07E
:101906008DEF0CF0000E476E000E486E000E496E0D
:10191600000E4A6E498E98EF0CF0000E476E000ED0
:10192600486E000E496E000E4A6E4E50800B601BCC
:101936004E504E24616F4DAEA3EF0CF0A5EF0CF0A8
:10194600A6EF0CF061816151D8B4ACEF0CF0AEEFAC
:101956000CF0C1EF0CF06129D8A4B4EF0CF0B6EF8F
:101966000CF0BEEF0CF0000E4B6E000E4C6E000E2F
:101976004D6E000E4E6E4D8EC9EF0CF0000E4B6E86
:10198600000E4C6E000E4D6E000E4E6E6151D8B4B8
:10199600CFEF0CF0D1EF0CF0D9EF0CF06651D8A4D4
:1019A600D7EF0CF0D9EF0CF0E3EF0CF0000E476E1A
:1019B600000E486E000E496E000E4A6E7BEF0EF06A
:1019C6004D504702F3CF6BF0F4CF6CF06B51626F62
:1019D600636B646B656B6C51676F686B696B6A6B85
:1019E6004C504802F3CF6BF0F4CF6CF06B5162278A
:1019F600000E6323642365236C516727000E68235A
:101A060069236A234B504902F3CF6BF0F4CF6CF095
:101A16006B516227000E6323642365236C5167278D
:101A2600000E682369236A2364C065F063C064F00E
:101A360062C063F0626B4B504802F3CF6BF0F4CF99
:101A46006CF06B5162276C516323000E6423000E09
:101A560065234C504702F3CF6BF0F4CF6CF06B511B
:101A660062276C516323000E6423000E652364C055
:101A760065F063C064F062C063F0626B4B5047026E
:101A8600F3CF6BF0F4CF6CF06B5162276C5163238C
:101A9600000E6423000E65234D504802F3CF6BF011
:101AA600F4CF6CF06B5167276C516823000E6923E5
:101AB600000E6A234C504902F3CF6BF0F4CF6CF062
:101AC6006B5167276C516823000E6923000E6A2349
:101AD6004D504902F3CF6BF0F4CF6CF06B514F6E63
:101AE6006C51506E516A526A51C052F050C051F05A
:101AF6004FC050F04F6A4F506727505068235150DF
:101B0600692352506A2362C04FF063C050F064C02C
:101B160051F065C052F0190E96EF0DF0D890523282
:101B2600513250324F32E82E91EF0DF04F50672769
:101B3600505068235150692352506A2364C065F09F
:101B460063C064F062C063F0626B615166C04FF0BF
:101B5600506A4F26000E5022820E4F246B6FFF0EE6
:101B660050206C6FCCEF0DF0D89067376837693727
:101B76006A3765AFC1EF0DF0C3EF0DF0C4EF0DF09E
:101B86006781D89062376337643765376B07D8A0AB
:101B96006C0769AFD1EF0DF0D3EF0DF0B7EF0DF095
:101BA600000E616F65AFDAEF0DF0DCEF0DF000EFC0
:101BB6000EF0FF0E62154F6EFF0E6315506EFF0E90
:101BC6006415516E7F0E6515526E4F5050105110B0
:101BD6005210D8B4F1EF0DF0F3EF0DF0F7EF0DF072
:101BE600010E616F00EF0EF067A1FCEF0DF0FEEF46
:101BF6000DF000EF0EF0F3EF0DF06151D8B406EFE3
:101C06000EF008EF0EF02CEF0EF0010E6727000E17
:101C1600682369236A236AA113EF0EF015EF0EF00D
:101C26002CEF0EF067C04FF068C050F069C051F05D
:101C36006AC052F052345232513250324F324FC093
:101C460067F050C068F051C069F052C06AF06B4B43
:101C56006C2B6CBF37EF0EF06C5108E16B29D8A0E6
:101C660037EF0EF039EF0EF043EF0EF0000E676F10
:101C7600000E686F800E696F7F0E6A6F71EF0EF04F
:101C86006CBF50EF0EF06C5106E16B05D8B04EEF0D
:101C96000EF050EF0EF05CEF0EF0000E676F000EC8
:101CA600686F000E696F000E6A6F000E606F71EF4D
:101CB6000EF06BC066F0FF0E6717FF0E68177F0EFB
:101CC6006917000E6A1766A16BEF0EF06DEF0EF046
:101CD6006EEF0EF0698FD89066316A6F60516A13A5
:101CE60067C047F068C048F069C049F06AC04AF06A
:101CF60012000550800B126E05500524196E04AEB5
:101D060087EF0EF089EF0EF08AEF0EF0198019506A
:101D1600D8B490EF0EF092EF0EF0A7EF0EF0192860
:101D2600D8A498EF0EF09AEF0EF0A2EF0EF0000E88
:101D3600026E000E036E000E046E000E056E048E1B
:101D4600000E056EAFEF0EF0000E026E000E036E73
:101D5600000E046E000E056E0950800B121A095013
:101D660009241A6E08AEBAEF0EF0BCEF0EF0BDEF06
:101D76000EF01A801A50D8B4C3EF0EF0C5EF0EF06D
:101D8600DAEF0EF01A28D8A4CBEF0EF0CDEF0EF056
:101D9600D5EF0EF0000E066E000E076E000E086EF2
:101DA600000E096E088E000E096EE2EF0EF0000EB0
:101DB600066E000E076E000E086E000E096E0650C7
:101DC600071008100910D8A4EBEF0EF0EDEF0EF097
:101DD60005EF0FF0000E026E000E036E000E046E8D
:101DE600000E056E800E04127F0E051212500512AB
:101DF60002C002F003C003F004C004F005C005F001
:101E060048EF10F01950D8A40BEF0FF00DEF0FF0BC
:101E160017EF0FF0000E026E000E036E000E046E3A
:101E2600000E056E48EF10F01A5019C00AF00B6A42
:101E36000A5E000E0B5A7F0E0A24136E000E0B204C
:101E4600146E02C00EF003C00FF004C010F005C0FF
:101E560011F0000E026E000E036E000E046E000EF0
:101E6600056E000E156E000E166E000E176E000E35
:101E7600186E000E1A6E78EF0FF01A50D8B446EFAF
:101E86000FF048EF0FF05FEF0FF0D8900E360F36D9
:101E960010361136D890023603360436053618AE9B
:101EA60057EF0FF059EF0FF05AEF0FF00280D8906E
:101EB600153616361736183606500E5C07500F586C
:101EC6000850105809501158D8A06CEF0FF06EEF5B
:101ED6000FF077EF0FF0188C06500E5E07500F5A72
:101EE6000850105A0950115A1A2A190E1A647EEF10
:101EF6000FF080EF0FF040EF0FF00E500F101010A4
:101F06001110D8B489EF0FF08BEF0FF0A3EF0FF09D
:101F16001580A3EF0FF0D890023603360436053647
:101F260018AE98EF0FF09AEF0FF09BEF0FF00280CC
:101F3600D89015361636173618361306D8A0140656
:101F460004AEA8EF0FF0AAEF0FF08EEF0FF0000E21
:101F56001A6E18AEB1EF0FF0B3EF0FF0D7EF0FF028
:101F6600FF0E15140A6EFF0E16140B6EFF0E1714D5
:101F76000C6E7F0E18140D6E0A500B100C100D10FF
:101F8600D8B4C8EF0FF0CAEF0FF0CEEF0FF0010E86
:101F96001A6ED7EF0FF002A0D3EF0FF0D5EF0FF0C8
:101FA600D7EF0FF0CAEF0FF01A50D8B4DDEF0FF0ED
:101FB600DFEF0FF003EF10F0010E0226000E0322F2
:101FC6000422052205A0EAEF0FF0ECEF0FF003EF75
:101FD60010F002C00AF003C00BF004C00CF005C0FC
:101FE6000DF00D340D320C320B320A320AC002F0FB
:101FF6000BC003F00CC004F00DC005F0134A142A00
:1020060014BE0EEF10F0145008E11328D8A00EEFFE
:1020160010F010EF10F01BEF10F0000E146E1368A6
:10202600000E026E000E036E000E046E000E056EAC
:1020360014BE28EF10F0145006E11304D8B026EFB2
:1020460010F028EF10F036EF10F0000E146E000EB0
:10205600136E000E026E000E036E000E046E000E6E
:10206600056E000E126E13C019F019A03DEF10F0A8
:102076003FEF10F042EF10F0048E43EF10F0049E95
:10208600D8901930056EF9EF0EF012000001785164
:10209600800B7D6F78517825836F77AF55EF10F001
:1020A60057EF10F058EF10F0838183C088F0896BEA
:1020B600FF0E75158E6FFF0E76158F6F7F0E7715D7
:1020C600906F000E7815916F88518911D8B46EEF14
:1020D60010F070EF10F07AEF10F0908F88298911C8
:1020E600D8A478EF10F07AEF10F082EF10F0000E1F
:1020F6008E6F000E8F6F000E906F000E916F8851DD
:102106008911D8A489EF10F08BEF10F095EF10F03D
:10211600000E756F000E766F000E776F000E786FEB
:10212600D6EF11F07D51D8B49BEF10F09DEF10F073
:10213600B7EF10F0000E8A6F000E8B6F400E8C6F9B
:10214600000E8D6F800E8C13FF0E8D13000ECA6F5E
:10215600210EC96F8AC075F08BC076F08CC077F0FF
:102166008DC078F0D6EF11F088298911D8A4BEEF7A
:1021760010F0C0EF10F0CAEF10F0000E8A6F000EDC
:102186008B6F800E8C6F7F0E8D6FADEF10F0810E12
:102196008827FF0E89238851010B836F8935893380
:1021A60088337F0E8827000E8923D8908E357F6F5F
:1021B6008F35806F9035816F9135826F000E8E6FEF
:1021C600000E8F6F000E906F000E916F000E846FE1
:1021D600000E856F000E866F010E876F8351D8B48F
:1021E600F7EF10F0F9EF10F0FEEF10F0D8907F3710
:1021F600803781378237000E7E6F56EF11F084519B
:102206008E1385518F1386519013875191138E51DA
:102216007F5D8F5180599051815991518259D8A033
:1022260017EF11F019EF11F02BEF11F08E517F5FC0
:102236008F51805B9051815B9151825B84518E27D7
:1022460085518F2386519023875191233BEF11F0BF
:10225600841D796F851D7A6F861D7B6F871D7C6F48
:1022660079518E177A518F177B5190177C519117A0
:1022760084C079F085C07AF086C07BF087C07CF098
:10228600D8907C337B337A33793379C084F07AC043
:1022960085F07BC086F07CC087F0D8907F3780378A
:1022A600813782377E2B180E7E655CEF11F05EEF6C
:1022B60011F002EF11F08EC079F08FC07AF090C065
:1022C6007BF091C07CF0D8907C337B337A337933C2
:1022D60079C08EF07AC08FF07BC090F07CC091F010
:1022E600010E8E15846F000E8F15856F000E9015EA
:1022F600866F000E9115876F8EC079F08FC07AF0C9
:1023060090C07BF091C07CF0D8907C337B337A33DD
:10231600793379C08EF07AC08FF07BC090F07CC0A4
:1023260091F084518E2785518F23865190238751B2
:10233600912391A1A1EF11F0A3EF11F0BAEF11F0E3
:102346008EC079F08FC07AF090C07BF091C07CF09F
:10235600D8907C337B337A33793379C08EF07AC068
:102366008FF07BC090F07CC091F0884B892BFF0EDC
:102376008E158A6FFF0E8F158B6F7F0E90158C6FE3
:10238600000E91158D6F88C083F083A1CDEF11F0FB
:10239600CFEF11F0D0EF11F08C8FD89083318D6F85
:1023A6008D9FADEF10F01200C70E0001B36FC80E7F
:1023B600B46FCFC025F0D0C026F0276A286A000E79
:1023C600F2EC15F025C047F026C048F027C049F0CA
:1023D60028C04AF0BD0E4B6E370E4C6E060E4D6E83
:1023E600350E4E6E66EC0CF0000E00019A6F000E74
:1023F6009B6FA00E9C6F410E9D6F000E576E000ED8
:10240600586E800E596E3F0E5A6E330E066E930E40
:10241600076E880E086E430E096E9AC002F09BC0C6
:1024260003F09CC004F09DC005F07CEC0EF002C0E9
:1024360053F003C054F004C055F005C056F005EC47
:102446000AF053C075F054C076F055C077F056C008
:1024560078F049EC10F075C047F076C048F077C0C8
:1024660049F078C04AF0800E4B6EC40E4C6EA10E39
:102476004D6E480E4E6E66EC0CF047C09EF048C09E
:102486009FF049C0A0F04AC0A1F0BD0E4B6E370EBA
:102496004C6E060E4D6E350E4E6E9EC047F09FC0BA
:1024A60048F0A0C049F0A1C04AF066EC0CF047C065
:1024B60002F048C003F049C004F04AC005F0000E1F
:1024C600066E000E076E000E086E400E096E7CEC5E
:1024D6000EF002C0A2F003C0A3F004C0A4F005C031
:1024E600A5F0D00E0001926FEE0E936FCFC094F060
:1024F600D0C095F0925194279351952394C025F01E
:1025060095C026F0276A286A000EF2EC15F025C061
:1025160047F026C048F027C049F028C04AF0A2C0BC
:102526004BF0A3C04CF0A4C04DF0A5C04EF066EC35
:102536000CF047C0A6F048C0A7F049C0A8F04AC0B2
:10254600A9F0BDC075F0BEC076F0BFC077F0C0C0C0
:1025560078F0A6C079F0A7C07AF0A8C07BF0A9C031
:102566007CF056EC1EF075C0AFF076C0B0F077C0C8
:10257600B1F078C0B2F0AFC047F0B0C048F0B1C01B
:1025860049F0B2C04AF0B9C04BF0BAC04CF0BBC07B
:102596004DF0BCC04EF066EC0CF047C0AAF048C047
:1025A600ABF049C0ACF04AC0ADF0B5C006F0B6C05D
:1025B60007F0B7C008F0B8C009F0000E4B6E000E69
:1025C6004C6EC80E4D6E420E4E6EAFC047F0B0C098
:1025D60048F0B1C049F0B2C04AF066EC0CF047C012
:1025E60002F048C003F049C004F04AC005F07CEC94
:1025F6000EF002C01BF003C01CF004C01DF005C0A5
:102606001EF076EC19F01B500001AE6FB351926FBD
:10261600936B92C00EF093C00FF0D00E106E080EA2
:10262600116EAAC012F0ABC013F0ACC014F0ADC06E
:1026360015F06BEC04F0050E096E000EA9EC1DF00A
:102646000001B351926F936B92C005F093C006F0F0
:1026560097EC1CF00001B451926F936B92C00EF090
:1026660093C00FF0CC0E106E080E116EAEC012F0B5
:10267600136A6BEC04F00A0E096E000EA9EC1DF04D
:102686000001B451926F936B92C005F093C006F0AF
:1026960097EC1CF012008BC033F08CC034F08DC068
:1026A60035F08EC036F0000E376E000E386E000E16
:1026B600396E000E3A6EC1EC1BF0D8A065EF13F030
:1026C60067EF13F072EF13F0000E00018B6F000E30
:1026D6008C6F800E8D6F3F0E8E6FC1EF14F0180E4B
:1026E600026E720E036E310E046E440E056E8BC0C2
:1026F60006F08CC007F08DC008F08EC009F0F9EC2A
:1027060019F0D8B089EF13F08BEF13F09AEF13F0AE
:10271600000E0001CA6F220EC96FFF0E8B6FFF0EEF
:102726008C6F7F0E8D6F7F0E8E6FC1EF14F08BC096
:1027360002F08CC003F08DC004F08EC005F0870E49
:10274600066E480E076E3A0E086EC40E096EF9EC58
:1027560019F0D8B0B1EF13F0B3EF13F0C2EF13F0E6
:10276600000E0001CA6F220EC96F000E8B6F000E9D
:102776008C6F000E8D6F000E8E6FC1EF14F000018E
:102786008EBFC8EF13F0CBEF13F0010ECCEF13F0B2
:10279600000E956F9551D8B4D3EF13F0D5EF13F023
:1027A600E7EF13F08BC002F08CC003F08DC004F08D
:1027B6008EC005F07AEC1EF002C08BF003C08CF0E0
:1027C60004C08DF005C08EF08BC047F08CC048F079
:1027D6008DC049F08EC04AF03B0E4B6EAA0E4C6E71
:1027E600B80E4D6E3F0E4E6E66EC0CF047C08BF089
:1027F60048C08CF049C08DF04AC08EF08BC075F091
:102806008CC076F08DC077F08EC078F09BEC17F018
:1028160075C08FF076C090F077C091F078C092F0D6
:102826008FC01BF090C01CF091C01DF092C01EF02E
:1028360076EC19F01BC093F01CC094F08BC075F0B9
:102846008CC076F08DC077F08EC078F093C025F0FE
:1028560094C026F0000E26BEFF0E276E286E010ECF
:10286600F2EC15F025C079F026C07AF027C07BF08F
:1028760028C07CF056EC1EF075C08BF076C08CF04C
:1028860077C08DF078C08EF08BC075F08CC076F076
:102896008DC077F08EC078F01F0E0001796F080E9C
:1028A6007A6F000E7C6F090E7B6F7BEC1AF075C099
:1028B60085F076C086F077C087F078C088F093C040
:1028C60089F094C08AF0DAEC18F085C08BF086C0E7
:1028D6008CF087C08DF088C08EF000019551D8B479
:1028E60077EF14F079EF14F0B9EF14F08BC033F0F2
:1028F6008CC034F08DC035F08EC036F0FF0E376ECA
:10290600FF0E386E7F0E396E7F0E3A6EC1EC1BF0ED
:10291600D8A090EF14F092EF14F09DEF14F0000E93
:1029260000018B6F000E8C6F000E8D6F000E8E6F88
:10293600C1EF14F0000E026E000E036E800E046EE0
:102946003F0E056E8BC006F08CC007F08DC008F0F8
:102956008EC009F07CEC0EF002C08BF003C08CF048
:1029660004C08DF005C08EF0C1EF14F08BC08BF063
:102976008CC08CF08DC08DF08EC08EF01200000ED3
:102986000001A66F96C033F097C034F098C035F0BA
:1029960099C036F0000E376E000E386E000E396E96
:1029A600000E3A6EC1EC1BF0D8A0DCEF14F0DEEF9F
:1029B60014F007EF15F0000E026E000E036E000E07
:1029C600046E000E056E9AC006F09BC007F09CC010
:1029D60008F09DC009F0F9EC19F0D8A0F5EF14F055
:1029E600F7EF14F0FCEF14F0000E0001CA6F210E91
:1029F600C96F000E0001966F000E976F000E986F5C
:102A0600000E996FF1EF15F09AC033F09BC034F0C9
:102A16009CC035F09DC036F0000E376E000E386E45
:102A2600000E396E000E3A6EC1EC1BF0D8A01EEFF8
:102A360015F020EF15F02BEF15F0000E0001966F44
:102A4600000E976F800E986F3F0E996FF1EF15F09D
:102A5600000199BF33EF15F031EF15F08EEF15F049
:102A66009AC01BF09BC01CF09CC01DF09DC01EF0C0
:102A760076EC19F01BC0A7F01CC0A8F01DC0A9F089
:102A86001EC0AAF0A7C025F0A8C026F0A9C027F04E
:102A9600AAC028F0000EF2EC15F025C033F026C0CF
:102AA60034F027C035F028C036F09AC037F09BC006
:102AB60038F09CC039F09DC03AF0C1EC1BF0D8B09C
:102AC60067EF15F069EF15F078EF15F0000E0001CD
:102AD600CA6F210EC96F000E966F000E976F000E1B
:102AE600986F000E996FF1EF15F00001A751010BD9
:102AF600A66F96C002F097C003F098C004F099C084
:102B060005F07AEC1EF002C096F003C097F004C000
:102B160098F005C099F096C085F097C086F098C0E9
:102B260087F099C088F0CCEC16F085C09EF086C080
:102B36009FF087C0A0F088C0A1F09EC047F09FC05C
:102B460048F0A0C049F0A1C04AF09AC04BF09BC023
:102B56004CF09CC04DF09DC04EF066EC0CF047C0AA
:102B6600A2F048C0A3F049C0A4F04AC0A5F0A2C094
:102B76008BF0A3C08CF0A4C08DF0A5C08EF04EECF7
:102B860013F08BC096F08CC097F08DC098F08EC075
:102B960099F00001A651D8B4D3EF15F0D5EF15F092
:102BA600E9EF15F096C002F097C003F098C004F064
:102BB60099C005F07AEC1EF002C096F003C097F0BB
:102BC60004C098F005C099F0F1EF15F096C096F0A4
:102BD60097C097F098C098F099C099F012002D6EA2
:102BE6002D50D8B4F9EF15F0FBEF15F01DEF16F0E8
:102BF60028BE02EF16F000EF16F01DEF16F025C006
:102C060029F026C02AF027C02BF028C02CF0291E58
:102C16002A1E2B1E2C1E292A000E2A222B222C228B
:102C260029C02FF02AC030F02BC031F02CC032F072
:102C360025EF16F025C02FF026C030F027C031F062
:102C460028C032F02550261027102810D8A42EEFC1
:102C560016F030EF16F03AEF16F0000E256E000E65
:102C6600266E000E276E000E286ECBEF16F0960E1F
:102C76002E6E44EF16F02E2AD89032323132303290
:102C86002F32000E2F14296E000E30142A6E000EFD
:102C960031142B6EFE0E32142C6E29502A102B1076
:102CA6002C10D8A459EF16F05BEF16F03EEF16F095
:102CB60069EF16F02E2A010E2F26000E3022312241
:102CC6003222D8903232313230322F32000E2F1467
:102CD600296E000E30142A6E000E31142B6EFF0E74
:102CE60032142C6E29502A102B102C10D8A47EEFEB
:102CF60016F080EF16F05DEF16F088EF16F02E0650
:102D0600D8902F3630363136323631BE8DEF16F04A
:102D16008FEF16F097EF16F0020E2E6095EF16F075
:102D260097EF16F082EF16F02EB09CEF16F09EEF9E
:102D360016F09FEF16F0319ED8902E322EC029F055
:102D46002A6A2B6A2C6A29C02CF02B6A2A6A296AFD
:102D560029502F122A5030122B5031122C50321279
:102D66002D50D8B4B9EF16F0BBEF16F0C3EF16F03E
:102D760028BEC2EF16F0C0EF16F0C3EF16F0328E83
:102D86002FC025F030C026F031C027F032C028F021
:102D96001200000188BFD4EF16F0D2EF16F0E2EF72
:102DA60016F0000ECA6F210EC96F000E856F000E59
:102DB600866F000E876F000E886F9AEF17F085C03A
:102DC60033F086C034F087C035F088C036F0000E88
:102DD600376E000E386E000E396E000E3A6EC1EC7C
:102DE6001BF0D8A0F9EF16F0FBEF16F00AEF17F07C
:102DF600000E0001CA6F220EC96F000E856F000E0D
:102E0600866F000E876F000E886F9AEF17F0000E20
:102E16004B6E000E4C6E000E4D6E400E4E6E5B0EEF
:102E2600436E000E446E85C03FF086C040F087C0FA
:102E360041F088C042F05FEC1BF03FC047F040C055
:102E460048F041C049F042C04AF066EC0CF047C079
:102E560053F048C054F049C055F04AC056F0000E31
:102E6600576E000E586E800E596EBF0E5A6E05ECE8
:102E76000AF053C085F054C086F055C087F056C09E
:102E860088F05B06D8A05C0685C075F086C076F033
:102E960087C077F088C078F0470E0001796F080E7A
:102EA6007A6F000E7C6F080E7B6F7BEC1AF075C094
:102EB60085F076C086F077C087F078C088F0180E67
:102EC6004B6E720E4C6E310E4D6E3F0E4E6E5BC0EB
:102ED60025F05CC026F0000E26BEFF0E276E286E7B
:102EE600010EF2EC15F025C047F026C048F027C0C9
:102EF60049F028C04AF066EC0CF047C053F048C0D1
:102F060054F049C055F04AC056F085C057F086C007
:102F160058F087C059F088C05AF005EC0AF053C043
:102F260085F054C086F055C087F056C088F0120070
:102F360075C03FF076C040F077C041F078C042F0EF
:102F46007D0E436E000E446E5FEC1BF000017EBFEB
:102F5600B1EF17F0AFEF17F0CCEF17F078BFB8EF7F
:102F660017F0B6EF17F0C2EF17F0000E756F000EF0
:102F7600766F800E776FBF0E786F3BEF18F0000EFE
:102F8600756F000E766F000E776F000E786F3BEF51
:102F960018F07E5109E11D0E7D5DD8A0D5EF17F022
:102FA600D7EF17F0E1EF17F075C075F076C076F041
:102FB60077C077F078C078F03BEF18F075C01BF05B
:102FC60076C01CF077C01DF078C01EF076EC19F0C4
:102FD6001BC025F01CC026F01DC027F01EC028F01F
:102FE600010EF2EC15F025C079F026C07AF027C064
:102FF6007BF028C07CF075C002F076C003F077C085
:1030060004F078C005F079C006F07AC007F07BC0FE
:1030160008F07CC009F0F9EC19F0D8B015EF18F0FB
:1030260017EF18F033EF18F079C053F07AC054F068
:103036007BC055F07CC056F0000E576E000E586EE1
:10304600800E596EBF0E5A6E05EC0AF053C075F02D
:1030560054C076F055C077F056C078F03BEF18F0C4
:1030660079C075F07AC076F07BC077F07CC078F0D6
:103076001200000E336E0001CD51316ECE51326E0C
:10308600CD4BCE2BE80E315C030E3258D8A04EEF56
:1030960018F050EF18F054EF18F0000ECE6F000E37
:1030A600CD6FD42B3B0ED4655BEF18F05DEF18F0B7
:1030B60077EF18F0000ED46FD32B3B0ED36566EF77
:1030C60018F068EF18F077EF18F0000ED36FD22BD8
:1030D600170ED26571EF18F073EF18F077EF18F04E
:1030E600000ED26F010E336EF30E0E6E000E0F6ED3
:1030F600CC0E106E080E116E6BEC04F00C0E096E01
:10310600010EA9EC1DF0F30E056E000E066E97EC8F
:103116001CF0E10E0E6E000E0F6EAF0E106E080E56
:10312600116ED2C012F0136AD3C014F0156AD4C05F
:1031360016F0176A6BEC04F03350D8B4A5EF18F00C
:10314600A7EF18F0D9EF18F00001E02B220E5D244E
:10315600D96EDA6A010EDA22E051DE5CD8B0B6EF3B
:1031660018F0B8EF18F0C6EF18F0010EE06F5D2A00
:103176000C0E5D64C1EF18F0C3EF18F0C6EF18F03F
:10318600010E5D6EDF2BEA0E0E6E000E0F6EBB0E8D
:10319600106E080E116E5DC012F0136AE0C014F0D6
:1031A600156ADFC016F0176A6BEC04F0120085C0D2
:1031B60033F086C034F087C035F088C036F0000E94
:1031C600376E000E386E000E396E000E3A6EC1EC88
:1031D6001BF0D8A0F1EF18F0F3EF18F0FEEF18F09F
:1031E600000E0001856F000E866F000E876F000EC1
:1031F600886F75EF19F0000188517F0B5B6E5C6A72
:10320600D8905B365C365B5089275C508A2387BF33
:103216000FEF19F013EF19F05B6A5B2A14EF19F040
:103226005B6A5B5000018927000E8A238ABF20EF64
:1032360019F01EEF19F02EEF19F0000ECA6F220ECC
:10324600C96F000E856F000E866F000E876F000E29
:10325600886F75EF19F08ABF37EF19F08A05D8A085
:1032660037EF19F039EF19F058EF19F0000ECA6F61
:10327600220EC96F88BF44EF19F042EF19F04EEFE6
:1032860019F0FF0E856FFF0E866F7F0E876FFF0E9C
:10329600886F75EF19F0FF0E856FFF0E866F7F0E34
:1032A600876F7F0E886F75EF19F08A358A315C6EED
:1032B60089315B6E88515B18800B5B18886F89C0FB
:1032C6005BF0010E5B165B325B3287515B187F0B3E
:1032D6005B18876F85C085F086C086F087C087F04B
:1032E60088C088F012001D341E34246E2450D8A4E1
:1032F6007FEF19F081EF19F08BEF19F0000E1B6EBE
:10330600000E1C6E000E1D6E000E1E6EF8EF19F0FC
:103316001BC01FF01CC020F01DC021F01EC022F0F3
:10332600200E9BEF19F0D8902232213220321F3224
:10333600E82E96EF19F01F50236E1D8EFF0E1B16FA
:10334600FF0E1C16FF0E1D16000E1E16960E245E90
:1033560024BEB2EF19F0B0EF19F0C8EF19F02450FF
:10336600800A970FD8B0BAEF19F0BCEF19F0BEEF8C
:1033760019F081EF19F0D8901E321D321C321B3223
:10338600243EBEEF19F0E0EF19F01F0E2464CEEFD5
:1033960019F0D0EF19F0D8EF19F081EF19F0D890A5
:1033A6001B361C361D361E3624062450D8A4DEEFE6
:1033B60019F0E0EF19F0D2EF19F02350D8B4E6EF88
:1033C60019F0E8EF19F0F0EF19F01E1E1D1E1C1E75
:1033D6001B6C000E1C221D221E221BC01BF01CC0D3
:1033E6001CF01DC01DF01EC01EF01200000E0214BF
:1033F6000A6E000E03140B6E800E04140C6E7F0E04
:1034060005140D6E0A500B100C100D10D8A40EEFFB
:103416001AF010EF1AF018EF1AF0000E026E000EF6
:10342600036E000E046E000E056E000E06140A6E84
:10343600000E07140B6E800E08140C6E7F0E091416
:103446000D6E0A500B100C100D10D8A42DEF1AF0AB
:103456002FEF1AF037EF1AF0000E066E000E076E09
:10346600000E086E000E096E05AE3CEF1AF03EEF38
:103476001AF047EF1AF0026C031ED8B0032A041E96
:10348600D8B0042A800E055609AE4CEF1AF04EEF5E
:103496001AF057EF1AF0066C071ED8B0072A081E56
:1034A600D8B0082A800E0956000E021A000E031A1A
:1034B600000E041A800E051A000E061A000E071AD0
:1034C600000E081A800E091A0650025C07500358AF
:1034D6000850045809500558D8B074EF1AF076EF22
:1034E6001AF079EF1AF0D8907AEF1AF0D880120015
:1034F6007BC07DF07CC07EF00001D8907D377E37A2
:10350600D8907D377E3779C07FF07AC080F07D51C4
:103516007F277E5180237FC0F6FF80C0F7FF09001A
:10352600F5CF81F00900F5CF82F00900F5CF83F0E1
:103536000A00F5CF84F0EAEF1AF081C04BF082C0A2
:103546004CF083C04DF084C04EF075C047F076C095
:1035560048F077C049F078C04AF066EC0CF047C0F6
:1035660053F048C054F049C055F04AC056F0000127
:103576007B07D8A07C077BC07DF07CC07EF0D8900E
:103586007D377E37D8907D377E3779C07FF07AC019
:1035960080F07D517F277E5180237FC0F6FF80C05B
:1035A600F7FF0900F5CF57F00900F5CF58F00900ED
:1035B600F5CF59F00A00F5CF5AF005EC0AF053C0E2
:1035C60081F054C082F055C083F056C084F00001EB
:1035D6007B517C11D8A4F2EF1AF0F4EF1AF0A0EFA9
:1035E6001AF081C075F082C076F083C077F084C08F
:1035F60078F01200000E00019A6F000E9B6F000E0D
:103606009C6F400E9D6F660E966F660E976F180E36
:10361600986F440E996FC2EC14F096C0ABF097C049
:10362600ACF098C0ADF099C0AEF0ABC047F0ACC0FE
:1036360048F0ADC049F0AEC04AF07E0E4B6E110E9A
:103646004C6E490E4D6E400E4E6E66EC0CF047C049
:10365600C1F048C0C2F049C0C3F04AC0C4F09A0ED7
:103666000001BD6F990EBE6FE40EBF6F440EC06FB2
:10367600C1C047F0C2C048F0C3C049F0C4C04AF058
:10368600880E4B6ED30E4C6E8D0E4D6E340E4E6EF6
:1036960066EC0CF047C0B9F048C0BAF049C0BBF0C0
:1036A6004AC0BCF0660E0001B56FE60EB66FD70EC7
:1036B600B76F440EB86F12003FC033F040C034F00D
:1036C60041C035F042C036F0000E376E000E386E3F
:1036D600000E396E000E3A6EC1EC1BF0D8A076EFE4
:1036E6001BF078EF1BF08AEF1BF043C0D9FF44C0F4
:1036F600DAFF000EDE6E000EDD6E000E3F6E000E6F
:10370600406E000E416E000E426EC0EF1BF042503E
:103716007F0B456E466AD8904536463643C0D9FF7C
:1037260044C0DAFF45C0DEFF46C0DDFF41BE9EEF66
:103736001BF0A2EF1BF0456A452AA3EF1BF0456A72
:10374600455043C0D9FF44C0DAFFDE12000EDD1239
:1037560043C0D9FF44C0DAFF820EDE26FF0EDD220B
:103766004250800B3F09426E419E3FC03FF040C031
:1037760040F041C041F042C042F01200000E331446
:103786003B6E000E34143C6E800E35143D6E7F0E7B
:1037960036143E6E3B503C103D103E10D8A4D6EF7A
:1037A6001BF0D8EF1BF0E0EF1BF0000E336E000E9F
:1037B600346E000E356E000E366E000E37143B6EFC
:1037C600000E38143C6E800E39143D6E7F0E3A148E
:1037D6003E6E3B503C103D103E10D8A4F5EF1BF05A
:1037E600F7EF1BF0FFEF1BF0000E376E000E386E82
:1037F600000E396E000E3A6E375033180FE138500E
:1038060034180CE13950351809E13A503618D8B455
:103816000FEF1CF011EF1CF014EF1CF0D89015EF11
:103826001CF0D88012006EEC1FF004EC1EF0A00E07
:10383600056E080E066E97EC1CF0000E096E010E62
:10384600A9EC1DF08F0E056E080E066E97EC1CF0A7
:10385600FDEC1AF04AEC1FF021EC1FF041EC1FF0D2
:1038660037EC1FF02CEC1FF003EC1FF0F28EF28CFD
:103876000001D551D8B442EF1CF044EF1CF049EFDB
:103886001CF0D7EC11F0000E0001D56FD651D8B45C
:103896004FEF1CF051EF1CF03BEF1CF03CEC18F026
:1038A600000E0001D66F3BEF1CF056EF00F0086EDD
:1038B6008996899408C08AFF08C004F0060E056E32
:1038C600D8900432052E63EF1CF00430D8B06EEFAA
:1038D6001CF071EF1CF08B8C72EF1CF08B9C046A51
:1038E60008AE01D0042A0430D8B07CEF1CF07FEF7C
:1038F6001CF08B8E80EF1CF08B9E89828992000EC5
:10390600076E000E066E8BEF1CF000D0064A072AE3
:103916000250065C03500758D8A094EF1CF096EFAF
:103926001CF088EF1CF01200000E096EB4EF1CF0BC
:1039360009500524076E000E0620086E07C0F6FF24
:1039460008C0F7FFF86A070EF76403D00800F550C1
:1039560005D0F6CFE1FFF7CFE2FFE750D7EC1DF039
:10396600092A09500524076E000E0620086E07C0B6
:10397600F6FF08C0F7FFF86A070EF76403D00800E1
:10398600F55005D0F6CFE1FFF7CFE2FFE75000098B
:10399600D8A4D0EF1CF0D2EF1CF09BEF1CF0120065
:1039A600000E086E000E076E04500510D8B4DEEF48
:1039B6001CF0E0EF1CF008EF1DF0010E066EE8EFBC
:1039C6001CF0D89004360536062A05AEEDEF1CF03D
:1039D600EFEF1CF0E4EF1CF0D890073608360450E1
:1039E600025C05500358D8A0FBEF1CF0FDEF1CF05D
:1039F60002EF1DF00450025E0550035A0780D8906E
:103A060005320432062EEFEF1CF007C002F008C0A4
:103A160003F01200900EF66E3D0EF76E000EF86E75
:103A260001EE00F010EE2FF00900F5CFEEFFE550A5
:103A3600E150FAE1E60EF66E3D0EF76E000EF86EF8
:103A460000EED7F010EE20F00900F5CFEEFFE550BE
:103A5600E150FAE1EA0EF66E3E0EF76E000EF86ED3
:103A66000900F5CF5DF000EEB5F0220EEE6AE8062D
:103A7600FDE15E905E92000EF86E000116EF1CF0FE
:103A86000001CB4BCC2BB190DD51B36EDCC0B2FF45
:103A9600B180A192DE51D8B453EF1DF055EF1DF061
:103AA60063EF1DF0CC5109E1020ECB5DD8A05EEFAD
:103AB6001DF060EF1DF063EF1DF0000EDE6F898ACA
:103AC600CC5109E1640ECB5DD8A06CEF1DF06EEF12
:103AD6001DF076EF1DF0010EDE6F000ECC6F000EAE
:103AE600CB6F5CEC1FF012000B500C10D8B47EEFBD
:103AF6001DF080EF1DF0A4EF1DF0010E0D6E88EF96
:103B06001DF0D8900B360C360D2A0CAE8DEF1DF03D
:103B16008FEF1DF084EF1DF00B50095C0C500A5816
:103B2600D8A098EF1DF09AEF1DF09EEF1DF00B50F8
:103B3600095E0C500A5AD8900C320B320D2E8FEFBC
:103B46001DF009C009F00AC00AF012000F6E020E3D
:103B56000F60B0EF1DF0B2EF1DF0CEEF1DF00F506D
:103B6600D8B4B8EF1DF0BAEF1DF0C4EF1DF0C00ECB
:103B760009C00AF00B6A0A100D6E0B500E6ECCEFE0
:103B86001DF0800E09C00AF00B6A0A100D6E0B506C
:103B96000E6E0DC00CF0000E036E320E026E0C504F
:103BA60080095AEC1CF01200046E89868994898279
:103BB60004C08AFF04C002F0060E036ED8900232DB
:103BC600032EE1EF1DF00230D8B0ECEF1DF0EFEF61
:103BD6001DF08B8CF0EF1DF08B9C026A04AE01D0B9
:103BE600022A0230D8B0FAEF1DF0FDEF1DF08B8EE1
:103BF600FEEF1DF08B9E8992210EE82EFED700F077
:103C06001200270E096EF50EE82EFED7092EFCD7F8
:103C160000F0000E036E320E026E3C0E5AEC1CF0E3
:103C2600000E036E320E026E080E5AEC1CF0000EE9
:103C3600036E320E026E060E5AEC1CF0070E036E71
:103C4600D00E026E010E5AEC1CF0000E036E320E00
:103C5600026E0C0E5AEC1CF01200000E8D6E000E59
:103C66008C6E000E896E000E8A6E000E8B6E070E2D
:103C7600966ED00E926E000E936E840E946E9568BC
:103C86009490949C949E0F015E69000E5D6F000EE9
:103C96005C6F070E5F6F000E5B6F000E856EF18E18
:103CA60073EC1FF01200000E0001791B000E7A1B48
:103CB600000E7B1B800E7C1B75C053F076C054F043
:103CC60077C055F078C056F079C057F07AC058F0F2
:103CD6007BC059F07CC05AF005EC0AF053C075F071
:103CE60054C076F055C077F056C078F012000250F6
:103CF600031004100510D8B483EF1EF085EF1EF0F4
:103D06008DEF1EF0000E021A000E031A000E041AA2
:103D1600800E051A02C002F003C003F004C004F0CE
:103D260005C005F01200046E000E036E3A0E046024
:103D36009FEF1EF0A1EF1EF0ABEF1EF02F0E0464F6
:103D4600A7EF1EF0A9EF1EF0ABEF1EF0010E036EFB
:103D560003C002F002301200E10ED76E7B0ED66E63
:103D6600F2948BB0B9EF1EF0BCEF1EF0010EBDEF62
:103D76001EF0000EFF0A016E8B500118FE0B011893
:103D86008B6E010E0001D66F120041424344454638
:103D9600494A4B4C4D4E4F505152530031323334F9
:103DA600353637383930313233343536001F1C1F3B
:093DB6001E1F1E1F1F1E1F1E1FF1
:103DC00002500402F3CF06F0F4CF07F002500502D0
:103DD000F350072603500402F350072606C002F0F2
:103DE00007C003F0120080818283841DFB0115014E
:103DF00030313A30303A30300030312F30342F32D9
:103E000031002D2D2D000C0E976E180E906E000EA9
:103E1000026E010E026E9750CF0B1009976E000EC6
:103E2000916E12009E94BECFCFF0BFCFD0F0000EA7
:103E3000BF6E000EBE6E68EC1FF0010E0001D56F64
:103E400012009E909D90020ECD6E000ECC6E000E64
:103E5000CF6E000ECE6E1200040EBD6E000EBF6E51
:103E6000000EBE6E9E949D840F01599112000001B8
:103E7000DD51B36EDCC0B2FFA192330EB16EA082F1
:103E80001200310EBB6E000EBC6E9E929D92400ED3
:103E9000BA6E1200E10ED76E7B0ED66EF294F28AE5
:103EA000970ED56E1200100ED36E000ED26E000E5D
:103EB0009B6E000EB56E1200899A9E929D82BA8406
:103EC000CD801200BA94000EBC6E9D929E9212009C
:103ED000CD90000ECF6E000ECE6E120030EC1EF0B4
:0B3EE00053EC1FF01200F290120004DF
:020000040020DA
:08000000FFFFFFFFFFFFFFFF00
:020000040030CA
:0E00000000235F3CFFD385FF0FC00FE00F40D1
:00000001FF
