:020000040000FA
:0400000007EF00F016
:0A0008005F82BFED18F07FEF1BF0E0
:100800000001000A006400E80310270000803F1880
:1008100072313FF0FD753E4758633D58951D3C824F
:10082000C4AE3AA8782139EF938037A092A7354615
:1008300056153400000000C4FF7F3F80EFFFBE90DC
:10084000E1A93EEC8276BE82AD2B3E0E3CC3BD8755
:10085000D1133D4178D3BB47616C733A2534752081
:1008600020253375252520004563686F3A253475AA
:10087000202532752F253275004C6F6164696E67D3
:100880002E2E2E200025336900001D50800B266E71
:100890001D501D24286E1CAE50EF04F052EF04F0E2
:1008A00053EF04F028802850D8B459EF04F05BEFE0
:1008B00004F070EF04F02828D8A461EF04F063EF8F
:1008C00004F06BEF04F0000E1A6E000E1B6E000EAB
:1008D0001C6E000E1D6E1C8E000E1D6E78EF04F057
:1008E000000E1A6E000E1B6E000E1C6E000E1D6EAA
:1008F0002150800B276E26502718D8B482EF04F0C1
:1009000084EF04F085EF04F0268C21502124276E1B
:1009100020AE8DEF04F08FEF04F090EF04F027800D
:100920002750D8B496EF04F098EF04F0ADEF04F040
:100930002728D8A49EEF04F0A0EF04F0A8EF04F05D
:10094000000E1E6E000E1F6E000E206E000E216E39
:10095000208E000E216EB5EF04F0000E1E6E000E0C
:100960001F6E000E206E000E216E2850275CD8B03E
:10097000BCEF04F0BEEF04F0E5EF04F026ACC3EFEB
:1009800004F0C5EF04F0C7EF04F0800E261A28C06B
:1009900029F027C028F029C027F01AC029F01EC06E
:1009A0001AF029C01EF01BC029F01FC01BF029C07F
:1009B0001FF01CC029F020C01CF029C020F01DC071
:1009C00029F021C01DF029C021F0000E296E285009
:1009D00027C022F0236A225E000E235A23BEFAEFBC
:1009E00004F0235009E11A0E225CD8A0FAEF04F0BB
:1009F000FCEF04F033EF05F01A501B101C101D1013
:100A0000D8A405EF05F008EF05F0010E09EF05F099
:100A1000000E296E000E1A6E000E1B6E000E1C6E6C
:100A2000000E1D6E27C028F03CEF05F029A01BEF3B
:100A300005F01DEF05F023EF05F0D89029300109EE
:100A4000296E25EF05F0D89029321AA02AEF05F07B
:100A50002CEF05F02DEF05F0298E1D341D321C32D0
:100A60001B321A32282A2750285CD8A03AEF05F00A
:100A70003CEF05F016EF05F026BC41EF05F043EF23
:100A800005F083EF05F02850D8A449EF05F04BEFAF
:100A900005F055EF05F0000E1A6E000E1B6E000EED
:100AA0001C6E000E1D6EA4EF06F01E501A261F507D
:100AB0001B2220501C2221501D221DA062EF05F098
:100AC00064EF05F010EF06F029A069EF05F06BEF79
:100AD00005F071EF05F0D89029300109296E73EF08
:100AE00005F0D89029321AA078EF05F07AEF05F0DA
:100AF0007BEF05F0298E1D341D321C321B321A3259
:100B0000282A10EF06F01E501A5C1F501B58205068
:100B10001C581D50800A226E2150800A2258D8B0DD
:100B200094EF05F096EF05F0C1EF05F01A501E5C4A
:100B3000226E1B501F58236E1C502058246E1D50CF
:100B40002158256EFF0E22241A6EFF0E23201B6EE5
:100B5000FF0E24201C6EFF0E25201D6E800E261A0F
:100B6000296C2950D8A4B7EF05F0B9EF05F0C9EF0B
:100B700005F0010E1A26000E1B221C221D22C9EFB1
:100B800005F01E501A5E1F501B5A20501C5A21504F
:100B90001D5A1A501B101C101D10D8A4D2EF05F0BE
:100BA000D4EF05F009EF06F02950D8A4DAEF05F0EC
:100BB000DCEF05F009EF06F0000E1A6E000E1B6E5A
:100BC000000E1C6E000E1D6EA4EF06F0D8901A36B3
:100BD0001B361C361D3629AEF0EF05F0F2EF05F09E
:100BE000F3EF05F01A8029A0F8EF05F0FAEF05F011
:100BF000FEEF05F0D880293600EF06F0D8902936B0
:100C00002850D8B406EF06F008EF06F009EF06F01A
:100C100028061CAE0EEF06F010EF06F0E6EF05F02A
:100C2000000E276E29AE17EF06F019EF06F031EF30
:100C300006F029C022F07F0E2216D8B422EF06F06B
:100C400024EF06F028EF06F0010E276E31EF06F0D4
:100C50001AA02DEF06F02FEF06F031EF06F024EF8B
:100C600006F02750D8B437EF06F039EF06F064EFFE
:100C700006F0010E1A26000E1B221C221D221DA0AA
:100C800044EF06F046EF06F064EF06F01AC022F0DB
:100C90001BC023F01CC024F01DC025F025342532D4
:100CA00024322332223222C01AF023C01BF024C087
:100CB0001CF025C01DF02828D8B461EF06F063EFC2
:100CC00006F064EF06F0282A2828D8B46AEF06F068
:100CD0006CEF06F074EF06F02850D8A472EF06F01F
:100CE00074EF06F086EF06F0000E1A6E000E1B6E13
:100CF000000E1C6E000E1D6E2850D8A482EF06F068
:100D000084EF06F086EF06F0000E266E28A08BEF2B
:100D100006F08DEF06F090EF06F01C8E91EF06F0D6
:100D20001C9ED89028301D6E26AE99EF06F09BEFE2
:100D300006F09CEF06F01D8E1AC01AF01BC01BF0C7
:100D40001CC01CF01DC01DF012005950800B00018A
:100D5000646F595059246A6F58AEB1EF06F0B3EF83
:100D600006F0B4EF06F06A816A51D8B4BAEF06F023
:100D7000BCEF06F0CFEF06F06A29D8A4C2EF06F068
:100D8000C4EF06F0CCEF06F0000E566E000E576E64
:100D9000000E586E000E596E588ED7EF06F0000EFA
:100DA000566E000E576E000E586E000E596E5D5056
:100DB000800B641B5D505D24696F5CAEE2EF06F052
:100DC000E4EF06F0E5EF06F069816951D8B4EBEF86
:100DD00006F0EDEF06F000EF07F06929D8A4F3EF75
:100DE00006F0F5EF06F0FDEF06F0000E5A6E000E6D
:100DF0005B6E000E5C6E000E5D6E5C8E08EF07F0A1
:100E0000000E5A6E000E5B6E000E5C6E000E5D6E84
:100E10006951D8B40EEF07F010EF07F018EF07F0A4
:100E20006A51D8A416EF07F018EF07F022EF07F089
:100E3000000E566E000E576E000E586E000E596E64
:100E4000BAEF08F05C505602F3CF6FF0F4CF70F0B9
:100E50006F51656F666B676B686B70516B6F6C6B16
:100E60006D6B6E6B5B505702F3CF6FF0F4CF70F089
:100E70006F516527000E66236723682370516B2727
:100E8000000E6C236D236E235A505802F3CF6FF07F
:100E9000F4CF70F06F516527000E66236723682337
:100EA00070516B27000E6C236D236E2367C068F0B2
:100EB00066C067F065C066F0656B5A505702F3CFA5
:100EC0006FF0F4CF70F06F51652770516623000EFC
:100ED0006723000E68235B505602F3CF6FF0F4CF08
:100EE00070F06F51652770516623000E6723000E66
:100EF000682367C068F066C067F065C066F0656B20
:100F00005A505602F3CF6FF0F4CF70F06F5165274F
:100F100070516623000E6723000E68235C50570251
:100F2000F3CF6FF0F4CF70F06F516B2770516C23DB
:100F3000000E6D23000E6E235B505802F3CF6FF04E
:100F4000F4CF70F06F516B2770516C23000E6D233E
:100F5000000E6E235C505802F3CF6FF0F4CF70F0A8
:100F60006F51606F7051616F626B636B62C063F051
:100F700061C062F060C061F0606B60516B276151CD
:100F80006C2362516D2363516E2365C060F066C0AF
:100F900061F067C062F068C063F0190ED5EF07F02A
:100FA000D8906333623361336033E82ED0EF07F0BB
:100FB00060516B2761516C2362516D2363516E2325
:100FC00067C068F066C067F065C066F0656B695120
:100FD0006AC060F0616B6027000E6123820E60259D
:100FE0006F6FFF0E6121706F0BEF08F0D8906B37B9
:100FF0006C376D376E3768AF00EF08F002EF08F01E
:1010000003EF08F06B81D89065376637673768372C
:101010006F07D8A070076DAF10EF08F012EF08F05F
:10102000F6EF07F0000E696F68AF19EF08F01BEFDD
:1010300008F03FEF08F0FF0E6515606FFF0E6615B4
:10104000616FFF0E6715626F7F0E6815636F6051E9
:10105000611162116311D8B430EF08F032EF08F07B
:1010600036EF08F0010E696F3FEF08F06BA13BEF20
:1010700008F03DEF08F03FEF08F032EF08F069515B
:10108000D8B445EF08F047EF08F06BEF08F0010E19
:101090006B27000E6C236D236E236EA152EF08F0B8
:1010A00054EF08F06BEF08F06BC060F06CC061F0BB
:1010B0006DC062F06EC063F06335633362336133D9
:1010C000603360C06BF061C06CF062C06DF063C0F3
:1010D0006EF06F4B702B70BF76EF08F0705108E127
:1010E0006F29D8A076EF08F078EF08F082EF08F0CB
:1010F000000E6B6F000E6C6F800E6D6F7F0E6E6F4B
:10110000B0EF08F070BF8FEF08F0705106E16F0587
:10111000D8B08DEF08F08FEF08F09BEF08F0000ECD
:101120006B6F000E6C6F000E6D6F000E6E6F000E19
:10113000646FB0EF08F06FC06AF0FF0E6B17FF0E20
:101140006C177F0E6D17000E6E176AA1AAEF08F0DC
:10115000ACEF08F0ADEF08F06D8FD8906A316E6F8C
:1011600064516E136BC056F06CC057F06DC058F0F0
:101170006EC059F01200110E1E6E000E1F6E83EF2E
:101180000AF0250E2718D8B4C8EF08F0CAEF08F007
:10119000D4EF08F00DC0D9FF0EC0DAFF27C0DFFF83
:1011A0000D4A0E2A83EF0AF0000E266E000E256E01
:1011B000000E226E0FC0F6FF10C0F7FF0800F550BA
:1011C000A0EC1DF0D8A0E7EF08F0E9EF08F079EF08
:1011D00009F0000E266E000E256E25C001F026C017
:1011E00002F0000E046E0A0E036EB9EC1DF001C091
:1011F00025F002C026F0D00E176EFF0E186E0FC03D
:10120000F6FF10C0F7FF0800F550196E1A6A175064
:10121000192618501A22195025261A5026220F4A2C
:10122000102A0FC0F6FF10C0F7FF0800F550A0EC21
:101230001DF0D8B01EEF09F020EF09F0EDEF08F037
:1012400079EF09F0265009E1020E255CD8A02BEFBA
:1012500009F02DEF09F032EF09F02506D8A0260697
:1012600040EF09F0000E266E000E256E40EF09F0EB
:101270000DC0D9FF0EC0DAFF200EDF6E0D4A0E2A18
:101280002506D8A02606252806E12628D8A44BEF57
:1012900009F04DEF09F038EF09F05DEF09F01BC0E0
:1012A000D9FF1CC0DAFF0DC0E1FF0EC0E2FFDFCFA7
:1012B000E7FF1B4A1C2A0D4A0E2A2006D8A0210649
:1012C000202806E12128D8A468EF09F06AEF09F088
:1012D0004FEF09F083EF0AF0270E1B6E000E1C6E15
:1012E000000E216E010E206E22EF09F0228C95EF88
:1012F00009F00FC0F6FF10C0F7FF0F4A102A0800D0
:10130000F5CF27F02750000AD8B494EF0AF0640A0A
:10131000D8B495EF09F00D0AD8B495EF09F01C0A7E
:10132000D8B476EF09F06CEF09F022BC9AEF09F01F
:101330009CEF09F0B7EF09F01EC0D9FF1FC0DAFF1C
:10134000DECF23F0DDCF24F0020E1E26000E1F227A
:1013500024BEAFEF09F0ADEF09F0C3EF09F0030EC3
:101360002212236C241ED8B0242AC3EF09F01EC019
:10137000D9FF1FC0DAFFDECF23F0DDCF24F0020E4D
:101380001E26000E1F22010E276E050E2718D8A458
:10139000CCEF09F0CEEF09F0D0EF09F0EAEF09F059
:1013A0002750020D010EF324F66E080EF420F76E9E
:1013B0000900F550235C0900F5502458D8B0E3EF3C
:1013C00009F0E5EF09F0E7EF09F0EAEF09F0272A65
:1013D000C5EF09F025502610D8B4F1EF09F0F3EF6E
:1013E00009F001EF0AF022C017F0030E1716D8B467
:1013F000FCEF09F0FEEF09F001EF0AF02506D8A096
:1014000026062750176E186A2550175C1850800A58
:10141000196E2650800A1958D8B011EF0AF013EF50
:101420000AF019EF0AF02750255E000E265A1DEF2C
:101430000AF0000E266E000E256E25502610D8B438
:1014400024EF0AF026EF0AF03AEF0AF00DC0D9FFB8
:101450000EC0DAFF200EDF6E0D4A0E2A2506D8A038
:10146000260625502610D8A438EF0AF03AEF0AF0E5
:1014700026EF0AF022C017F0030E1716D8B443EF78
:101480000AF045EF0AF04DEF0AF00DC0D9FF0EC08B
:10149000DAFF2D0EDF6E0D4A0E2A27C01DF07AEFFF
:1014A0000AF01D50020D010EF324F66E080EF42012
:1014B000F76E0900F5CF03F00A00F5CF04F023C062
:1014C00001F024C002F0F7EC1BF001C008F002C0EC
:1014D00009F0000E0B6E0A0E0A6E31EC1CF008507B
:1014E000300F276E0DC0D9FF0EC0DAFF27C0DFFF17
:1014F0000D4A0E2A1D061D28D8A481EF0AF083EF9D
:101500000AF051EF0AF00FC0F6FF10C0F7FF0F4AC4
:10151000102A0800F5CF27F02750D8A492EF0AF040
:1015200094EF0AF0C1EF08F00DC0D9FF0EC0DAFF4A
:10153000000EDF6E12000450800B116E0450042464
:10154000186E03AEA6EF0AF0A8EF0AF0A9EF0AF0B2
:1015500018801850D8B4AFEF0AF0B1EF0AF0C6EF18
:101560000AF01828D8A4B7EF0AF0B9EF0AF0C1EFD3
:101570000AF0000E016E000E026E000E036E000EE9
:10158000046E038E000E046ECEEF0AF0000E016EA4
:10159000000E026E000E036E000E046E0850800BEB
:1015A000111A08500824196E07AED9EF0AF0DBEFC4
:1015B0000AF0DCEF0AF019801950D8B4E2EF0AF013
:1015C000E4EF0AF0F9EF0AF01928D8A4EAEF0AF0DC
:1015D000ECEF0AF0F4EF0AF0000E056E000E066E56
:1015E000000E076E000E086E078E000E086E01EFEB
:1015F0000BF0000E056E000E066E000E076E000E5C
:10160000086E0550061007100810D8A40AEF0BF05A
:101610000CEF0BF024EF0BF0000E016E000E026ECB
:10162000000E036E000E046E800E03127F0E041275
:101630001150041201C001F002C002F003C003F017
:1016400004C004F067EF0CF01850D8A42AEF0BF098
:101650002CEF0BF036EF0BF0000E016E000E026E59
:10166000000E036E000E046E67EF0CF0195018C0E8
:1016700009F00A6A095E000E0A5A7F0E0924126EEA
:10168000000E0A20136E01C00DF002C00EF003C060
:101690000FF004C010F0000E016E000E026E000E7E
:1016A000036E000E046E000E146E000E156E000E1A
:1016B000166E000E176E000E196E97EF0BF0195094
:1016C000D8B465EF0BF067EF0BF07EEF0BF0D8901E
:1016D0000D360E360F361036D890013602360336E8
:1016E000043617AE76EF0BF078EF0BF079EF0BF0D6
:1016F0000180D890143615361636173605500D5C15
:1017000006500E5807500F5808501058D8A08BEFAD
:101710000BF08DEF0BF096EF0BF0178C05500D5E74
:1017200006500E5A07500F5A0850105A192A190E0F
:1017300019649DEF0BF09FEF0BF05FEF0BF00D5076
:101740000E100F101010D8B4A8EF0BF0AAEF0BF08A
:10175000C2EF0BF01480C2EF0BF0D89001360236C6
:101760000336043617AEB7EF0BF0B9EF0BF0BAEF54
:101770000BF00180D890143615361636173612063F
:10178000D8A0130603AEC7EF0BF0C9EF0BF0ADEF17
:101790000BF0000E196E17AED0EF0BF0D2EF0BF07E
:1017A000F6EF0BF0FF0E1414096EFF0E15140A6EFF
:1017B000FF0E16140B6E7F0E17140C6E09500A10D4
:1017C0000B100C10D8B4E7EF0BF0E9EF0BF0EDEFD6
:1017D0000BF0010E196EF6EF0BF001A0F2EF0BF01B
:1017E000F4EF0BF0F6EF0BF0E9EF0BF01950D8B473
:1017F000FCEF0BF0FEEF0BF022EF0CF0010E0126D8
:10180000000E02220322042204A009EF0CF00BEFC9
:101810000CF022EF0CF001C009F002C00AF003C086
:101820000BF004C00CF00C340C320B320A320932CB
:1018300009C001F00AC002F00BC003F00CC004F0B4
:10184000124A132A13BE2DEF0CF0135008E1122890
:10185000D8A02DEF0CF02FEF0CF03AEF0CF0000EAB
:10186000136E1268000E016E000E026E000E036E03
:10187000000E046E13BE47EF0CF0135006E1120485
:10188000D8B045EF0CF047EF0CF055EF0CF0000E20
:10189000136E000E126E000E016E000E026E000E30
:1018A000036E000E046E000E116E12C018F018A028
:1018B0005CEF0CF05EEF0CF061EF0CF0038E62EF6A
:1018C0000CF0039ED8901830046E18EF0BF0120045
:1018D000000EB36E000EB26EB180DFC034F0E0C017
:1018E00035F0366A376A000E4CEC13F034C056F00F
:1018F00035C057F036C058F037C059F0BD0E5A6E9B
:10190000370E5B6E060E5C6E350E5D6EA5EC06F056
:10191000C9C081F0CAC082F0CBC083F0CCC084F0D3
:10192000000E1E6E000E1F6E800E206E3F0E216E8A
:10193000330E056E930E066E880E076E430E086E0C
:1019400081C001F082C002F083C003F084C004F0C3
:101950009BEC0AF001C01AF002C01BF003C01CF09F
:1019600004C01DF045EC04F01AC02AF01BC02BF097
:101970001CC02CF01DC02DF0F6EC0DF02AC056F066
:101980002BC057F02CC058F02DC059F0800E5A6E65
:10199000C40E5B6EA10E5C6E480E5D6EA5EC06F08B
:1019A00056C089F057C08AF058C08BF059C08CF0EF
:1019B000BD0E5A6E370E5B6E060E5C6E350E5D6E9A
:1019C00089C056F08AC057F08BC058F08CC059F0CF
:1019D000A5EC06F056C001F057C002F058C003F065
:1019E00059C004F0000E056E000E066E000E076E64
:1019F000400E086E9BEC0AF001C091F002C092F01C
:101A000003C093F004C094F0D00E0001796FEE0E85
:101A10007A6FDFC07BF0E0C07CF079517B277A5190
:101A20007C237BC034F07CC035F0366A376A000E08
:101A30004CEC13F034C056F035C057F036C058F0B7
:101A400037C059F091C05AF092C05BF093C05CF07F
:101A500094C05DF0A5EC06F056C099F057C09AF01E
:101A600058C09BF059C09CF099C02AF09AC02BF046
:101A70009BC02CF09CC02DF0C6EC16F02AC0D5F00F
:101A80002BC0D6F0B9C066F0BAC067F0BBC068F032
:101A9000BCC069F099C06AF09AC06BF09BC06CF052
:101AA0009CC06DF043EC1DF066C095F067C096F0E9
:101AB00068C097F069C098F095C056F096C057F08E
:101AC00097C058F098C059F0B5C05AF0B6C05BF056
:101AD000B7C05CF0B8C05DF0A5EC06F056C085F06C
:101AE00057C086F058C087F059C088F0B1C005F0E3
:101AF000B2C006F0B3C007F0B4C008F0000E5A6ED2
:101B0000000E5B6EC80E5C6E420E5D6E95C056F0A8
:101B100096C057F097C058F098C059F0A5EC06F061
:101B200056C001F057C002F058C003F059C004F08D
:101B30009BEC0AF001C02AF002C02BF003C02CF08D
:101B400004C02DF0C6EC16F02AC0D7F02BC0D8F098
:101B500085C071F086C072F087C073F088C074F0E1
:101B6000EDEC1AF071C08DF072C08EF073C08FF082
:101B700074C090F08DC02AF08EC02BF08FC02CF076
:101B800090C02DF0C6EC16F02AC0D9F02BC0DAF0C8
:101B90008BA0CDEF0DF0CFEF0DF0DEEF0DF00001DB
:101BA000D85107E1190ED75DD8B0D9EF0DF0DBEFB2
:101BB0000DF0EBEF0DF08B90EBEF0DF00001D85135
:101BC00009E1510ED75DD8A0E8EF0DF0EAEF0DF076
:101BD000EBEF0DF08B803EEC1BF0B190B2CFE1F05B
:101BE0000001E26BB350E22700F012002D50800B91
:101BF000326E2D502D24386E2CAE01EF0EF003EF17
:101C00000EF004EF0EF0388038C03DF03E6AFF0E53
:101C10002A14436EFF0E2B14446E7F0E2C14456E57
:101C2000000E2D14466E3D503E10D8B41AEF0EF043
:101C30001CEF0EF026EF0EF0458E3D283E10D8A486
:101C400024EF0EF026EF0EF02EEF0EF0000E436E96
:101C5000000E446E000E456E000E466E3D503E1066
:101C6000D8A435EF0EF037EF0EF041EF0EF0000E76
:101C70002A6E000E2B6E000E2C6E000E2D6E83EF62
:101C80000FF03250D8B447EF0EF049EF0EF064EF8A
:101C90000EF0000E3F6E000E406E400E416E000EC4
:101CA000426E800E4112FF0E4212000E0001CE6FF6
:101CB000210ECD6F3FC02AF040C02BF041C02CF068
:101CC00042C02DF083EF0FF03D283E10D8A46BEFFB
:101CD0000EF06DEF0EF077EF0EF0000E3F6E000E7F
:101CE000406E800E416E7F0E426E5AEF0EF0810EF6
:101CF0003D26FF0E3E223D50010B386E3E343E32F3
:101D00003D327F0E3D26000E3E22D8904334346E85
:101D10004434356E4534366E4634376E000E436EAD
:101D2000000E446E000E456E000E466E000E396EBB
:101D3000000E3A6E000E3B6E010E3C6E3850D8B469
:101D4000A4EF0EF0A6EF0EF0ABEF0EF0D890343605
:101D5000353636363736000E336E03EF0FF0395016
:101D600043123A5044123B5045123C5046124350E5
:101D7000345C445035584550365846503758D8A0F2
:101D8000C4EF0EF0C6EF0EF0D8EF0EF04350345E05
:101D90004450355A4550365A4650375A39504326E2
:101DA0003A5044223B5045223C504622E8EF0EF088
:101DB000391C2E6E3A1C2F6E3B1C306E3C1C316E53
:101DC0002E5043162F5044163050451631504616AB
:101DD00039C02EF03AC02FF03BC030F03CC031F09B
:101DE000D890313230322F322E322EC039F02FC0FF
:101DF0003AF030C03BF031C03CF0D8903436353644
:101E000036363736332A180E336409EF0FF00BEFEE
:101E10000FF0AFEF0EF043C02EF044C02FF045C0DE
:101E200030F046C031F0D890313230322F322E327D
:101E30002EC043F02FC044F030C045F031C046F012
:101E4000010E4314396E000E44143A6E000E451410
:101E50003B6E000E46143C6E43C02EF044C02FF083
:101E600045C030F046C031F0D890313230322F3298
:101E70002E322EC043F02FC044F030C045F031C0A8
:101E800046F0395043263A5044223B5045223C50BC
:101E9000462246A04EEF0FF050EF0FF067EF0FF025
:101EA00043C02EF044C02FF045C030F046C031F0A2
:101EB000D890313230322F322E322EC043F02FC024
:101EC00044F030C045F031C046F03D4A3E2AFF0E96
:101ED00043143F6EFF0E4414406E7F0E4514416E56
:101EE000000E4614426E3DC038F038A07AEF0FF075
:101EF0007CEF0FF07DEF0FF0418ED8903830426EBE
:101F0000429E5AEF0EF0120089C042F08AC043F0A0
:101F10008BC044F08CC045F0000E466E000E476E3C
:101F2000000E486E000E496E98EC1AF0D8A09BEF98
:101F30000FF09DEF0FF0A8EF0FF0000E0001896F7A
:101F4000000E8A6F800E8B6F3F0E8C6FF7EF10F0D4
:101F5000180E016E720E026E310E036E440E046E88
:101F600089C005F08AC006F08BC007F08CC008F06D
:101F700049EC17F0D8B0BFEF0FF0C1EF0FF0D0EF82
:101F80000FF0000E0001CE6F220ECD6FFF0E896F95
:101F9000FF0E8A6F7F0E8B6F7F0E8C6FF7EF10F046
:101FA00089C001F08AC002F08BC003F08CC004F03D
:101FB000870E056E480E066E3A0E076EC40E086E4A
:101FC00049EC17F0D8B0E7EF0FF0E9EF0FF0F8EFBA
:101FD0000FF0000E0001CE6F220ECD6F000E896F44
:101FE000000E8A6F000E8B6F000E8C6FF7EF10F0F3
:101FF00000018CBFFEEF0FF001EF10F0010E02EFB9
:1020000010F0000E936F9351D8B409EF10F00BEF5E
:1020100010F01DEF10F089C001F08AC002F08BC0F3
:1020200003F08CC004F084EC1DF001C089F002C004
:102030008AF003C08BF004C08CF089C056F08AC0CF
:1020400057F08BC058F08CC059F03B0E5A6EAA0E58
:102050005B6EB80E5C6E3F0E5D6EA5EC06F056C072
:1020600089F057C08AF058C08BF059C08CF089C0F5
:1020700056F08AC057F08BC058F08CC059F0F5EC80
:1020800014F056C08DF057C08EF058C08FF059C074
:1020900090F08DC02AF08EC02BF08FC02CF090C035
:1020A0002DF0C6EC16F02AC091F02BC092F089C03A
:1020B00066F08AC067F08BC068F08CC069F091C090
:1020C00034F092C035F0000E35BEFF0E366E376E1E
:1020D000010E4CEC13F034C06AF035C06BF036C022
:1020E0006CF037C06DF043EC1DF066C089F067C03E
:1020F0008AF068C08BF069C08CF089C071F08AC02A
:1021000072F08BC073F08CC074F00B0E0001756F11
:10211000080E766F000E786F090E776FCBEC17F014
:1021200071C081F072C082F073C083F074C084F01B
:1021300091C085F092C086F096EC15F081C089F0D0
:1021400082C08AF083C08BF084C08CF00001935170
:10215000D8B4ADEF10F0AFEF10F0EFEF10F089C092
:1021600042F08AC043F08BC044F08CC045F0FF0EB3
:10217000466EFF0E476E7F0E486E7F0E496E98ECDE
:102180001AF0D8A0C6EF10F0C8EF10F0D3EF10F09F
:10219000000E0001896F000E8A6F000E8B6F000E1B
:1021A0008C6FF7EF10F0000E016E000E026E800EC5
:1021B000036E3F0E046E89C005F08AC006F08BC026
:1021C00007F08CC008F09BEC0AF001C089F002C057
:1021D0008AF003C08BF004C08CF0F7EF10F089C0D8
:1021E00089F08AC08AF08BC08BF08CC08CF0120012
:1021F000000E0001A46F94C042F095C043F096C059
:1022000044F097C045F0000E466E000E476E000E7B
:10221000486E000E496E98EC1AF0D8A012EF11F03B
:1022200014EF11F03DEF11F0000E016E000E026E82
:10223000000E036E000E046E98C005F099C006F003
:102240009AC007F09BC008F049EC17F0D8A02BEF1C
:1022500011F02DEF11F032EF11F0000E0001CE6FF2
:10226000210ECD6F000E0001946F000E956F000ED1
:10227000966F000E976F27EF12F098C042F099C04A
:1022800043F09AC044F09BC045F0000E466E000E2D
:10229000476E000E486E000E496E98EC1AF0D8A0FA
:1022A00054EF11F056EF11F061EF11F0000E000144
:1022B000946F000E956F800E966F3F0E976F27EF0D
:1022C00012F0000197BF69EF11F067EF11F0C4EF52
:1022D00011F098C02AF099C02BF09AC02CF09BC046
:1022E0002DF0C6EC16F02AC0A5F02BC0A6F02CC02D
:1022F000A7F02DC0A8F0A5C034F0A6C035F0A7C047
:1023000036F0A8C037F0000E4CEC13F034C042F0A9
:1023100035C043F036C044F037C045F098C046F0B1
:1023200099C047F09AC048F09BC049F098EC1AF069
:10233000D8B09DEF11F09FEF11F0AEEF11F0000E4D
:102340000001CE6F210ECD6F000E946F000E956FC1
:10235000000E966F000E976F27EF12F00001A55147
:10236000010BA46F94C001F095C002F096C003F079
:1023700097C004F084EC1DF001C094F002C095F009
:1023800003C096F004C097F094C081F095C082F02D
:1023900096C083F097C084F026EC14F081C09CF0C6
:1023A00082C09DF083C09EF084C09FF09CC056F018
:1023B0009DC057F09EC058F09FC059F098C05AF089
:1023C00099C05BF09AC05CF09BC05DF0A5EC06F094
:1023D00056C0A0F057C0A1F058C0A2F059C0A3F059
:1023E000A0C089F0A1C08AF0A2C08BF0A3C08CF07D
:1023F00084EC0FF089C094F08AC095F08BC096F001
:102400008CC097F00001A451D8B409EF12F00BEF83
:1024100012F01FEF12F094C001F095C002F096C0C8
:1024200003F097C004F084EC1DF001C094F002C0EA
:1024300095F003C096F004C097F027EF12F094C017
:1024400094F095C095F096C096F097C097F0120062
:10245000000EB36E000EB26EB180000E5A6EE00E2A
:102460005B6E920E5C6E450E5D6EF2C034F0F3C092
:1024700035F0366A376A000E4CEC13F034C056F073
:1024800035C057F036C058F037C059F0A5EC06F00B
:1024900056C001F057C002F058C003F059C004F014
:1024A000FF0E0001876F030E886FF251875FF351B3
:1024B000885B87C034F088C035F0366A376A000E12
:1024C0004CEC13F034C005F035C006F036C007F010
:1024D00037C008F09BEC0AF001C0C5F002C0C6F09E
:1024E00003C0C7F004C0C8F0C5C001F0C6C002F008
:1024F000C7C003F0C8C004F08D0E056E710E066EE5
:10250000900E076E3C0E086E9BEC0AF001C0C1F005
:1025100002C0C2F003C0C3F004C0C4F0C1C081F067
:10252000C2C082F0C3C083F0C4C084F026EC14F0B3
:1025300081C0EEF082C0EFF083C0F0F084C0F1F013
:10254000EEC005F0EFC006F0F0C007F0F1C008F0F3
:10255000000E016EE00E026E760E036E450E046EE6
:102560009BEC0AF001C01AF002C01BF003C01CF083
:1025700004C01DF0330E1E6E930E1F6E880E206E6B
:10258000C30E216E45EC04F01AC0C9F01BC0CAF09E
:102590001CC0CBF01DC0CCF0C9C071F0CAC072F035
:1025A000CBC073F0CCC074F0EDEC1AF071C089F0C0
:1025B00072C08AF073C08BF074C08CF089C02AF0AE
:1025C0008AC02BF08BC02CF08CC02DF0C6EC16F01E
:1025D0002AC0DDF02BC0DEF0000E1E6E000E1F6E56
:1025E000000E206E420E216E000E056E000E066E6D
:1025F000A00E076E400E086E000E5A6E000E5B6E47
:10260000100E5C6E410E5D6EC9C056F0CAC057F028
:10261000CBC058F0CCC059F0A5EC06F056C001F084
:1026200057C002F058C003F059C004F09BEC0AF008
:1026300001C01AF002C01BF003C01CF004C01DF062
:1026400045EC04F01AC08DF01BC08EF01CC08FF05A
:102650001DC090F08DC071F08EC072F08FC073F00D
:1026600090C074F0EDEC1AF071C091F072C092F06D
:1026700073C093F074C094F091C02AF092C02BF014
:1026800093C02CF094C02DF0C6EC16F02AC0DBF0FD
:102690002BC0DCF000F012003C6E3C50D8B453EF7D
:1026A00013F055EF13F077EF13F037BE5CEF13F034
:1026B0005AEF13F077EF13F034C038F035C039F02B
:1026C00036C03AF037C03BF0381E391E3A1E3B1E6A
:1026D000382A000E39223A223B2238C03EF039C057
:1026E0003FF03AC040F03BC041F07FEF13F034C000
:1026F0003EF035C03FF036C040F037C041F03450B6
:10270000351036103710D8A488EF13F08AEF13F085
:1027100094EF13F0000E346E000E356E000E366E20
:10272000000E376E25EF14F0960E3D6E9EEF13F0FF
:102730003D2AD890413240323F323E32000E3E14A4
:10274000386E000E3F14396E000E40143A6EFE0EC5
:1027500041143B6E385039103A103B10D8A4B3EFF7
:1027600013F0B5EF13F098EF13F0C3EF13F03D2A19
:10277000010E3E26000E3F2240224122D8904132D7
:1027800040323F323E32000E3E14386E000E3F148F
:10279000396E000E40143A6EFF0E41143B6E3850F5
:1027A00039103A103B10D8A4D8EF13F0DAEF13F039
:1027B000B7EF13F0E2EF13F03D06D8903E363F3608
:1027C0004036413640BEE7EF13F0E9EF13F0F1EF8A
:1027D00013F0020E3D60EFEF13F0F1EF13F0DCEFBA
:1027E00013F03DB0F6EF13F0F8EF13F0F9EF13F03C
:1027F000409ED8903D323DC038F0396A3A6A3B6A13
:1028000038C03BF03A6A396A386A38503E1239505B
:102810003F123A5040123B5041123C50D8B413EF93
:1028200014F015EF14F01DEF14F037BE1CEF14F088
:102830001AEF14F01DEF14F0418E3EC034F03FC08B
:1028400035F040C036F041C037F01200000184BFBF
:102850002EEF14F02CEF14F03CEF14F0000ECE6FBE
:10286000210ECD6F000E816F000E826F000E836F00
:10287000000E846FF4EF14F081C042F082C043F088
:1028800083C044F084C045F0000E466E000E476ED3
:10289000000E486E000E496E98EC1AF0D8A053EF67
:1028A00014F055EF14F064EF14F0000E0001CE6F39
:1028B000220ECD6F000E816F000E826F000E836FAF
:1028C000000E846FF4EF14F0000E5A6E000E5B6E73
:1028D000000E5C6E400E5D6E850E526E000E536EE5
:1028E00081C04EF082C04FF083C050F084C051F0E0
:1028F00023EC19F04EC056F04FC057F050C058F0BE
:1029000051C059F0A5EC06F056C01AF057C01BF0A4
:1029100058C01CF059C01DF0000E1E6E000E1F6E38
:10292000800E206EBF0E216E45EC04F01AC081F0BF
:102930001BC082F01CC083F01DC084F0000185071D
:10294000D8A0860781C071F082C072F083C073F096
:1029500084C074F0330E756F080E766F000E786FBA
:10296000080E776FCBEC17F071C081F072C082F067
:1029700073C083F074C084F0180E5A6E720E5B6ED2
:10298000310E5C6E3F0E5D6E85C034F086C035F052
:10299000000E35BEFF0E366E376E010E4CEC13F096
:1029A00034C056F035C057F036C058F037C059F033
:1029B000A5EC06F056C01AF057C01BF058C01CF02A
:1029C00059C01DF081C01EF082C01FF083C020F0EE
:1029D00084C021F045EC04F01AC081F01BC082F0E5
:1029E0001CC083F01DC084F0120056C04EF057C0CA
:1029F0004FF058C050F059C051F0640E526E000EA6
:102A0000536E23EC19F0000165BF0BEF15F009EFD1
:102A100015F026EF15F059BE12EF15F010EF15F076
:102A20001CEF15F0000E566E000E576E800E586E9D
:102A3000BF0E596E95EF15F0000E566E000E576ED4
:102A4000000E586E000E596E95EF15F0655109E1B4
:102A50001D0E645DD8A02FEF15F031EF15F03BEFA0
:102A600015F056C056F057C057F058C058F059C02E
:102A700059F095EF15F056C02AF057C02BF058C00A
:102A80002CF059C02DF0C6EC16F02AC034F02BC043
:102A900035F02CC036F02DC037F0010E4CEC13F0A1
:102AA00034C060F035C061F036C062F037C063F00A
:102AB00056C001F057C002F058C003F059C004F0EE
:102AC00060C005F061C006F062C007F063C008F0A6
:102AD00049EC17F0D8B06FEF15F071EF15F08DEFEE
:102AE00015F060C01AF061C01BF062C01CF063C03A
:102AF0001DF0000E1E6E000E1F6E800E206EBF0EAB
:102B0000216E45EC04F01AC056F01BC057F01CC0F3
:102B100058F01DC059F095EF15F060C056F061C037
:102B200057F062C058F063C059F0120081C042F003
:102B300082C043F083C044F084C045F0000E466E6E
:102B4000000E476E000E486E000E496E98EC1AF0AB
:102B5000D8A0ADEF15F0AFEF15F0BAEF15F0000EFD
:102B60000001816F000E826F000E836F000E846F74
:102B700031EF16F0000184517F0B876F886BD8907E
:102B800087378837875185278851862383BFCBEFC6
:102B900015F0CFEF15F0876B872BD1EF15F0000103
:102BA000876B87518527000E862386BFDCEF15F0E3
:102BB000DAEF15F0EAEF15F0000ECE6F220ECD6FB2
:102BC000000E816F000E826F000E836F000E846F07
:102BD00031EF16F086BFF3EF15F08605D8A0F3EFBE
:102BE00015F0F5EF15F014EF16F0000ECE6F220E73
:102BF000CD6F84BF00EF16F0FEEF15F00AEF16F070
:102C0000FF0E816FFF0E826F7F0E836FFF0E846F4A
:102C100031EF16F0FF0E816FFF0E826F7F0E836F14
:102C20007F0E846F31EF16F086358631886F8531DF
:102C3000876F84518719800B8719846F85C087F04F
:102C4000010E871787338733835187197F0B8719C5
:102C5000836F81C081F082C082F083C083F084C022
:102C600084F0120073EC1EF0C1EC1CF0790E046EBF
:102C7000080E056EBBEC1BF000F082BA42EF16F0B6
:102C800044EF16F04BEF16F0000E0001B06F0A0E85
:102C9000AF6F50EF16F0000E0001B06FB40EAF6FC3
:102CA000AFC0F6F03FEC1AF018EC1EF035EC1EF059
:102CB0002CEC1EF0FDEC1DF050EC1EF047EC1EF06D
:102CC00059EC1EF0F28EF28C0001E951D8B46BEF92
:102CD00016F06DEF16F073EF16F0000EE96F28ECAA
:102CE00012F022EC1EF00001EC51D8B47AEF16F08D
:102CF0007CEF16F081EF16F068EC0CF0000E00018E
:102D0000EC6FED51D8B487EF16F089EF16F064EF51
:102D100016F04DEC18F0000E0001ED6FE351D8A451
:102D200094EF16F096EF16F0A6EF16F082A89BEF40
:102D300016F09DEF16F064EF16F08988010EE36F30
:102D4000000ED26F000ED16F64EF16F0D14BD22B74
:102D5000F651AD6FAE6BD151AD5DD251AE59D8B019
:102D6000B4EF16F0B6EF16F0C2EF16F082B8BBEF74
:102D700016F0BDEF16F0C2EF16F0000EE36F899863
:102D800064EF16F064EF16F007EF00F02C342D34EA
:102D9000336E3350D8A4CFEF16F0D1EF16F0DBEF3F
:102DA00016F0000E2A6E000E2B6E000E2C6E000E1A
:102DB0002D6E48EF17F02AC02EF02BC02FF02CC03C
:102DC00030F02DC031F0200EEBEF16F0D8903132FC
:102DD00030322F322E32E82EE6EF16F02E50326EC1
:102DE0002C8EFF0E2A16FF0E2B16FF0E2C16000E31
:102DF0002D16960E335E33BE02EF17F000EF17F07C
:102E000018EF17F03350800A970FD8B00AEF17F079
:102E10000CEF17F00EEF17F0D1EF16F0D8902D321F
:102E20002C322B322A32333E0EEF17F030EF17F0F0
:102E30001F0E33641EEF17F020EF17F028EF17F086
:102E4000D1EF16F0D8902A362B362C362D36330695
:102E50003350D8A42EEF17F030EF17F022EF17F011
:102E60003250D8B436EF17F038EF17F040EF17F0C4
:102E70002D1E2C1E2B1E2A6C000E2B222C222D22E6
:102E80002AC02AF02BC02BF02CC02CF02DC02DF026
:102E90001200000E0114096E000E02140A6E800E5C
:102EA00003140B6E7F0E04140C6E09500A100B10E5
:102EB0000C10D8A45EEF17F060EF17F068EF17F072
:102EC000000E016E000E026E000E036E000E046E08
:102ED000000E0514096E000E06140A6E800E07140B
:102EE0000B6E7F0E08140C6E09500A100B100C109C
:102EF000D8A47DEF17F07FEF17F087EF17F0000EE3
:102F0000056E000E066E000E076E000E086E04AE13
:102F10008CEF17F08EEF17F097EF17F0016C021E91
:102F2000D8B0022A031ED8B0032A800E045608AE79
:102F30009CEF17F09EEF17F0A7EF17F0056C061E39
:102F4000D8B0062A071ED8B0072A800E0856000EF1
:102F5000011A000E021A000E031A800E041A000E47
:102F6000051A000E061A000E071A800E081A0550E0
:102F7000015C065002580750035808500458D8B056
:102F8000C4EF17F0C6EF17F0C9EF17F0D890CAEFEB
:102F900017F0D880120077C079F078C07AF000017D
:102FA000D89079377A37D89079377A3775C07BF0EF
:102FB00076C07CF079517B277A517C237BC0F6FF69
:102FC0007CC0F7FF0900F5CF7DF00900F5CF7EF05A
:102FD0000900F5CF7FF00A00F5CF80F03AEF18F046
:102FE0007DC05AF07EC05BF07FC05CF080C05DF0B9
:102FF00071C056F072C057F073C058F074C059F0E9
:10300000A5EC06F056C01AF057C01BF058C01CF0D3
:1030100059C01DF000017707D8A0780777C079F074
:1030200078C07AF0D89079377A37D89079377A376C
:1030300075C07BF076C07CF079517B277A517C2378
:103040007BC0F6FF7CC0F7FF0900F5CF1EF009003A
:10305000F5CF1FF00900F5CF20F00A00F5CF21F0E1
:1030600045EC04F01AC07DF01BC07EF01CC07FF060
:103070001DC080F0000177517811D8A442EF18F0FC
:1030800044EF18F0F0EF17F07DC071F07EC072F0E1
:103090007FC073F080C074F01200000E296E000132
:1030A000D34BD42BE70ED35D030ED459D8A05BEFDE
:1030B00018F05DEF18F061EF18F0000ED46F000EFD
:1030C000D36FE82B3B0EE86568EF18F06AEF18F055
:1030D00084EF18F0000EE86FE72B3B0EE76573EF07
:1030E00018F075EF18F084EF18F0000EE76FE62B7C
:1030F000170EE6657EEF18F080EF18F084EF18F0F9
:10310000000EE66F010E296EF90E0D6E000E0E6EAA
:10311000850E0F6E080E106ED3C011F0D4C012F0E1
:10312000BBEC08F00C0E066E010E93EC1CF029505F
:10313000D8B49DEF18F09FEF18F0BEEF18F0000123
:10314000F82BCF0E5E24D96EDA6A010EDA22F8511E
:10315000DE5CD8B0AEEF18F0B0EF18F0BEEF18F0AC
:10316000010EF86F5E2A0C0E5E64B9EF18F0BBEF2B
:1031700018F0BEEF18F0010E5E6EF72B120006007D
:10318000F2AAC5EF18F0C7EF18F0D2EF18F0F2A4CA
:10319000CCEF18F0CEEF18F0D2EF18F063EC1CF083
:1031A00021EF19F0F2ACD7EF18F0D9EF18F021EFBA
:1031B00019F0A0A2DEEF18F0E0EF18F0EBEF18F036
:1031C000A1A2E5EF18F0E7EF18F0EBEF18F060ECD4
:1031D0001EF021EF19F09DA4F0EF18F0F2EF18F0B7
:1031E000FDEF18F09EA4F7EF18F0F9EF18F0FDEFDF
:1031F00018F0CCEC1DF021EF19F09DA202EF19F0B0
:1032000004EF19F00FEF19F09EA209EF19F00BEF80
:1032100019F00FEF19F067EC1EF021EF19F09DACDB
:1032200014EF19F016EF19F021EF19F09EAC1BEF17
:1032300019F01DEF19F021EF19F00CEC1EF021EF41
:1032400019F05F9211004EC042F04FC043F050C0E1
:1032500044F051C045F0000E466E000E476E000E61
:10326000486E000E496E98EC1AF0D8A03AEF19F0AB
:103270003CEF19F04EEF19F052C0D9FF53C0DAFFFE
:10328000000EDE6E000EDD6E000E4E6E000E4F6EF6
:10329000000E506E000E516E84EF19F051507F0BEE
:1032A000546E556AD8905436553652C0D9FF53C023
:1032B000DAFF54C0DEFF55C0DDFF50BE62EF19F0EB
:1032C00066EF19F0546A542A67EF19F0546A5450A3
:1032D00052C0D9FF53C0DAFFDE12000EDD1252C019
:1032E000D9FF53C0DAFF820EDE26FF0EDD225150D9
:1032F000800B3F09516E509E4EC04EF04FC04FF0B4
:1033000050C050F051C051F01200010E1C6E000E62
:103310001E6E000E1D6E1C50D8B491EF19F093EF85
:1033200019F0BDEF19F01D500924D96E1E500A2066
:10333000DA6EDF50D8A49FEF19F0A1EF19F0ADEFCE
:1033400019F0000E1C6E1D500924D96E1E500A2063
:10335000DA6E200EDF6EC5EF19F01D500924D96E0C
:103360001E500A20DA6E0B0E1D24E16E000E1E2088
:10337000E26EDFCFE7FFC5EF19F00B0E1D24D96E0B
:10338000000E1E20DA6E200EDF6E1D4A1E2A1EBEA3
:10339000D3EF19F01E5009E1100E1D5CD8A0D3EF39
:1033A00019F0D5EF19F08BEF19F00B0E1D24D96E23
:1033B000000E1E20DA6E000EDF6E0B0E046E000E85
:1033C000056EBBEC1BF0120056C04EF057C04FF01C
:1033D00058C050F059C051F0640E526E000E536E3A
:1033E00023EC19F0000165BFFAEF19F0F8EF19F0BE
:1033F00004EF1AF0000E566E000E576E000E586E57
:10340000000E596E3EEF1AF0655109E11D0E645D24
:10341000D8A00DEF1AF00FEF1AF019EF1AF056C0FE
:1034200056F057C057F058C058F059C059F03EEF09
:103430001AF056C02AF057C02BF058C02CF059C0D3
:103440002DF0C6EC16F02AC034F02BC035F02CC09D
:1034500036F02DC037F0010E4CEC13F034C060F0A4
:1034600035C061F036C062F037C063F060C056F01E
:1034700061C057F062C058F063C059F01200850E69
:103480000001BD6F730EBE6FB50EBF6F480EC06FEB
:103490009A0EB96F990EBA6FE40EBB6F440EBC6FF3
:1034A000BDC056F0BEC057F0BFC058F0C0C059F004
:1034B000880E5A6ED30E5B6E8D0E5C6E340E5D6E92
:1034C000A5EC06F056C0B5F057C0B6F058C0B7F03E
:1034D00059C0B8F0660E0001B16FE60EB26FD70E9C
:1034E000B36F440EB46F960E2A6E690E2B6E8A0E61
:1034F0002C6E3F0E2D6EF6EC0DF02AC056F02BC050
:1035000057F02CC058F02DC059F0800E5A6EC40EE2
:103510005B6EA10E5C6E480E5D6EA5EC06F056C0AB
:1035200000F157C001F158C002F159C003F1120077
:10353000000E42144A6E000E43144B6E800E44146B
:103540004C6E7F0E45144D6E4A504B104C104D1072
:10355000D8A4ADEF1AF0AFEF1AF0B7EF1AF0000EE3
:10356000426E000E436E000E446E000E456E000E5D
:1035700046144A6E000E47144B6E800E48144C6E73
:103580007F0E49144D6E4A504B104C104D10D8A46C
:10359000CCEF1AF0CEEF1AF0D6EF1AF0000E466E0E
:1035A000000E476E000E486E000E496E46504218DF
:1035B0000FE1475043180CE14850441809E14950C5
:1035C0004518D8B4E6EF1AF0E8EF1AF0EBEF1AF06E
:1035D000D890ECEF1AF0D880120071C066F072C07B
:1035E00067F073C068F074C069F071C056F072C0C3
:1035F00057F073C058F074C059F0E4EC19F056C09D
:103600006AF057C06BF058C06CF059C06DF043ECD5
:103610001DF066C075F067C076F068C077F069C0CD
:1036200078F071C01AF072C01BF073C01CF074C047
:103630001DF075C01EF076C01FF077C020F078C076
:1036400021F045EC04F01AC071F01BC072F01CC0F0
:1036500073F01DC074F071C056F072C057F073C0A3
:1036600058F074C059F0E4EC19F056C071F057C02E
:1036700072F058C073F059C074F01200000E066E5C
:10368000000E93EC1CF06C0E0D6E010E0E6E570EBC
:103690000F6E080E106ED9C011F0DAC012F0D7C04C
:1036A00013F0D8C014F0BBEC08F06C0E096E010EDC
:1036B0000A6E85EC19F000F0000E066E010E93EC18
:1036C0001CF0080E0D6E010E0E6E680E0F6E080EC9
:1036D000106ED5C011F0D6C012F0DDC013F0DEC000
:1036E00014F0DBC015F0DCC016F0BBEC08F0080EDF
:1036F000096E010E0A6E85EC19F000F01200DC0E66
:10370000F66E3B0EF76E000EF86E01EED0F010EE86
:103710001EF00900F5CFEEFFE550E150FAE1040E8E
:10372000F66E3D0EF76E000EF86E00EEF4F010EE41
:1037300009F00900F5CFEEFFE550E150FAE10D0E7A
:10374000F66E3D0EF76E000EF86E0900F5CF5EF0D6
:1037500001EE00F0D00EEE6AE806FDE100EEB1F0F9
:10376000430EEE6AE806FDE15F905F92000EF86E90
:10377000000132EF16F0000E086ED8EF1BF0085073
:103780000424066E000E0520076E06C0F6FF07C073
:10379000F7FFF86A070EF76403D00800F55005D06C
:1037A000F6CFE1FFF7CFE2FFE750EDEC1CF0082A7F
:1037B00008500424066E000E0520076E06C0F6FFB2
:1037C00007C0F7FFF86A070EF76403D00800F5504A
:1037D00005D0F6CFE1FFF7CFE2FFE7500009D8A40C
:1037E000F4EF1BF0F6EF1BF0BFEF1BF01200000E22
:1037F000066E000E056E03500410D8B402EF1CF0E4
:1038000004EF1CF02CEF1CF0010E076E0CEF1CF007
:10381000D89003360436072A04AE11EF1CF013EFDC
:103820001CF008EF1CF0D890053606360350015CFA
:1038300004500258D8A01FEF1CF021EF1CF026EF17
:103840001CF00350015E0450025A0580D8900432E7
:103850000332072E13EF1CF005C001F006C002F082
:1038600012000A500B10D8B438EF1CF03AEF1CF0DD
:103870005EEF1CF0010E0C6E42EF1CF0D8900A3681
:103880000B360C2A0BAE47EF1CF049EF1CF03EEF55
:103890001CF00A50085C0B500958D8A052EF1CF0DD
:1038A00054EF1CF058EF1CF00A50085E0B50095AF8
:1038B000D8900B320A320C2E49EF1CF008C008F0E9
:1038C00009C009F012000001F551D76EF4C0D6FF0F
:1038D000F29489BA6EEF1CF070EF1CF071EF1CF0DF
:1038E000898AE42B0A0EE419D8A479EF1CF07BEF47
:1038F0001CF07FEF1CF0000EE46F7DEC1EF0000169
:10390000CF4BD02BC80ECF19D011D8A48AEF1CF002
:103910008CEF1CF092EF1CF0010EED6F000ED06FDB
:10392000000ECF6F12000C6E020E0C609AEF1CF0AE
:103930009CEF1CF0B8EF1CF00C50D8B4A2EF1CF0B8
:10394000A4EF1CF0AEEF1CF0C00E06C007F0086A32
:103950000710096E08500A6EB6EF1CF0800E06C004
:1039600007F0086A0710096E08500A6E09C00BF0CC
:10397000000E026E290E016E0B50800918EC1DF02E
:103980001200270E066EF50EE82EFED7062EFCD787
:1039900000F0000E026E290E016E3C0E18EC1DF0B8
:1039A000000E026E290E016E080E18EC1DF0000EBE
:1039B000026E290E016E060E18EC1DF0070E026E47
:1039C000D00E016E010E18EC1DF0000E026E290ED5
:1039D000016E0C0E18EC1DF01200036E898689949E
:1039E000898203C08AFF03C001F0060E026ED890E0
:1039F0000132022EF7EF1CF00130D8B002EF1DF0BB
:103A000005EF1DF08B8C06EF1DF08B9C016A03AE59
:103A100001D0012A0130D8B010EF1DF013EF1DF0D6
:103A20008B8E14EF1DF08B9E8992DEEC1DF0120040
:103A3000056E89968994898205C08AFF05C003F0C6
:103A4000060E046ED8900332042E22EF1DF00330D0
:103A5000D8B02DEF1DF030EF1DF08B8C31EF1DF045
:103A60008B9C036A05AE01D0032A0330D8B03BEF2C
:103A70001DF03EEF1DF08B8E3FEF1DF08B9E899267
:103A8000DEEC1DF01200000E00016A1B000E6B1B25
:103A9000000E6C1B800E6D1B66C01AF067C01BF019
:103AA00068C01CF069C01DF06AC01EF06BC01FF03A
:103AB0006CC020F06DC021F045EC04F01AC066F037
:103AC0001BC067F01CC068F01DC069F01200000E3A
:103AD0006D6E000E6F6E6F86000E896E000E8A6E20
:103AE000000E8B6E926893689468000E936E9292AB
:103AF000929692949298929A94909492949C949E76
:103B00000E0EC16EF18E120001500210031004104F
:103B1000D8B48DEF1DF08FEF1DF097EF1DF0000E64
:103B2000011A000E021A000E031A800E041A01C0B8
:103B300001F002C002F003C003F004C004F0120060
:103B4000036E000E026E3A0E0360A9EF1DF0ABEF9C
:103B50001DF0B5EF1DF02F0E0364B1EF1DF0B3EFB4
:103B60001DF0B5EF1DF0010E026E02C001F0013034
:103B7000120001500302F3CF05F0F4CF06F001501C
:103B80000402F350062602500302F350062605C035
:103B900001F006C002F01200BECFDFF0BFCFE0F0B0
:103BA000000EBD6E000EBF6E000EBE6E9E949D9404
:103BB0006DEC1EF0010E0001EC6F1200948E8984F2
:103BC0008996E4EF1DF000F082BEE9EF1DF0EBEF07
:103BD0001DF0E3EF1DF08994949E12001F1C1F1E20
:103BE0001F1E1F1F1E1F1E1F30313A30303A30304B
:103BF0000030312F30342F323100B18EB196B19C6C
:103C0000CF0EB116B192B194B190000EB36E000E0A
:103C1000B26EA192A0921200C4500001F36FF26B39
:103C2000C350F227000EF3239E9C010EE96F120091
:103C30000001F551D76EF4C0D6FFF294F28A980EC7
:103C4000D56E1200000ECC6E9E929D82CA843EEC10
:103C50001EF0899ACD801200310ECB6E400ECA6ED6
:103C6000000ECC6E9E929D9212009E909D90800EB2
:103C7000CD6E000ECF6E000ECE6E1200000EBF6E27
:103C8000000EBE6E040EBD6E9E949D8412000C0E3E
:103C9000BA6E180EBB6E300EBA12000EBC6E120059
:103CA000000EBD6E000EBF6E000EBE6E9E949D9403
:103CB0001200010EC26EA80EC06E9E9C9D8C12005A
:103CC000B190000EB36E000EB26EA1921200CA94B3
:103CD000000ECC6E9D929E921200CD90000ECF6E83
:103CE000000ECE6E120067EC1DF078EC1EF0120094
:103CF000100ED36E000E9B6E1200000E0001E96FD5
:0E3D0000C2821200EDD80515012D2D2D0004F4
:020000040020DA
:08000000FFFFFFFFFFFFFFFF00
:020000040030CA
:0E000000210C111EFF8181FF0FC00FE00F4089
:00000001FF
