:020000040000FA
:0400000007EF00F016
:100008005E8241ED1FF055EF20F08E0E00019C6FCF
:10001800000E9D6FC6EF06F0250EB419D8B417EF81
:1000280000F019EF00F023EF00F08AC0D9FF8BC071
:10003800DAFFB4C0DFFF8A4B8B2BC6EF06F0000E49
:10004800AD6F000EAC6F000EA16F000EA06F8CC0DC
:10005800F6FF8DC0F7FF0800F5502AEC22F0D8A073
:1000680038EF00F03AEF00F073EF00F0000E0001F7
:10007800AD6F000EAC6FACC002F0ADC003F0000E67
:10008800056E0A0E046E43EC22F002C0ACF003C009
:10009800ADF0D00E0001926FFF0E936F8CC0F6FF8B
:1000A8008DC0F7FF0800F550946F956B9251942717
:1000B800935195239451AC279551AD238C4B8D2B9F
:1000C8008CC0F6FF8DC0F7FF0800F5502AEC22F02F
:1000D800D8B071EF00F073EF00F03FEF00F08CC084
:1000E800F6FF8DC0F7FF0800F5502E0AD8A47FEF61
:1000F80000F081EF00F0C1EF00F00001A18D8C4B02
:100108008D2B000EB36F000EB26FB0EF00F0B2C0CF
:1001180002F0B3C003F0000E056E0A0E046E43EC45
:1001280022F002C0B2F003C0B3F0D00E0001926F0B
:10013800FF0E936F8CC0F6FF8DC0F7FF0800F550D7
:10014800946F956B92519427935195239451B227AC
:100158009551B3238C4B8D2B8CC0F6FF8DC0F7FFC8
:100168000800F5502AEC22F0D8B0BDEF00F0BFEF40
:1001780000F08BEF00F040EF01F0000E0001B36FCC
:10018800000EB26FA18940EF01F0A18561EF01F087
:10019800B251B311D8B4D3EF00F0D5EF00F0E8EFC7
:1001A80000F09E51B25DB351800A926F9F51800A50
:1001B8009259D8B0E2EF00F0E4EF00F0E8EF00F079
:1001C800B2C09EF0B3C09FF0AC519E5DAD519F5937
:1001D800D8B0F1EF00F0F3EF00F0F9EF00F09E5126
:1001E800AC5F9F51AD5B07EF01F0000EAD6F000EE5
:1001F800AC6F07EF01F08AC0D9FF8BC0DAFF200E81
:10020800DF6E8A4B8B2BAC07D8A0AD07AC2906E173
:10021800AD29D8A412EF01F014EF01F0FFEF00F0C0
:1002280024EF01F09AC0D9FF9BC0DAFF8AC0E1FF32
:100238008BC0E2FFDFCFE7FF9A4B9B2B8A4B8B2BC0
:100248009E07D8A09F079E2906E19F29D8A42FEFD3
:1002580001F031EF01F016EF01F0C6EF06F0B40E31
:100268009A6F000E9B6F000E9F6F010E9E6FCCEF72
:1002780000F0A08D61EF01F08CC0F6FF8DC0F7FF94
:1002880000018C4B8D2B0800F5CFB4F0B451000A57
:10029800D8B4D7EF06F0640AD8B461EF01F0020AC7
:1002A800D8B4C9EF00F00F0AD8B461EF01F01C0A06
:1002B800D8B43DEF01F033EF01F0070EA115D8B423
:1002C80068EF01F06AEF01F03DEF05F0A1A96FEFCB
:1002D80001F071EF01F075EF01F0000EB36F060E3B
:1002E800B26F9CC0D9FF9DC0DAFFDECFAEF0DECF83
:1002F800AFF0DECFB0F0DECFB1F0040E9C27000ED9
:100308009D23B1BF8CEF01F08AEF01F0A1EF01F05E
:10031800AEC002F0AFC003F0B0C004F0B1C005F049
:100328000EEC22F002C0AEF003C0AFF004C0B0F093
:1003380005C0B1F0030E0001A013000EAB6F000E54
:10034800AA6FAEC033F0AFC034F0B0C035F0B1C062
:1003580036F0000E376E000E386E000E396E000E45
:100368003A6E9AEC1EF0D8B0BCEF01F0BEEF01F087
:1003780051EF02F00001B035B135820FAA6FAB6BB7
:10038800FF0EAB23AA07D8A0AB07AAC002F0ABC0E8
:1003980003F0000E056E030E046E43EC22F002C05B
:1003A800AAF003C0ABF0AAC008F0ABC009F0000E79
:1003B8000B6E0A0E0A6EE0EC1DF008C0AAF009C028
:1003C800ABF00001ABBFEDEF01F0EBEF01F0F0EFA8
:1003D80001F0AA07D8A0AB07AA51000855EC0BF00A
:1003E80053C0A2F054C0A3F055C0A4F056C0A5F065
:1003F800A2C047F0A3C048F0A4C049F0A5C04AF085
:10040800AEC04BF0AFC04CF0B0C04DF0B1C04EF034
:100418003FEC09F047C0A2F048C0A3F049C0A4F0DF
:100428004AC0A5F0A2C002F0A3C003F0A4C004F023
:10043800A5C005F0000E066E000E076E800E086E51
:100448003F0E096E06EC1CF0D8B02DEF02F02FEF2E
:1004580002F035EF02F00001AA07D8A0AB0751EF70
:1004680002F0A2C002F0A3C003F0A4C004F0A5C02B
:1004780005F0000E066E000E076E200E086E410E87
:10048800096E06EC1CF0D8A04CEF02F04EEF02F01B
:1004980051EF02F00001AA4BAB2B0001B3BF60EF94
:1004A80002F0B35107E10D0EB25DD8B05EEF02F075
:1004B80060EF02F07DEF02F0AEC076F0AFC077F0EB
:1004C800B0C078F0B1C079F0B251BFEC13F053C0AE
:1004D8007AF054C07BF055C07CF056C07DF0DEEC5D
:1004E80006F076C0AEF077C0AFF078C0B0F079C053
:1004F800B1F00001ABBF8CEF02F0AB5107E10A0E7F
:10050800AA5DD8B08AEF02F08CEF02F0C9EF02F0D2
:10051800AEC033F0AFC034F0B0C035F0B1C036F083
:10052800000E376E000E386E000E396E000E3A6EF1
:100538009AEC1EF0D8B0A3EF02F0A5EF02F01EEF80
:1005480003F0AEC01BF0AFC01CF0B0C01DF0B1C0CE
:100558001EF001EC1BF01B501C101D101E10D8A41F
:10056800B8EF02F0BAEF02F01EEF03F00001ABBFE4
:10057800C7EF02F0AB5109E1020EAA5DD8A0C7EFA0
:1005880002F0C9EF02F01EEF03F0A2C002F0A3C010
:1005980003F0A4C004F0A5C005F05F0E066E700E4F
:1005A800076E890E086E400E096E06EC1CF0D8B076
:1005B800E0EF02F0E2EF02F0E9EF02F00001F70EDF
:1005C800AA27FF0EAB23EEEF02F00001F80EAA27D0
:1005D800FF0EAB23AA5155EC0BF053C0A2F054C048
:1005E800A3F055C0A4F056C0A5F0AEC002F0AFC04D
:1005F80003F0B0C004F0B1C005F0A2C006F0A3C07B
:1006080007F0A4C008F0A5C009F097EC18F002C0E4
:10061800A6F003C0A7F004C0A8F005C0A9F0000E1A
:100628000001AE6F000EAF6F000EB06F000EB16F1D
:100638005AEF03F0AEC01BF0AFC01CF0B0C01DF005
:10064800B1C01EF001EC1BF01BC0A6F01CC0A7F047
:100658001DC0A8F01EC0A9F0AEC082F0AFC083F0E4
:10066800B0C084F0B1C085F0A6C025F0A7C026F0C0
:10067800A8C027F0A9C028F0000E42EC16F025C04B
:1006880086F026C087F027C088F028C089F0EAECF9
:1006980021F082C0AEF083C0AFF084C0B0F085C056
:1006A800B1F0000E0001AB6F000EAA6F010EB46F1F
:1006B8000A0EB419D8A463EF03F065EF03F067EFEF
:1006C80003F087EF03F0B451040D770EF324F66EB0
:1006D8005F0EF420F76E0900F550A65D0900F5508D
:1006E800A7590900F550A8590900F550A959D8B0DB
:1006F80080EF03F082EF03F084EF03F087EF03F05D
:10070800B42B5CEF03F0B451B225926F000EB32105
:10071800936FAA519227AB5193239251AC5F935197
:10072800AD5BB251B311D8B49CEF03F09EEF03F068
:10073800A1EF03F0AC07D8A0AD07030EA015926F88
:10074800000EA115936F92519311D8B4AEEF03F038
:10075800B0EF03F0BFEF03F0AC07D8A0AD07BFEFD1
:1007680003F08AC0D9FF8BC0DAFF200EDF6E8A4BF8
:100778008B2BB0EF03F0ADBFCCEF03F0AD5106E12A
:10078800AC05D8B0CAEF03F0CCEF03F0B5EF03F037
:10079800030EA015926F000EA115936F925193113D
:1007A800D8B4D9EF03F0DBEF03F02FEF04F08AC0E1
:1007B800D9FF8BC0DAFF2D0EDF6E8A4B8B2B2FEF04
:1007C80004F0A6C002F0A7C003F0A8C004F0A9C0B6
:1007D80005F0B451040D770EF324F66E5F0EF42085
:1007E800F76E0900F5CF06F00900F5CF07F009000C
:1007F800F5CF08F00A00F5CF09F0EFEC1EF002C0C3
:10080800A2F003C0A3F004C0A4F005C0A5F0A2C0E4
:100818000FF0A3C010F0A4C011F0A5C012F00A0E8A
:10082800136E000E146E000E156E000E166E93EC0D
:100838001FF00FC0A2F010C0A3F011C0A4F012C0A6
:10084800A5F00001A251300F8AC0D9FF8BC0DAFF92
:10085800DF6EE1EF03F0B407B429D8A436EF04F053
:1008680038EF04F0E5EF03F045EF04F08AC0D9FF54
:100878008BC0DAFF300EDF6E8A4B8B2BAA07D8A00D
:10088800AB07ABBF52EF04F0AB5106E1AA05D8B0F5
:1008980050EF04F052EF04F03AEF04F0B3BF5EEF0C
:1008A80004F0B35109E1090EB25DD8A05EEF04F07F
:1008B80060EF04F064EF04F0080EB46F66EF04F024
:1008C800B2C0B4F0B451B25F000EB35BB451D8B447
:1008D80070EF04F072EF04F07AEF04F08AC0D9FFE9
:1008E8008BC0DAFF2E0EDF6E8A4B8B2BB45155EC82
:1008F8000BF053C096F054C097F055C098F056C00E
:1009080099F0AEC04BF0AFC04CF0B0C04DF0B1C0E4
:100918004EF096C047F097C048F098C049F099C08B
:100928004AF03FEC09F047C01BF048C01CF049C032
:100938001DF04AC01EF001EC1BF01BC0A6F01CC045
:10094800A7F01DC0A8F01EC0A9F01BEF05F0A6C0B7
:1009580002F0A7C003F0A8C004F0A9C005F0B45184
:10096800040D770EF324F66E5F0EF420F76E09007F
:10097800F5CF06F00900F5CF07F00900F5CF08F02C
:100988000A00F5CF09F0EFEC1EF002C0A2F003C098
:10099800A3F004C0A4F005C0A5F0A2C00FF0A3C046
:1009A80010F0A4C011F0A5C012F00A0E136E000ECC
:1009B800146E000E156E000E166E93EC1FF00FC02D
:1009C800A2F010C0A3F011C0A4F012C0A5F000015D
:1009D800A251300F8AC0D9FF8BC0DAFFDF6E8A4B75
:1009E8008B2BA6C00FF0A7C010F0A8C011F0A9C0AB
:1009F80012F0B451040D770EF324F66E5F0EF42056
:100A0800F76E0900F5CF13F00900F5CF14F00900CF
:100A1800F5CF15F00A00F5CF16F093EC1FF00FC0D4
:100A2800A6F010C0A7F011C0A8F012C0A9F00001EC
:100A3800B407B429D8A423EF05F025EF05F0ABEFF0
:100A480004F032EF05F08AC0D9FF8BC0DAFF300E10
:100A5800DF6E8A4B8B2BB207D8A0B307B251B31104
:100A6800D8A439EF05F03BEF05F027EF05F0C6EF06
:100A780006F0A0BD42EF05F044EF05F068EF05F081
:100A88009CC0D9FF9DC0DAFFDECFA6F0DDCFA7F06E
:100A9800000EA7BFFF0EA86FA96F020E9C27000EBD
:100AA8009D23A9BF5CEF05F05AEF05F07AEF05F03A
:100AB800030EA013A91FA81FA71FA66D000EA7232A
:100AC800A823A9237AEF05F09CC0D9FF9DC0DAFFBF
:100AD800DECF92F0DDCF93F092C0A6F093C0A7F0DE
:100AE800A86BA96B020E9C27000E9D23B251B3116F
:100AF800D8A481EF05F083EF05F090EF05F0A6513B
:100B0800A711A811A911D8A48CEF05F08EEF05F054
:100B180090EF05F0B24BB32B010EB46F0A0EB41967
:100B2800D8A499EF05F09BEF05F09DEF05F0BDEF18
:100B380005F0B451040D770EF324F66E5F0EF42021
:100B4800F76E0900F550A65D0900F550A759090090
:100B5800F550A8590900F550A959D8B0B6EF05F0D5
:100B6800B8EF05F0BAEF05F0BDEF05F0B42B92EF42
:100B780005F0B451926F936BB251925D9351800A14
:100B8800946FB351800A9459D8B0CDEF05F0CFEFE8
:100B980005F0D3EF05F0B2C0B4F0E8EF05F0B451BA
:100BA800926F936B9251B25DB351800A946F9351D7
:100BB800800A9459D8B0E3EF05F0E5EF05F0E8EFC7
:100BC80005F0B4C0B2F0B36BAC51AD11D8B4EFEFCF
:100BD80005F0F1EF05F003EF06F0030EA015926F94
:100BE800000EA115936F92519311D8B4FEEF05F042
:100BF80000EF06F003EF06F0AC07D8A0AD07A1ADF3
:100C080008EF06F00AEF06F023EF06F0AC51B25DEC
:100C1800B351800A926FAD51800A9259D8B017EF3C
:100C280006F019EF06F01FEF06F0B251AC5FB351B2
:100C3800AD5B23EF06F0000EAD6F000EAC6FB45144
:100C4800926F936BAC51925D9351800A946FAD5142
:100C5800800A9459D8B033EF06F035EF06F03BEF31
:100C680006F0B451AC5F000EAD5B3FEF06F0000E2E
:100C7800AD6F000EAC6FAC51AD11D8B446EF06F0B5
:100C880048EF06F05CEF06F08AC0D9FF8BC0DAFFA8
:100C9800200EDF6E8A4B8B2BAC07D8A0AD07AC516A
:100CA800AD11D8A45AEF06F05CEF06F048EF06F055
:100CB800030EA015926F000EA115936F9251931118
:100CC800D8B469EF06F06BEF06F0B9EF06F08AC00A
:100CD800D9FF8BC0DAFF2D0EDF6E8A4B8B2BB9EF55
:100CE80006F0B2C092F0B3C093F0D8909237933721
:100CF800D89092379337770E9225F66E5F0E932130
:100D0800F76E0900F5CF06F00900F5CF07F00900E6
:100D1800F5CF08F00A00F5CF09F0A6C002F0A7C089
:100D280003F0A8C004F0A9C005F0EFEC1EF002C063
:100D38000FF003C010F004C011F005C012F00A0E45
:100D4800136E000E146E000E156E000E166E93ECE8
:100D58001FF00F50300F0001B46F8AC0D9FF8BC04D
:100D6800DAFFB4C0DFFF71EF06F0B207D8A0B3070F
:100D7800B22906E1B329D8A4C4EF06F0C6EF06F0FD
:100D880075EF06F08CC0F6FF8DC0F7FF8C4B8D2BEE
:100D98000800F5CFB4F0B451D8A4D5EF06F0D7EFDA
:100DA80006F010EF00F08AC0D9FF8BC0DAFF000E02
:100DB800DF6E120000017951800B7E6F7951792521
:100DC800806F78AFEAEF06F0ECEF06F0EDEF06F093
:100DD80080818051D8B4F3EF06F0F5EF06F00AEF02
:100DE80007F08029D8A4FBEF06F0FDEF06F005EF29
:100DF80007F0000E766F000E776F000E786F000E0A
:100E0800796F788F000E796F12EF07F0000E766F0A
:100E1800000E776F000E786F000E796F7D51800B92
:100E28007F6F7E517F19D8B41CEF07F01EEF07F0D3
:100E38001FEF07F07E8D7D517D257F6F7CAF27EFFB
:100E480007F029EF07F02AEF07F07F817F51D8B428
:100E580030EF07F032EF07F047EF07F07F29D8A40B
:100E680038EF07F03AEF07F042EF07F0000E7A6F1D
:100E7800000E7B6F000E7C6F000E7D6F7C8F000E66
:100E88007D6F4FEF07F0000E7A6F000E7B6F000E3C
:100E98007C6F000E7D6F80517F5DD8B056EF07F0F4
:100EA80058EF07F07FEF07F07EAD5DEF07F05FEFDB
:100EB80007F061EF07F0800E7E1B80C081F07FC0D5
:100EC80080F081C07FF076C081F07AC076F081C072
:100ED8007AF077C081F07BC077F081C07BF078C072
:100EE80081F07CC078F081C07CF079C081F07DC051
:100EF80079F081C07DF0000E816F80517FC057F07E
:100F0800586A575E000E585A58BE94EF07F058506A
:100F180009E11A0E575CD8A094EF07F096EF07F096
:100F2800CDEF07F07651771178117911D8A49FEF9A
:100F380007F0A2EF07F0010EA3EF07F0000E816F94
:100F4800000E766F000E776F000E786F000E796FC7
:100F58007FC080F0D6EF07F081A1B5EF07F0B7EFBB
:100F680007F0BDEF07F0D89081310109816FBFEF1D
:100F780007F0D890813376A1C4EF07F0C6EF07F0E9
:100F8800C7EF07F0818F7935793378337733763344
:100F9800802B7F51805DD8A0D4EF07F0D6EF07F003
:100FA800B0EF07F07EBDDBEF07F0DDEF07F01DEFD8
:100FB80008F08051D8A4E3EF07F0E5EF07F0EFEF72
:100FC80007F0000E766F000E776F000E786F000E38
:100FD800796F3EEF09F07A5176277B5177237C5160
:100FE80078237D51792379A1FCEF07F0FEEF07F014
:100FF800AAEF08F081A103EF08F005EF08F00BEF66
:1010080008F0D89081310109816F0DEF08F0D89070
:10101800813376A112EF08F014EF08F015EF08F00D
:10102800818F79357933783377337633802BAAEF0C
:1010380008F07A51765D7B5177597C51785979510E
:10104800800A576E7D51800A5758D8B02EEF08F0A5
:1010580030EF08F05BEF08F076517A5D576E775104
:101068007B59586E78517C59596E79517D595A6E11
:10107800FF0E5724766FFF0E5820776FFF0E59200A
:10108800786FFF0E5A20796F800E7E1B816D81511B
:10109800D8A451EF08F053EF08F063EF08F0010E01
:1010A8007627000E77237823792363EF08F07A51A7
:1010B800765F7B51775B7C51785B7D51795B7651AC
:1010C800771178117911D8A46CEF08F06EEF08F059
:1010D800A3EF08F08151D8A474EF08F076EF08F078
:1010E800A3EF08F0000E766F000E776F000E786F92
:1010F800000E796F3EEF09F0D8907637773778375A
:10110800793781AF8AEF08F08CEF08F08DEF08F09F
:10111800768181A192EF08F094EF08F098EF08F03B
:10112800D88081379AEF08F0D89081378051D8B4A9
:10113800A0EF08F0A2EF08F0A3EF08F0800778AF5F
:10114800A8EF08F0AAEF08F080EF08F0000E7F6F14
:1011580081AFB1EF08F0B3EF08F0CBEF08F081C032
:1011680057F07F0E5716D8B4BCEF08F0BEEF08F062
:10117800C2EF08F0010E7F6FCBEF08F076A1C7EF42
:1011880008F0C9EF08F0CBEF08F0BEEF08F07F5188
:10119800D8B4D1EF08F0D3EF08F0FEEF08F0010E55
:1011A8007627000E77237823792379A1DEEF08F0DC
:1011B800E0EF08F0FEEF08F076C057F077C058F07F
:1011C80078C059F079C05AF05A345A3259325832E4
:1011D800573257C076F058C077F059C078F05AC0E7
:1011E80079F08029D8B4FBEF08F0FDEF08F0FEEFA6
:1011F80008F0802B8029D8B404EF09F006EF09F035
:101208000EEF09F08051D8A40CEF09F00EEF09F0A9
:1012180020EF09F0000E766F000E776F000E786FE2
:10122800000E796F8051D8A41CEF09F01EEF09F069
:1012380020EF09F0000E7E6F80A125EF09F027EF5F
:1012480009F02AEF09F0788F2BEF09F0789FD890F2
:101258008031796F7EAF33EF09F035EF09F036EF63
:1012680009F0798F76C076F077C077F078C078F09B
:1012780079C079F012004A50800B0001606F4A5023
:101288004A24666F49AE4BEF09F04DEF09F04EEF77
:1012980009F066816651D8B454EF09F056EF09F0A9
:1012A80069EF09F06629D8A45CEF09F05EEF09F050
:1012B80066EF09F0000E476E000E486E000E496E8C
:1012C800000E4A6E498E71EF09F0000E476E000E4F
:1012D800486E000E496E000E4A6E4E50800B601B21
:1012E8004E504E24616F4DAE7CEF09F07EEF09F051
:1012F8007FEF09F061816151D8B485EF09F087EF7C
:1013080009F09AEF09F06129D8A48DEF09F08FEF61
:1013180009F097EF09F0000E4B6E000E4C6E000EB0
:101328004D6E000E4E6E4D8EA2EF09F0000E4B6E04
:10133800000E4C6E000E4D6E000E4E6E6151D8B40C
:10134800A8EF09F0AAEF09F0B2EF09F06651D8A4A6
:10135800B0EF09F0B2EF09F0BCEF09F0000E476EEC
:10136800000E486E000E496E000E4A6E54EF0BF0E8
:101378004D504702F3CF6BF0F4CF6CF06B51626FB6
:10138800636B646B656B6C51676F686B696B6A6BD9
:101398004C504802F3CF6BF0F4CF6CF06B516227DE
:1013A800000E6323642365236C516727000E6823AE
:1013B80069236A234B504902F3CF6BF0F4CF6CF0EA
:1013C8006B516227000E6323642365236C516727E2
:1013D800000E682369236A2364C065F063C064F063
:1013E80062C063F0626B4B504802F3CF6BF0F4CFEE
:1013F8006CF06B5162276C516323000E6423000E5E
:1014080065234C504702F3CF6BF0F4CF6CF06B516F
:1014180062276C516323000E6423000E652364C0A9
:1014280065F063C064F062C063F0626B4B504702C2
:10143800F3CF6BF0F4CF6CF06B5162276C516323E0
:10144800000E6423000E65234D504802F3CF6BF065
:10145800F4CF6CF06B5167276C516823000E692339
:10146800000E6A234C504902F3CF6BF0F4CF6CF0B6
:101478006B5167276C516823000E6923000E6A239D
:101488004D504902F3CF6BF0F4CF6CF06B514F6EB7
:101498006C51506E516A526A51C052F050C051F0AE
:1014A8004FC050F04F6A4F50672750506823515033
:1014B800692352506A2362C04FF063C050F064C081
:1014C80051F065C052F0190E6FEF0AF0D890523201
:1014D800513250324F32E82E6AEF0AF04F506727E8
:1014E800505068235150692352506A2364C065F0F4
:1014F80063C064F062C063F0626B615166C04FF014
:10150800506A4F26000E5022820E4F246B6FFF0E3A
:1015180050206C6FA5EF0AF0D890673768376937A5
:101528006A3765AF9AEF0AF09CEF0AF09DEF0AF070
:101538006781D89062376337643765376B07D8A0FF
:101548006C0769AFAAEF0AF0ACEF0AF090EF0AF067
:10155800000E616F65AFB3EF0AF0B5EF0AF0D9EF8F
:101568000AF0FF0E62154F6EFF0E6315506EFF0EE8
:101578006415516E7F0E6515526E4F505010511004
:101588005210D8B4CAEF0AF0CCEF0AF0D0EF0AF044
:10159800010E616FD9EF0AF067A1D5EF0AF0D7EF16
:1015A8000AF0D9EF0AF0CCEF0AF06151D8B4DFEFB6
:1015B8000AF0E1EF0AF005EF0BF0010E6727000EC5
:1015C800682369236A236AA1ECEF0AF0EEEF0AF0B8
:1015D80005EF0BF067C04FF068C050F069C051F0DC
:1015E8006AC052F052345232513250324F324FC0E8
:1015F80067F050C068F051C069F052C06AF06B4B98
:101608006C2B6CBF10EF0BF06C5108E16B29D8A064
:1016180010EF0BF012EF0BF01CEF0BF0000E676FE2
:10162800000E686F800E696F7F0E6A6F4AEF0BF0CD
:101638006CBF29EF0BF06C5106E16B05D8B027EFB2
:101648000BF029EF0BF035EF0BF0000E676F000E73
:10165800686F000E696F000E6A6F000E606F4AEFC8
:101668000BF06BC066F0FF0E6717FF0E68177F0E52
:101678006917000E6A1766A144EF0BF046EF0BF0EE
:1016880047EF0BF0698FD89066316A6F60516A1323
:1016980067C047F068C048F069C049F06AC04AF0BE
:1016A80012005B6E5BBE5DEF0BF05BEF0BF05DEF66
:1016B8000CF05B6C5B50800A120FD8A066EF0BF041
:1016C80068EF0BF0F1EF0BF0000E0B6E0A0E0A6ECE
:1016D800000E056E640E046E5B50026E036A02BE55
:1016E800030642EC1EF002C008F003C009F0E0EC6B
:1016F8001DF0090E08260850040D1B0EF324F66E83
:101708005F0EF420F76E0900F5CF4BF00900F5CF16
:101718004CF00900F5CF4DF00A00F5CF4EF0000E61
:101728000B6E640E0A6E5B50086E096A08BE0906E5
:10173800E0EC1DF0120E08260850040D1B0EF324D1
:10174800F66E5F0EF420F76E0900F5CF47F009003A
:10175800F5CF48F00900F5CF49F00A00F5CF4AF077
:101768003FEC09F047C057F048C058F049C059F05D
:101778004AC05AF057C047F058C048F059C049F01D
:101788005AC04AF0000E056E0A0E046E5B50026ED7
:10179800036A02BE030642EC1EF00250040D1B0E43
:1017A800F324F66E5F0EF420F76E0900F5CF4BF0C8
:1017B8000900F5CF4CF00900F5CF4DF00A00F5CF40
:1017C8004EF03FEC09F047C053F048C054F049C010
:1017D80055F04AC056F05AEF0DF05B50800A750F6D
:1017E800D8A0F9EF0BF0FBEF0BF047EF0CF0000E71
:1017F8000B6E0A0E0A6E5B50086E096A08BE09066F
:10180800E0EC1DF0090E08260850040D1B0EF32409
:10181800F66E5F0EF420F76E0900F5CF47F0090069
:10182800F5CF48F00900F5CF49F00A00F5CF4AF0A6
:10183800000E056E0A0E046E5B50026E036A02BE4D
:10184800030642EC1EF00250040D1B0EF324F66E44
:101858005F0EF420F76E0900F5CF4BF00900F5CFC5
:101868004CF00900F5CF4DF00A00F5CF4EF03FECF3
:1018780009F047C053F048C054F049C055F04AC079
:1018880056F05AEF0DF05B50040D1B0EF324F66E64
:101898005F0EF420F76E0900F5CF53F00900F5CF7D
:1018A80054F00900F5CF55F00A00F5CF56F05AEF7D
:1018B8000DF05B50800A120FD8A065EF0CF067EFAF
:1018C8000CF0F0EF0CF0000E0B6E0A0E0A6E000E14
:1018D800056E640E046E5B50026E036A02BE030658
:1018E80042EC1EF002C008F003C009F0E0EC1DF065
:1018F800090E08260850040DE70EF324F66E5E0E56
:10190800F420F76E0900F5CF4BF00900F5CF4CF045
:101918000900F5CF4DF00A00F5CF4EF0000E0B6E22
:10192800640E0A6E5B50086E096A08BE0906E0EC90
:101938001DF0120E08260850040DE70EF324F66E6B
:101948005E0EF420F76E0900F5CF47F00900F5CFD9
:1019580048F00900F5CF49F00A00F5CF4AF03FEC0E
:1019680009F047C057F048C058F049C059F04AC07C
:101978005AF057C047F058C048F059C049F05AC00B
:101988004AF0000E056E0A0E046E5B50026E036A82
:1019980002BE030642EC1EF00250040DE70EF324CB
:1019A800F66E5E0EF420F76E0900F5CF4BF00900D5
:1019B800F5CF4CF00900F5CF4DF00A00F5CF4EF009
:1019C8003FEC09F047C053F048C054F049C055F007
:1019D8004AC056F05AEF0DF05B50800A750FD8A038
:1019E800F8EF0CF0FAEF0CF046EF0DF0000E0B6E6E
:1019F8000A0E0A6E5B50086E096A08BE0906E0EC1A
:101A08001DF0090E08260850040DE70EF324F66EA3
:101A18005E0EF420F76E0900F5CF47F00900F5CF08
:101A280048F00900F5CF49F00A00F5CF4AF0000E5A
:101A3800056E0A0E046E5B50026E036A02BE030650
:101A480042EC1EF00250040DE70EF324F66E5E0E13
:101A5800F420F76E0900F5CF4BF00900F5CF4CF0F4
:101A68000900F5CF4DF00A00F5CF4EF03FEC09F034
:101A780047C053F048C054F049C055F04AC056F02A
:101A88005AEF0DF05B50040DE70EF324F66E5E0E70
:101A9800F420F76E0900F5CF53F00900F5CF54F0A4
:101AA8000900F5CF55F00A00F5CF56F012000550A1
:101AB800800B126E05500524196E04AE66EF0DF00A
:101AC80068EF0DF069EF0DF019801950D8B46FEF79
:101AD8000DF071EF0DF086EF0DF01928D8A477EF0F
:101AE8000DF079EF0DF081EF0DF0000E026E000E93
:101AF800036E000E046E000E056E048E000E056E59
:101B08008EEF0DF0000E026E000E036E000E046ED6
:101B1800000E056E0950800B121A095009241A6E1E
:101B280008AE99EF0DF09BEF0DF09CEF0DF01A80C9
:101B38001A50D8B4A2EF0DF0A4EF0DF0B9EF0DF0E4
:101B48001A28D8A4AAEF0DF0ACEF0DF0B4EF0DF001
:101B5800000E066E000E076E000E086E000E096E6F
:101B6800088E000E096EC1EF0DF0000E066E000E15
:101B7800076E000E086E000E096E0650071008105A
:101B88000910D8A4CAEF0DF0CCEF0DF0E4EF0DF07A
:101B9800000E026E000E036E000E046E000E056E3F
:101BA800800E04127F0E05121250051202C002F0B8
:101BB80003C003F004C004F005C005F027EF0FF0E0
:101BC8001950D8A4EAEF0DF0ECEF0DF0F6EF0DF098
:101BD800000E026E000E036E000E046E000E056EFF
:101BE80027EF0FF01A5019C00AF00B6A0A5E000EB0
:101BF8000B5A7F0E0A24136E000E0B20146E02C0BF
:101C08000EF003C00FF004C010F005C011F0000E74
:101C1800026E000E036E000E046E000E056E000EBE
:101C2800156E000E166E000E176E000E186E000E62
:101C38001A6E57EF0EF01A50D8B425EF0EF027EFB2
:101C48000EF03EEF0EF0D8900E360F3610361136E5
:101C5800D890023603360436053618AE36EF0EF045
:101C680038EF0EF039EF0EF00280D89015361636A0
:101C78001736183606500E5C07500F580850105883
:101C880009501158D8A04BEF0EF04DEF0EF056EF5B
:101C98000EF0188C06500E5E07500F5A0850105A56
:101CA8000950115A1A2A190E1A645DEF0EF05FEFE7
:101CB8000EF01FEF0EF00E500F1010101110D8B4C8
:101CC80068EF0EF06AEF0EF082EF0EF0158082EFEB
:101CD8000EF0D890023603360436053618AE77EF84
:101CE8000EF079EF0EF07AEF0EF00280D8901536EC
:101CF8001636173618361306D8A0140604AE87EF22
:101D08000EF089EF0EF06DEF0EF0000E1A6E18AEA1
:101D180090EF0EF092EF0EF0B6EF0EF0FF0E1514E6
:101D28000A6EFF0E16140B6EFF0E17140C6E7F0E44
:101D380018140D6E0A500B100C100D10D8B4A7EF24
:101D48000EF0A9EF0EF0ADEF0EF0010E1A6EB6EF21
:101D58000EF002A0B2EF0EF0B4EF0EF0B6EF0EF0F8
:101D6800A9EF0EF01A50D8B4BCEF0EF0BEEF0EF08B
:101D7800E2EF0EF0010E0226000E032204220522D5
:101D880005A0C9EF0EF0CBEF0EF0E2EF0EF002C0A7
:101D98000AF003C00BF004C00CF005C00DF00D34C0
:101DA8000D320C320B320A320AC002F00BC003F0BB
:101DB8000CC004F00DC005F0134A142A14BEEDEF50
:101DC8000EF0145008E11328D8A0EDEF0EF0EFEF55
:101DD8000EF0FAEF0EF0000E146E1368000E026E8D
:101DE800000E036E000E046E000E056E14BE07EFA3
:101DF8000FF0145006E11304D8B005EF0FF007EF09
:101E08000FF015EF0FF0000E146E000E136E000E9B
:101E1800026E000E036E000E046E000E056E000EBC
:101E2800126E13C019F019A01CEF0FF01EEF0FF07F
:101E380021EF0FF0048E22EF0FF0049ED890193096
:101E4800056ED8EF0DF01200EAC025F0EBC026F0C1
:101E5800276A286A000E42EC16F025C047F026C013
:101E680048F027C049F028C04AF0BD0E4B6E370E27
:101E78004C6E060E4D6E350E4E6E3FEC09F0000EA0
:101E88000001BD6F000EBE6FA00EBF6F410EC06F88
:101E9800000E7A6F000E7B6F800E7C6F3F0E7D6F99
:101EA800330E066E930E076E880E086E430E096E8B
:101EB800BDC002F0BEC003F0BFC004F0C0C005F052
:101EC8005BEC0DF002C076F003C077F004C078F048
:101ED80005C079F0DEEC06F076C01BF077C01CF088
:101EE80078C01DF079C01EF0BDEC10F01BC047F0A3
:101EF8001CC048F01DC049F01EC04AF0800E4B6E51
:101F0800C40E4C6EA10E4D6E480E4E6E3FEC09F09D
:101F180047C0C9F048C0CAF049C0CBF04AC0CCF0AD
:101F2800BD0E4B6E370E4C6E060E4D6E350E4E6E58
:101F3800C9C047F0CAC048F0CBC049F0CCC04AF08D
:101F48003FEC09F047C002F048C003F049C004F074
:101F58004AC005F0000E066E000E076E000E086EF1
:101F6800400E096E5BEC0DF002C0C1F003C0C2F078
:101F780004C0C3F005C0C4F0D00E0001B56FEE0E6A
:101F8800B66FEAC0B7F0EBC0B8F0B551B727B65195
:101F9800B823B7C025F0B8C026F0276A286A000E13
:101FA80042EC16F025C047F026C048F027C049F09B
:101FB80028C04AF0C1C04BF0C2C04CF0C3C04DF0BD
:101FC800C4C04EF03FEC09F047C0CFF048C0D0F095
:101FD80049C0D1F04AC0D2F00CC182F00DC183F0E3
:101FE8000EC184F00FC185F0CFC086F0D0C087F055
:101FF800D1C088F0D2C089F0EAEC21F082C0D3F0D9
:1020080083C0D4F084C0D5F085C0D6F0D3C047F0E3
:10201800D4C048F0D5C049F0D6C04AF008C14BF04A
:1020280009C14CF00AC14DF00BC14EF03FEC09F06C
:1020380047C0C5F048C0C6F049C0C7F04AC0C8F09C
:1020480004C106F005C107F006C108F007C109F090
:10205800000E4B6E000E4C6EC80E4D6E420E4E6E4C
:10206800D3C047F0D4C048F0D5C049F0D6C04AF034
:102078003FEC09F047C002F048C003F049C004F043
:102088004AC005F05BEC0DF002C01BF003C01CF069
:1020980004C01DF005C01EF001EC1BF01B50000130
:1020A800D76FC5C01BF0C6C01CF0C7C01DF0C8C0A4
:1020B8001EF001EC1BF01BC0CDF01CC0CEF080A0C0
:1020C80068EF10F06AEF10F076EF10F00A0E0001DA
:1020D800D76171EF10F073EF10F080EF10F080907F
:1020E80080EF10F0460E0001D7657DEF10F07FEF0E
:1020F80010F080EF10F08080000E096E000E39ECB1
:1021080021F0780E00018A6F010E8B6FC50E8C6F5F
:102118005F0E8D6FCDC08EF0CEC08FF0D7C090F01F
:10212800916B09EC00F0780E056E010E066E91ECCD
:1021380020F0000E096E010E39EC21F0140E00019A
:102148008A6F010E8B6FDC0E8C6F5F0E8D6FCFC0A8
:102158008EF0D0C08FF0D1C090F0D2C091F009ECD1
:1021680000F0140E056E010E066E91EC20F000F0E2
:1021780012001E50800B236E1E501E24296E1DAEA9
:10218800C8EF10F0CAEF10F0CBEF10F0298029C08B
:102198002EF02F6AFF0E1B14346EFF0E1C14356EC2
:1021A8007F0E1D14366E000E1E14376E2E502F1023
:1021B800D8B4E1EF10F0E3EF10F0EDEF10F0368E49
:1021C8002E282F10D8A4EBEF10F0EDEF10F0F5EF5C
:1021D80010F0000E346E000E356E000E366E000ED6
:1021E800376E2E502F10D8A4FCEF10F0FEEF10F031
:1021F80008EF11F0000E1B6E000E1C6E000E1D6E17
:10220800000E1E6E4AEF12F02350D8B40EEF11F0F4
:1022180010EF11F02BEF11F0000E306E000E316E42
:10222800400E326E000E336E800E3212FF0E3312E5
:10223800000E0001E16F210EE06F30C01BF031C0CD
:102248001CF032C01DF033C01EF04AEF12F02E28E9
:102258002F10D8A432EF11F034EF11F03EEF11F047
:10226800000E306E000E316E800E326E7F0E336EB1
:1022780021EF11F0810E2E26FF0E2F222E50010B7A
:10228800296E2F342F322E327F0E2E26000E2F224B
:10229800D8903434256E3534266E3634276E37346C
:1022A800286E000E346E000E356E000E366E000E6F
:1022B800376E000E2A6E000E2B6E000E2C6E010E6D
:1022C8002D6E2950D8B46BEF11F06DEF11F072EF4D
:1022D80011F0D8902536263627362836000E246E7B
:1022E800CAEF11F02A5034122B5035122C503612E6
:1022F8002D5037123450255C355026583650275803
:1023080037502858D8A08BEF11F08DEF11F09FEFC0
:1023180011F03450255E3550265A3650275A37501A
:10232800285A2A5034262B5035222C5036222D502C
:102338003722AFEF11F02A1C1F6E2B1C206E2C1CAD
:10234800216E2D1C226E1F50341620503516215038
:102358003616225037162AC01FF02BC020F02CC08A
:1023680021F02DC022F0D8902232213220321F32A3
:102378001FC02AF020C02BF021C02CF022C02DF065
:10238800D8902536263627362836242A180E24646F
:10239800D0EF11F0D2EF11F076EF11F034C01FF04A
:1023A80035C020F036C021F037C022F0D890223254
:1023B800213220321F321FC034F020C035F021C036
:1023C80036F022C037F0010E34142A6E000E351490
:1023D8002B6E000E36142C6E000E37142D6E34C082
:1023E8001FF035C020F036C021F037C022F0D89059
:1023F8002232213220321F321FC034F020C035F083
:1024080021C036F022C037F02A5034262B5035220E
:102418002C5036222D50372237A015EF12F017EF27
:1024280012F02EEF12F034C01FF035C020F036C085
:1024380021F037C022F0D8902232213220321F32C8
:102448001FC034F020C035F021C036F022C037F06C
:102458002E4A2F2AFF0E3414306EFF0E3514316EBB
:102468007F0E3614326E000E3714336E2EC029F0EC
:1024780029A041EF12F043EF12F044EF12F0328E30
:10248800D8902930336E339E21EF11F0120098C096
:1024980033F099C034F09AC035F09BC036F0000E86
:1024A800376E000E386E000E396E000E3A6E9AECDA
:1024B8001EF0D8A062EF12F064EF12F06FEF12F086
:1024C800000E0001986F000E996F800E9A6F3F0EF4
:1024D8009B6FBEEF13F0180E026E720E036E310E74
:1024E800046E440E056E98C006F099C007F09AC0B5
:1024F80008F09BC009F006EC1CF0D8B086EF12F08B
:1025080088EF12F097EF12F0000E0001E16F220E33
:10251800E06FFF0E986FFF0E996F7F0E9A6F7F0E18
:102528009B6FBEEF13F098C002F099C003F09AC0F9
:1025380004F09BC005F0870E066E480E076E3A0E33
:10254800086EC40E096E06EC1CF0D8B0AEEF12F09F
:10255800B0EF12F0BFEF12F0000E0001E16F220E93
:10256800E06F000E986F000E996F000E9A6F000EC4
:102578009B6FBEEF13F000019BBFC5EF12F0C8EFD1
:1025880012F0010EC9EF12F0000EA26FA251D8B4DA
:10259800D0EF12F0D2EF12F0E4EF12F098C002F090
:1025A80099C003F09AC004F09BC005F00EEC22F02D
:1025B80002C098F003C099F004C09AF005C09BF0DF
:1025C80098C047F099C048F09AC049F09BC04AF0BB
:1025D8003B0E4B6EAA0E4C6EB80E4D6E3F0E4E6EF5
:1025E8003FEC09F047C098F048C099F049C09AF00C
:1025F8004AC09BF098C082F099C083F09AC084F0DA
:102608009BC085F03DEC19F082C09CF083C09DF022
:1026180084C09EF085C09FF09CC01BF09DC01CF03C
:102628009EC01DF09FC01EF001EC1BF01BC0A0F067
:102638001CC0A1F098C082F099C083F09AC084F0C1
:102648009BC085F0A0C025F0A1C026F0000E26BED4
:10265800FF0E276E286E010E42EC16F025C086F09C
:1026680026C087F027C088F028C089F0EAEC21F05E
:1026780082C098F083C099F084C09AF085C09BF01E
:1026880098C082F099C083F09AC084F09BC085F00E
:102698004F0E0001866F5F0E876F000E896F090E5F
:1026A800886F84EC1BF082C092F083C093F084C0E2
:1026B80094F085C095F0A0C096F0A1C097F0DFEC2B
:1026C80019F092C098F093C099F094C09AF095C010
:1026D8009BF00001A251D8B474EF13F076EF13F019
:1026E800B6EF13F098C033F099C034F09AC035F0C3
:1026F8009BC036F0FF0E376EFF0E386E7F0E396EB8
:102708007F0E3A6E9AEC1EF0D8A08DEF13F08FEF83
:1027180013F09AEF13F0000E0001986F000E996FF6
:10272800000E9A6F000E9B6FBEEF13F0000E026E44
:10273800000E036E800E046E3F0E056E98C006F004
:1027480099C007F09AC008F09BC009F05BEC0DF047
:1027580002C098F003C099F004C09AF005C09BF03D
:10276800BEEF13F098C098F099C099F09AC09AF00B
:102778009BC09BF012000001756F6D0E000175651E
:10278800C8EF13F0CAEF13F077EF14F0000E4B6E9A
:10279800000E4C6E000E4D6E3F0E4E6E000E0A6E11
:1027A800640E096E75C007F0086ACDEC20F0D89069
:1027B80007360836D89007360836480E0726000E22
:1027C80008221B0E0724F66E5F0E0820F76E09001C
:1027D800F5CF47F00900F5CF48F00900F5CF49F0EB
:1027E8000A00F5CF4AF03FEC09F047C071F048C045
:1027F80072F049C073F04AC074F0000E0A6E0A0EF7
:10280800096E000E056E640E046E75C002F0036A50
:1028180007EC21F002C007F003C008F0CDEC20F06F
:10282800D89007360836D89007360836240E07267B
:10283800000E08221B0E0724F66E5F0E0820F76EA6
:102848000900F5CF4BF00900F5CF4CF00900F5CFA2
:102858004DF00A00F5CF4EF071C047F072C048F055
:1028680073C049F074C04AF03FEC09F047C06DF0FE
:1028780048C06EF049C06FF04AC070F06DC047F0B4
:102888006EC048F06FC049F070C04AF0000E056E87
:102898000A0E046E75C002F0036A07EC21F0D890A6
:1028A80002360336D890023603361B0E0224F66E23
:1028B8005F0E0320F76E0900F5CF4BF00900F5CF46
:1028C8004CF00900F5CF4DF00A00F5CF4EF03FEC83
:1028D80009F047C053F048C054F049C055F04AC009
:1028E80056F011EF15F00A0E75657DEF14F07FEFC5
:1028F80014F0EBEF14F0000E4B6E000E4C6E000E51
:102908004D6E3F0E4E6E000E0A6E0A0E096E75C0B1
:1029180007F0086ACDEC20F0D89007360836D89032
:1029280007360836240E0726000E08221B0E072439
:10293800F66E5F0E0820F76E0900F5CF47F0090024
:10294800F5CF48F00900F5CF49F00A00F5CF4AF075
:102958003FEC09F047C071F048C072F049C073F00D
:102968004AC074F071C047F072C048F073C049F0B3
:1029780074C04AF0000E056E0A0E046E75C002F0AF
:10298800036A07EC21F0D89002360336D890023655
:1029980003361B0E0224F66E5F0E0320F76E090045
:1029A800F5CF4BF00900F5CF4CF00900F5CF4DF00D
:1029B8000A00F5CF4EF03FEC09F047C053F048C08D
:1029C80054F049C055F04AC056F011EF15F0755152
:1029D800040D1B0EF324F66E5F0EF420F76E09004B
:1029E800F5CF47F00900F5CF48F00900F5CF49F0D9
:1029F8000A00F5CF4AF0000E4B6E000E4C6E000E2A
:102A08004D6E3F0E4E6E3FEC09F047C053F048C084
:102A180054F049C055F04AC056F01200000E0001AB
:102A2800B36FA3C033F0A4C034F0A5C035F0A6C07E
:102A380036F0000E376E000E386E000E396E000E3E
:102A48003A6E9AEC1EF0D8A02CEF15F02EEF15F088
:102A580057EF15F0000E026E000E036E000E046EA6
:102A6800000E056EA7C006F0A8C007F0A9C008F0C0
:102A7800AAC009F006EC1CF0D8A045EF15F047EF06
:102A880015F04CEF15F0000E0001E16F210EE06F1C
:102A9800000E0001A36F000EA46F000EA56F000EBC
:102AA800A66F41EF16F0A7C033F0A8C034F0A9C054
:102AB80035F0AAC036F0000E376E000E386E000EE4
:102AC800396E000E3A6E9AEC1EF0D8A06EEF15F033
:102AD80070EF15F07BEF15F0000E0001A36F000EEC
:102AE800A46F800EA56F3F0EA66F41EF16F0000190
:102AF800A6BF83EF15F081EF15F0DEEF15F0A7C044
:102B08001BF0A8C01CF0A9C01DF0AAC01EF001EC63
:102B18001BF01BC0B4F01CC0B5F01DC0B6F01EC041
:102B2800B7F0B4C025F0B5C026F0B6C027F0B7C0DE
:102B380028F0000E42EC16F025C033F026C034F021
:102B480027C035F028C036F0A7C037F0A8C038F045
:102B5800A9C039F0AAC03AF09AEC1EF0D8B0B7EF85
:102B680015F0B9EF15F0C8EF15F0000E0001E16F90
:102B7800210EE06F000EA36F000EA46F000EA56F6C
:102B8800000EA66F41EF16F00001B451010BB36FB0
:102B9800A3C002F0A4C003F0A5C004F0A6C005F0CD
:102BA8000EEC22F002C0A3F003C0A4F004C0A5F00C
:102BB80005C0A6F0A3C092F0A4C093F0A5C094F0FD
:102BC800A6C095F01CEC17F092C0ABF093C0ACF027
:102BD80094C0ADF095C0AEF0ABC047F0ACC048F0C3
:102BE800ADC049F0AEC04AF0A7C04BF0A8C04CF049
:102BF800A9C04DF0AAC04EF03FEC09F047C0AFF0B5
:102C080048C0B0F049C0B1F04AC0B2F0AFC098F0C7
:102C1800B0C099F0B1C09AF0B2C09BF04BEC12F082
:102C280098C0A3F099C0A4F09AC0A5F09BC0A6F0E4
:102C38000001B351D8B423EF16F025EF16F039EFA1
:102C480016F0A3C002F0A4C003F0A5C004F0A6C00B
:102C580005F00EEC22F002C0A3F003C0A4F004C0FB
:102C6800A5F005C0A6F041EF16F0A3C0A3F0A4C0DC
:102C7800A4F0A5C0A5F0A6C0A6F012002D6E2D5098
:102C8800D8B449EF16F04BEF16F06DEF16F028BEEA
:102C980052EF16F050EF16F06DEF16F025C029F040
:102CA80026C02AF027C02BF028C02CF0291E2A1E87
:102CB8002B1E2C1E292A000E2A222B222C2229C048
:102CC8002FF02AC030F02BC031F02CC032F075EF55
:102CD80016F025C02FF026C030F027C031F028C0EC
:102CE80032F02550261027102810D8A47EEF16F0B1
:102CF80080EF16F08AEF16F0000E256E000E266E95
:102D0800000E276E000E286E1BEF17F0960E2E6E23
:102D180094EF16F02E2AD8903232313230322F32D8
:102D2800000E2F14296E000E30142A6E000E311476
:102D38002B6EFE0E32142C6E29502A102B102C10DC
:102D4800D8A4A9EF16F0ABEF16F08EEF16F0B9EF96
:102D580016F02E2A010E2F26000E302231223222A2
:102D6800D8903232313230322F32000E2F14296E81
:102D7800000E30142A6E000E31142B6EFF0E321422
:102D88002C6E29502A102B102C10D8A4CEEF16F038
:102D9800D0EF16F0ADEF16F0D8EF16F02E06D8905B
:102DA8002F3630363136323631BEDDEF16F0DFEFF2
:102DB80016F0E7EF16F0020E2E60E5EF16F0E7EFDB
:102DC80016F0D2EF16F02EB0ECEF16F0EEEF16F08C
:102DD800EFEF16F0319ED8902E322EC029F02A6AD5
:102DE8002B6A2C6A29C02CF02B6A2A6A296A295076
:102DF8002F122A5030122B5031122C5032122D50D3
:102E0800D8B409EF17F00BEF17F013EF17F028BE3F
:102E180012EF17F010EF17F013EF17F0328E2FC0E4
:102E280025F030C026F031C027F032C028F012005B
:102E3800000195BF24EF17F022EF17F032EF17F0DB
:102E4800000EE16F210EE06F000E926F000E936F7F
:102E5800000E946F000E956FEBEF17F092C033F0F1
:102E680093C034F094C035F095C036F0000E376E3C
:102E7800000E386E000E396E000E3A6E9AEC1EF097
:102E8800D8A049EF17F04BEF17F05AEF17F0000EE4
:102E98000001E16F220EE06F000E926F000E936F3B
:102EA800000E946F000E956FEBEF17F0000E4B6E4F
:102EB800000E4C6E000E4D6E400E4E6E5B0E436E55
:102EC800000E446E92C03FF093C040F094C041F0B1
:102ED80095C042F07EEC1DF03FC047F040C048F07E
:102EE80041C049F042C04AF03FEC09F047C076F0D3
:102EF80048C077F049C078F04AC079F0000E000168
:102F08007A6F000E7B6F800E7C6FBF0E7D6FDEECDC
:102F180006F076C092F077C093F078C094F079C04C
:102F280095F05B06D8A05C0692C082F093C083F04F
:102F380094C084F095C085F09F0E0001866F5F0EE7
:102F4800876F000E896F080E886F84EC1BF082C0B3
:102F580092F083C093F084C094F085C095F0180E69
:102F68004B6E720E4C6E310E4D6E3F0E4E6E5BC048
:102F780025F05CC026F0000E26BEFF0E276E286ED8
:102F8800010E42EC16F025C047F026C048F027C0D5
:102F980049F028C04AF03FEC09F047C076F048C035
:102FA80077F049C078F04AC079F092C07AF093C0BF
:102FB8007BF094C07CF095C07DF0DEEC06F076C026
:102FC80092F077C093F078C094F079C095F0120031
:102FD80004C00AF00B6A0C6A03340A3601E30B805A
:102FE8000A50126E1250D8A4FCEF17F0FEEF17F03B
:102FF80008EF18F0000E026E000E036E000E046E4D
:10300800000E056E96EF18F008C00AF00B6A0C6AFD
:1030180007340A3601E30B800A50116E1150D8A408
:1030280018EF18F01AEF18F01CEF18F0FEEF17F071
:10303800038EFF0E0216FF0E0316000E0416078EEF
:10304800FF0E0616FF0E0716000E0816000E0D6E70
:10305800000E0E6E000E0F6E000E106E7F0E125ECA
:103068001150980F125E180E116ED8900D360E364C
:103078000F3610360650025C0750035808500458A3
:10308800D8A049EF18F04BEF18F052EF18F006509F
:10309800025E0750035A0850045A0D80D890023631
:1030A80003360436112E39EF18F012BE60EF18F00F
:1030B8005EEF18F076EF18F01250800A970FD8B02C
:1030C80068EF18F06AEF18F06CEF18F0FEEF17F0E1
:1030D800D89010320F320E320D32123E6CEF18F0CB
:1030E8008EEF18F0170E12647CEF18F07EEF18F0D0
:1030F80086EF18F0FEEF17F0D8900D360E360F3623
:10310800103612061250D8A48CEF18F08EEF18F073
:1031180080EF18F00DC002F00EC003F00FC004F0ED
:1031280010C005F01200043405340F6E0F50D8A4F7
:10313800A0EF18F0A2EF18F0ACEF18F0000E026E36
:10314800000E036E000E046E000E056E3CEF19F0C3
:10315800083409340E6E0E50D8A4B5EF18F0B7EF46
:1031680018F0B9EF18F0A2EF18F0048EFF0E02164F
:10317800FF0E0316FF0E0416000E0516088EFF0E2E
:103188000616FF0E0716FF0E0816000E0916000E8B
:103198000A6E000E0B6E000E0C6E000E0D6E7F0E8A
:1031A8000F5E0E50A00F0F5E200E0E6ED8900A36DE
:1031B8000B360C360D360650025C07500358085083
:1031C800045809500558D8A0ECEF18F0EEEF18F0A5
:1031D800F7EF18F00650025E0750035A0850045AD9
:1031E8000950055A0A80D890023603360436053647
:1031F8000E2EDAEF18F00FBE06EF19F004EF19F0F3
:103208001CEF19F00F50800A9F0FD8B00EEF19F07D
:1032180010EF19F012EF19F0A2EF18F0D8900D3254
:103228000C320B320A320F3E12EF19F034EF19F05C
:103238001F0E0F6422EF19F024EF19F02CEF19F08C
:10324800A2EF18F0D8900A360B360C360D360F065A
:103258000F50D8A432EF19F034EF19F026EF19F017
:103268000AC002F00BC003F00CC004F00DC005F05A
:10327800120082C03FF083C040F084C041F085C096
:1032880042F08A0E436E000E446E7EEC1DF0000183
:103298008BBF53EF19F051EF19F06EEF19F085BF9E
:1032A8005AEF19F058EF19F064EF19F0000E826F19
:1032B800000E836F800E846FBF0E856FDEEF19F0EE
:1032C800000E826F000E836F000E846F000E856FF4
:1032D800DEEF19F08B5109E11D0E8A5DD8A077EF5A
:1032E80019F079EF19F083EF19F082C082F083C0EA
:1032F80083F084C084F085C085F0DEEF19F082C0C9
:103308001BF083C01CF084C01DF085C01EF001ECCA
:103318001BF01BC025F01CC026F01DC027F01EC0E6
:1033280028F0010E42EC16F025C086F026C087F082
:1033380027C088F028C089F082C002F083C003F05B
:1033480084C004F085C005F086C006F087C007F089
:1033580088C008F089C009F006EC1CF0D8B0B7EFB7
:1033680019F0B9EF19F0D6EF19F086C076F087C0DA
:1033780077F088C078F089C079F0000E00017A6F84
:10338800000E7B6F800E7C6FBF0E7D6FDEEC06F04B
:1033980076C082F077C083F078C084F079C085F079
:1033A800DEEF19F086C082F087C083F088C084F011
:1033B80089C085F0120092C033F093C034F094C0F5
:1033C80035F095C036F0000E376E000E386E000EE0
:1033D800396E000E3A6E9AEC1EF0D8A0F6EF19F08E
:1033E800F8EF19F003EF1AF0000E0001926F000ECB
:1033F800936F000E946F000E956F7AEF1AF000012C
:1034080095517F0B5B6E5C6AD8905B365C365B507F
:1034180096275C50972394BF14EF1AF018EF1AF010
:103428005B6A5B2A19EF1AF05B6A5B50000196270A
:10343800000E972397BF25EF1AF023EF1AF033EF0A
:103448001AF0000EE16F220EE06F000E926F000E70
:10345800936F000E946F000E956F7AEF1AF097BF76
:103468003CEF1AF09705D8A03CEF1AF03EEF1AF09F
:103478005DEF1AF0000EE16F220EE06F95BF49EF85
:103488001AF047EF1AF053EF1AF0FF0E926FFF0E83
:10349800936F7F0E946FFF0E956F7AEF1AF0FF0E01
:1034A800926FFF0E936F7F0E946F7F0E956F7AEF7A
:1034B8001AF0973597315C6E96315B6E95515B18B3
:1034C800800B5B18956F96C05BF0010E5B165B3244
:1034D8005B3294515B187F0B5B18946F92C092F02B
:1034E80093C093F094C094F095C095F01200000E2C
:1034F8000001A76F000EA86F000EA96F400EAA6FFB
:10350800660EA36F660EA46F180EA56F440EA66F05
:1035180012EC15F0A3C0B8F0A4C0B9F0A5C0BAF079
:10352800A6C0BBF0B8C047F0B9C048F0BAC049F06F
:10353800BBC04AF07E0E4B6E110E4C6E490E4D6E9E
:10354800400E4E6E3FEC09F047C0DCF048C0DDF09D
:1035580049C0DEF04AC0DFF09A0E01010C6F990EE7
:103568000D6FE40E0E6F440E0F6FDCC047F0DDC028
:1035780048F0DEC049F0DFC04AF0880E4B6ED30E2B
:103588004C6E8D0E4D6E340E4E6E3FEC09F047C0FA
:1035980008F148C009F149C00AF14AC00BF1660EAA
:1035A8000101046FE60E056FD70E066F440E076F14
:1035B800450E1B6E5F0E1C6E890E1D6E3F0E1E6E35
:1035C800BDEC10F01BC047F01CC048F01DC049F00E
:1035D8001EC04AF0800E4B6EC40E4C6EA10E4D6E8E
:1035E800480E4E6E3FEC09F047C000F148C001F1AB
:1035F80049C002F14AC003F112001D341E34246E82
:103608002450D8A40AEF1BF00CEF1BF016EF1BF0A8
:10361800000E1B6E000E1C6E000E1D6E000E1E6E40
:1036280083EF1BF01BC01FF01CC020F01DC021F051
:103638001EC022F0200E26EF1BF0D8902232213235
:1036480020321F32E82E21EF1BF01F50236E1D8EF3
:10365800FF0E1B16FF0E1C16FF0E1D16000E1E1663
:10366800960E245E24BE3DEF1BF03BEF1BF053EF9C
:103678001BF02450800A970FD8B045EF1BF047EF96
:103688001BF049EF1BF00CEF1BF0D8901E321D32D7
:103698001C321B32243E49EF1BF06BEF1BF01F0E50
:1036A800246459EF1BF05BEF1BF063EF1BF00CEF8A
:1036B8001BF0D8901B361C361D361E3624062450A7
:1036C800D8A469EF1BF06BEF1BF05DEF1BF02350E4
:1036D800D8B471EF1BF073EF1BF07BEF1BF01E1ECD
:1036E8001D1E1C1E1B6C000E1C221D221E221BC030
:1036F8001BF01CC01CF01DC01DF01EC01EF01200E7
:1037080088C08AF089C08BF00001D8908A378B373F
:10371800D8908A378B3786C08CF087C08DF08A5155
:103728008C278B518D238CC0F6FF8DC0F7FF0900C5
:10373800F5CF8EF00900F5CF8FF00900F5CF90F0A6
:103748000A00F5CF91F0F3EF1BF08EC04BF08FC05D
:103758004CF090C04DF091C04EF082C047F083C04D
:1037680048F084C049F085C04AF03FEC09F047C0F2
:1037780076F048C077F049C078F04AC079F0000187
:103788008807D8A0890788C08AF089C08BF0D890AC
:103798008A378B37D8908A378B3786C08CF087C0AA
:1037A8008DF08A518C278B518D238CC0F6FF8DC0EC
:1037B800F7FF0900F5CF7AF00900F5CF7BF0090093
:1037C800F5CF7CF00A00F5CF7DF0DEEC06F076C090
:1037D8008EF077C08FF078C090F079C091F000013A
:1037E80088518911D8A4FBEF1BF0FDEF1BF0A9EF5E
:1037F8001BF08EC082F08FC083F090C084F091C01F
:1038080085F01200000E02140A6E000E03140B6EEF
:10381800800E04140C6E7F0E05140D6E0A500B10EA
:103828000C100D10D8A41BEF1CF01DEF1CF025EF99
:103838001CF0000E026E000E036E000E046E000EE9
:10384800056E000E06140A6E000E07140B6E800E2D
:1038580008140C6E7F0E09140D6E0A500B100C1014
:103868000D10D8A43AEF1CF03CEF1CF044EF1CF00C
:10387800000E066E000E076E000E086E000E096E32
:1038880005AE49EF1CF04BEF1CF054EF1CF0026C36
:10389800031ED8B0032A041ED8B0042A800E055689
:1038A80009AE59EF1CF05BEF1CF064EF1CF0066CDE
:1038B800071ED8B0072A081ED8B0082A800E095655
:1038C800000E021A000E031A000E041A800E051AC2
:1038D800000E061A000E071A000E081A800E091AA2
:1038E8000650025C07500358085004580950055800
:1038F800D8B081EF1CF083EF1CF086EF1CF0D89055
:1039080087EF1CF0D8801200D4EC22F094EC21F060
:10391800EE0E056E5F0E066E91EC20F082B097EF0A
:103928001CF099EF1CF0A0EF1CF0000E0001DB6FFB
:10393800020EDA6FA5EF1CF0000E0001DB6FB40E6B
:10394800DA6FDAC0F7F07BEC1AF09BEC22F092EC1D
:1039580022F089EC22F0ADEC22F0A4EC22F0F28EF9
:10396800F28C0001F351D8B4BCEF1CF0BEEF1CF090
:10397800C3EF1CF028EC0FF0000E0001F36FF451B8
:10398800D8B4C9EF1CF0CBEF1CF0D0EF1CF006EC5C
:103998001DF0000E0001F46FEC51D8A4D6EF1CF016
:1039A800D8EF1CF0E8EF1CF082A8DDEF1CF0DFEF89
:1039B8001CF0B5EF1CF08988010EEC6F000EE76F64
:1039C800000EE66FB5EF1CF0F751D86FD96BE651D2
:1039D800D85DE751D959D8B0F4EF1CF0F6EF1CF0D8
:1039E800B5EF1CF082B8FBEF1CF0FDEF1CF002EF06
:1039F8001DF0000EEC6F8998B5EF1CF0B5EF1CF0C8
:103A080007EF00F0000E0001B56FE84BE92BE70E59
:103A1800E85D030EE959D8A014EF1DF016EF1DF06C
:103A28001AEF1DF0000EE96F000EE86FF22B3B0E47
:103A3800F26521EF1DF023EF1DF03DEF1DF0000EA4
:103A4800F26FF12B3B0EF1652CEF1DF02EEF1DF000
:103A58003DEF1DF0000EF16FF02B170EF06537EFFC
:103A68001DF039EF1DF03DEF1DF0000EF06F010E57
:103A7800B56FFA0E8A6F000E8B6FFA0E8C6F5F0EA1
:103A88008D6FE8C08EF0E9C08FF009EC00F00C0EE5
:103A9800096E010E39EC21F0FA0E056E000E066E65
:103AA80091EC20F00001B551D8B45DEF1DF05FEF47
:103AB8001DF07DEF1DF0F92BDB0E5D24D96EDA6A5F
:103AC800010EDA22F951DE5CD8B06DEF1DF06FEF10
:103AD8001DF07DEF1DF0010EF96F5D2A0C0E5D647F
:103AE80078EF1DF07AEF1DF07DEF1DF0010E5D6E91
:103AF800F82B12003FC033F040C034F041C035F01D
:103B080042C036F0000E376E000E386E000E396E69
:103B1800000E3A6E9AEC1EF0D8A095EF1DF097EFC4
:103B28001DF0A9EF1DF043C0D9FF44C0DAFF000E15
:103B3800DE6E000EDD6E000E3F6E000E406E000E53
:103B4800416E000E426EDFEF1DF042507F0B456E56
:103B5800466AD8904536463643C0D9FF44C0DAFF96
:103B680045C0DEFF46C0DDFF41BEBDEF1DF0C1EF21
:103B78001DF0456A452AC2EF1DF0456A455043C00D
:103B8800D9FF44C0DAFFDE12000EDD1243C0D9FFB0
:103B980044C0DAFF820EDE26FF0EDD224250800B83
:103BA8003F09426E419E3FC03FF040C040F041C0D7
:103BB80041F042C042F01200000E0D6E0BBEE9EF5C
:103BC8001DF0E7EF1DF0EFEF1DF00A6C0B1ED8B0EB
:103BD8000B2A010E0D6E09BEF6EF1DF0F4EF1DF075
:103BE800FCEF1DF0086C091ED8B0092A010E0D1A49
:103BF800000E0F6E000E0E6E0A500B10D8B407EFB1
:103C08001EF009EF1EF031EF1EF0010E0C6E11EFE1
:103C18001EF0D8900A360B360C2A0BAE16EF1EF0A3
:103C280018EF1EF00DEF1EF0D8900E360F360A5022
:103C3800085C0B500958D8A024EF1EF026EF1EF0A0
:103C48002BEF1EF00A50085E0B50095A0E80D890D0
:103C58000B320A320C2E18EF1EF00D50D8B437EF85
:103C68001EF039EF1EF03DEF1EF00E6C0F1ED8B09F
:103C78000F2A0EC008F00FC009F01200000E076EE0
:103C880003BE4BEF1EF049EF1EF051EF1EF0026C21
:103C9800031ED8B0032A010E076E05BE58EF1EF0AA
:103CA80056EF1EF05CEF1EF0046C051ED8B0052A16
:103CB80004500510D8B463EF1EF065EF1EF089EFCD
:103CC8001EF0010E066E6DEF1EF0D8900436053614
:103CD800062A05AE72EF1EF074EF1EF069EF1EF0B3
:103CE8000450025C05500358D8A07DEF1EF07FEF0A
:103CF8001EF083EF1EF00450025E0550035AD89060
:103D080005320432062E74EF1EF00750D8B48FEF38
:103D18001EF091EF1EF095EF1EF0026C031ED8B056
:103D2800032A02C002F003C003F01200000E33148D
:103D38003B6E000E34143C6E800E35143D6E7F0EC3
:103D480036143E6E3B503C103D103E10D8A4AFEFE9
:103D58001EF0B1EF1EF0B9EF1EF0000E336E000E2C
:103D6800346E000E356E000E366E000E37143B6E44
:103D7800000E38143C6E800E39143D6E7F0E3A14D6
:103D88003E6E3B503C103D103E10D8A4CEEF1EF0C6
:103D9800D0EF1EF0D8EF1EF0000E376E000E386E12
:103DA800000E396E000E3A6E375033180FE1385056
:103DB80034180CE13950351809E13A503618D8B49E
:103DC800E8EF1EF0EAEF1EF0EDEF1EF0D890EEEFF0
:103DD8001EF0D8801200000E0A6E000E0B6E000E48
:103DE8000C6E000E0D6E0650071008100910D8B49E
:103DF80000EF1FF002EF1FF038EF1FF0010E0E6EFC
:103E08000CEF1FF0D89006360736083609360E2A0A
:103E180009AE11EF1FF013EF1FF006EF1FF0D89057
:103E28000A360B360C360D360650025C075003581E
:103E38000850045809500558D8A025EF1FF027EF5F
:103E48001FF030EF1FF00650025E0750035A08506B
:103E5800045A0950055A0A80D890093208320732A4
:103E680006320E2E13EF1FF00AC002F00BC003F04B
:103E78000CC004F00DC005F012000600F2AA47EFCE
:103E88001FF049EF1FF054EF1FF0F2A44EEF1FF0A0
:103E980050EF1FF054EF1FF0D7EC1FF091EF1FF019
:103EA800F2AC59EF1FF05BEF1FF091EF1FF0A0A2EB
:103EB80060EF1FF062EF1FF06DEF1FF0A1A267EF38
:103EC8001FF069EF1FF06DEF1FF0C0EC21F091EFCC
:103ED8001FF09DA472EF1FF074EF1FF07FEF1FF02B
:103EE8009EA479EF1FF07BEF1FF07FEF1FF068ECC7
:103EF80022F091EF1FF09DA284EF1FF086EF1FF0D4
:103F080091EF1FF09EA28BEF1FF08DEF1FF091EF46
:103F18001FF0C8EC22F091EF1FF05E9211001350D1
:103F2800141015101610D8B49CEF1FF09EEF1FF058
:103F3800CEEF1FF0010E176EA8EF1FF0D8901336C2
:103F4800143615361636172A16AEADEF1FF0AFEF3A
:103F58001FF0A2EF1FF013500F5C145010581550AB
:103F6800115816501258D8A0BCEF1FF0BEEF1FF022
:103F7800C6EF1FF013500F5E1450105A1550115A07
:103F88001650125AD8901632153214321332172E90
:103F9800AFEF1FF00FC00FF010C010F011C011F0FC
:103FA80012C012F01200000ED76E000ED66EF294F8
:103FB80089BAE1EF1FF0E3EF1FF0E4EF1FF0898A01
:103FC8000001EE2B0A0EEE19D8A4EDEF1FF0EFEF6B
:103FD8001FF0F4EF1FF0899A000EEE6FB6EC22F096
:103FE8000001E44BE52BC80EE419E511D8A4FFEF56
:103FF8001FF001EF20F017EF20F082A006EF20F06D
:104008000AEF20F0016A012A0BEF20F0016A8250C2
:104018000118FE0B0118826E010E0001F46F000EEC
:10402800E56F000EE46F1200086E8996899408C047
:104038008AFF08C004F0060E056ED8900432052EDB
:1040480021EF20F00430D8B02CEF20F02FEF20F033
:104058008B8C30EF20F08B9C046A08AE01D0042AC8
:104068000430D8B03AEF20F03DEF20F08B8E3EEFD1
:1040780020F08B9E89828992000E076E000E066ED4
:1040880049EF20F000D0064A072A0250065C035088
:104098000758D8A052EF20F054EF20F046EF20F058
:1040A8001200F40EF66E440EF76E000EF86E01EE76
:1040B800DCF010EE1EF00900F5CFEEFFE550E15000
:1040C800FAE1BC0EF66E450EF76E000EF86E00EEC5
:1040D800F5F010EE09F00900F5CFEEFFE550E150DC
:1040E800FAE1C50EF66E450EF76E000EF86E090081
:1040F800F5CF5DF001EE00F0DC0EEE6AE806FDE1BA
:1041080000EEDCF0190EEE6AE806FDE15E905E92C4
:10411800000EF86E000188EF1CF0000E096EAEEF7D
:1041280020F009500524076E000E0620086E07C00F
:10413800F6FF08C0F7FFF86A070EF76403D0080017
:10414800F55005D0F6CFE1FFF7CFE2FFE75067EC77
:1041580021F0092A09500524076E000E0620086E72
:1041680007C0F6FF08C0F7FFF86A070EF76403D028
:104178000800F55005D0F6CFE1FFF7CFE2FFE75092
:104188000009D8A4CAEF20F0CCEF20F095EF20F07A
:104198001200000E0D6E000E0C6E09500A10D8B4F5
:1041A800D8EF20F0DAEF20F002EF21F0010E0B6ECD
:1041B800E2EF20F0D89009360A360B2A0AAEE7EF6C
:1041C80020F0E9EF20F0DEEF20F0D8900C360D3625
:1041D8000950075C0A500858D8A0F5EF20F0F7EF0F
:1041E80020F0FCEF20F00950075E0A50085A0C80B6
:1041F800D8900A3209320B2EE9EF20F00CC007F0F4
:104208000DC008F0120004500510D8B40EEF21F0CC
:1042180010EF21F034EF21F0010E066E18EF21F0B7
:10422800D89004360536062A05AE1DEF21F01FEF9B
:1042380021F014EF21F00450025C05500358D8A077
:1042480028EF21F02AEF21F02EEF21F00450025E32
:104258000550035AD89005320432062E1FEF21F07C
:1042680002C002F003C003F012000F6E020E0F60CE
:1042780040EF21F042EF21F05EEF21F00F50D8B46B
:1042880048EF21F04AEF21F054EF21F0C00E09C0A9
:104298000AF00B6A0A100D6E0B500E6E5CEF21F0DF
:1042A800800E09C00AF00B6A0A100D6E0B500E6ED4
:1042B8000DC00CF0000E036E320E026E0C50800919
:1042C80018EC20F01200046E89868994898204C053
:1042D8008AFF04C002F0060E036ED8900232032E45
:1042E80071EF21F00230D8B07CEF21F07FEF21F0A0
:1042F8008B8C80EF21F08B9C026A04AE01D0022ADD
:104308000230D8B08AEF21F08DEF21F08B8E8EEF3E
:1043180021F08B9E8992210EE82EFED700F0120024
:10432800270E096EF50EE82EFED7092EFCD700F0F1
:10433800000E036E320E026E3C0E18EC20F0000EDA
:10434800036E320E026E080E18EC20F0000E036E9B
:10435800320E026E060E18EC20F0070E036ED00E19
:10436800026E010E18EC20F0000E036E320E026E83
:104378000C0E18EC20F01200B1900001F651B36E4B
:10438800F5C0B2FFA192B180E24BE32BED51D8B456
:10439800D0EF21F0D2EF21F0D9EF21F0000EED6F30
:1043A800898A000EE36F000EE26FE35109E10A0EFD
:1043B800E25DD8A0E2EF21F0E4EF21F0E9EF21F08F
:1043C800010EED6F899AB6EC22F01200000E000182
:1043D800861B000E871B000E881B800E891B82C05F
:1043E80076F083C077F084C078F085C079F086C015
:1043F8007AF087C07BF088C07CF089C07DF0DEEC65
:1044080006F076C082F077C083F078C084F079C077
:1044180085F012000250031004100510D8B417EFED
:1044280022F019EF22F021EF22F0000E021A000EFE
:10443800031A000E041A800E051A02C002F003C007
:1044480003F004C004F005C005F01200046E000E6D
:10445800036E3A0E046033EF22F035EF22F03FEF9F
:1044680022F02F0E04643BEF22F03DEF22F03FEFE5
:1044780022F0010E036E03C002F002301200025057
:104488000402F3CF06F0F4CF07F002500502F35010
:10449800072603500402F350072606C002F007C09F
:1044A80003F01200000E896E000E8A6E000E8B6EED
:1044B800000E926E000E936E040E946E000EC16E86
:1044C800000EC06EF18E1200BECFEAF0BFCFEBF047
:1044D800000EBD6E000EBF6E000EBE6E9E949D94C3
:1044E800CEEC22F0010E0001F36F12001F1C1F1EFC
:1044F8001F1E1F1F1E1F1E1F30313A30303A30302A
:104508000030312F30342F323100310ECB6E400E57
:10451800CA6E000ECC6E9E929D9212009E909D9047
:10452800800ECD6E000ECF6E000ECE6E1200000E05
:10453800D76E000ED66EF294F28A970ED56E1200E0
:104548000C0EBA6E180EBB6E300EBA12000EBC6E90
:104558001200000EBD6E000EBF6E000EBE6E9E9461
:104568009D941200000ECC6E9E929D82CA84BFEC70
:1045780022F0CD801200000EBF6E000EBE6E040E3B
:10458800BD6E9E949D841200CA94000ECC6E9D92BE
:104598009E921200CD90000ECF6E000ECE6E1200CD
:1045A80056EC22F0D9EC22F01200100ED36E000E59
:0E45B8009B6E12001DFB0115012D2D2D000420
:105EE600000000803F000020410000C84200007A08
:105EF6004400401C460050C347002474498096184D
:105F06004B20BCBE4C286B6E4EF9021550EC78AD9A
:105F160060CAF249710000803FCDCCCC3D0AD72340
:105F26003C6F12833A17B7D138ACC52737BD3786D1
:105F36003595BFD63377CC2B325F708930FFE6DBE1
:105F46002E08E53C1E6042A20D0000803F1872310B
:105F56003FF0FD753E4758633D58951D3C82C4AEE3
:105F66003AA8782139EF938037A092A7354656157F
:105F760034010000000A00000064000000E803008D
:105F86000010270000A086010040420F008096986E
:105F96000000E1F50500CA9A3B00000000C4FF7F3F
:105FA6003F80EFFFBE90E1A93EEC8276BE82AD2B2C
:105FB6003E0E3CC3BD87D1133D4178D3BB0000479D
:105FC600616C733A2025342E307520202025332E1F
:105FD6003175252520004563686F3A2025342E301B
:105FE60066202020202020004C6F6164696E672E99
:095FF6002E2E2000253369000065
:020000040020DA
:08000000FFFFFFFFFFFFFFFF00
:020000040030CA
:0E000000210C111EFF8181FF0FC00FE00F4089
:00000001FF
