:020000040000FA
:0400000007EF00F016
:0A0008005F825BED19F0C1EF1BF001
:100800000001000A006400E80310270000803F1880
:1008100072313FF0FD753E4758633D58951D3C824F
:10082000C4AE3AA8782139EF938037A092A7354615
:1008300056153400000000C4FF7F3F80EFFFBE90DC
:10084000E1A93EEC8276BE82AD2B3E0E3CC3BD8755
:10085000D1133D4178D3BB47616C733A2534752081
:1008600020253375252520004563686F3A253475AA
:10087000202532752F253275004C6F6164696E67D3
:100880002E2E2E200025336900001D50800B266E71
:100890001D501D24286E1CAE50EF04F052EF04F0E2
:1008A00053EF04F028802850D8B459EF04F05BEFE0
:1008B00004F070EF04F02828D8A461EF04F063EF8F
:1008C00004F06BEF04F0000E1A6E000E1B6E000EAB
:1008D0001C6E000E1D6E1C8E000E1D6E78EF04F057
:1008E000000E1A6E000E1B6E000E1C6E000E1D6EAA
:1008F0002150800B276E26502718D8B482EF04F0C1
:1009000084EF04F085EF04F0268C21502124276E1B
:1009100020AE8DEF04F08FEF04F090EF04F027800D
:100920002750D8B496EF04F098EF04F0ADEF04F040
:100930002728D8A49EEF04F0A0EF04F0A8EF04F05D
:10094000000E1E6E000E1F6E000E206E000E216E39
:10095000208E000E216EB5EF04F0000E1E6E000E0C
:100960001F6E000E206E000E216E2850275CD8B03E
:10097000BCEF04F0BEEF04F0E5EF04F026ACC3EFEB
:1009800004F0C5EF04F0C7EF04F0800E261A28C06B
:1009900029F027C028F029C027F01AC029F01EC06E
:1009A0001AF029C01EF01BC029F01FC01BF029C07F
:1009B0001FF01CC029F020C01CF029C020F01DC071
:1009C00029F021C01DF029C021F0000E296E285009
:1009D00027C022F0236A225E000E235A23BEFAEFBC
:1009E00004F0235009E11A0E225CD8A0FAEF04F0BB
:1009F000FCEF04F033EF05F01A501B101C101D1013
:100A0000D8A405EF05F008EF05F0010E09EF05F099
:100A1000000E296E000E1A6E000E1B6E000E1C6E6C
:100A2000000E1D6E27C028F03CEF05F029A01BEF3B
:100A300005F01DEF05F023EF05F0D89029300109EE
:100A4000296E25EF05F0D89029321AA02AEF05F07B
:100A50002CEF05F02DEF05F0298E1D341D321C32D0
:100A60001B321A32282A2750285CD8A03AEF05F00A
:100A70003CEF05F016EF05F026BC41EF05F043EF23
:100A800005F083EF05F02850D8A449EF05F04BEFAF
:100A900005F055EF05F0000E1A6E000E1B6E000EED
:100AA0001C6E000E1D6EA4EF06F01E501A261F507D
:100AB0001B2220501C2221501D221DA062EF05F098
:100AC00064EF05F010EF06F029A069EF05F06BEF79
:100AD00005F071EF05F0D89029300109296E73EF08
:100AE00005F0D89029321AA078EF05F07AEF05F0DA
:100AF0007BEF05F0298E1D341D321C321B321A3259
:100B0000282A10EF06F01E501A5C1F501B58205068
:100B10001C581D50800A226E2150800A2258D8B0DD
:100B200094EF05F096EF05F0C1EF05F01A501E5C4A
:100B3000226E1B501F58236E1C502058246E1D50CF
:100B40002158256EFF0E22241A6EFF0E23201B6EE5
:100B5000FF0E24201C6EFF0E25201D6E800E261A0F
:100B6000296C2950D8A4B7EF05F0B9EF05F0C9EF0B
:100B700005F0010E1A26000E1B221C221D22C9EFB1
:100B800005F01E501A5E1F501B5A20501C5A21504F
:100B90001D5A1A501B101C101D10D8A4D2EF05F0BE
:100BA000D4EF05F009EF06F02950D8A4DAEF05F0EC
:100BB000DCEF05F009EF06F0000E1A6E000E1B6E5A
:100BC000000E1C6E000E1D6EA4EF06F0D8901A36B3
:100BD0001B361C361D3629AEF0EF05F0F2EF05F09E
:100BE000F3EF05F01A8029A0F8EF05F0FAEF05F011
:100BF000FEEF05F0D880293600EF06F0D8902936B0
:100C00002850D8B406EF06F008EF06F009EF06F01A
:100C100028061CAE0EEF06F010EF06F0E6EF05F02A
:100C2000000E276E29AE17EF06F019EF06F031EF30
:100C300006F029C022F07F0E2216D8B422EF06F06B
:100C400024EF06F028EF06F0010E276E31EF06F0D4
:100C50001AA02DEF06F02FEF06F031EF06F024EF8B
:100C600006F02750D8B437EF06F039EF06F064EFFE
:100C700006F0010E1A26000E1B221C221D221DA0AA
:100C800044EF06F046EF06F064EF06F01AC022F0DB
:100C90001BC023F01CC024F01DC025F025342532D4
:100CA00024322332223222C01AF023C01BF024C087
:100CB0001CF025C01DF02828D8B461EF06F063EFC2
:100CC00006F064EF06F0282A2828D8B46AEF06F068
:100CD0006CEF06F074EF06F02850D8A472EF06F01F
:100CE00074EF06F086EF06F0000E1A6E000E1B6E13
:100CF000000E1C6E000E1D6E2850D8A482EF06F068
:100D000084EF06F086EF06F0000E266E28A08BEF2B
:100D100006F08DEF06F090EF06F01C8E91EF06F0D6
:100D20001C9ED89028301D6E26AE99EF06F09BEFE2
:100D300006F09CEF06F01D8E1AC01AF01BC01BF0C7
:100D40001CC01CF01DC01DF012005950800B00018A
:100D5000646F595059246A6F58AEB1EF06F0B3EF83
:100D600006F0B4EF06F06A816A51D8B4BAEF06F023
:100D7000BCEF06F0CFEF06F06A29D8A4C2EF06F068
:100D8000C4EF06F0CCEF06F0000E566E000E576E64
:100D9000000E586E000E596E588ED7EF06F0000EFA
:100DA000566E000E576E000E586E000E596E5D5056
:100DB000800B641B5D505D24696F5CAEE2EF06F052
:100DC000E4EF06F0E5EF06F069816951D8B4EBEF86
:100DD00006F0EDEF06F000EF07F06929D8A4F3EF75
:100DE00006F0F5EF06F0FDEF06F0000E5A6E000E6D
:100DF0005B6E000E5C6E000E5D6E5C8E08EF07F0A1
:100E0000000E5A6E000E5B6E000E5C6E000E5D6E84
:100E10006951D8B40EEF07F010EF07F018EF07F0A4
:100E20006A51D8A416EF07F018EF07F022EF07F089
:100E3000000E566E000E576E000E586E000E596E64
:100E4000BAEF08F05C505602F3CF6FF0F4CF70F0B9
:100E50006F51656F666B676B686B70516B6F6C6B16
:100E60006D6B6E6B5B505702F3CF6FF0F4CF70F089
:100E70006F516527000E66236723682370516B2727
:100E8000000E6C236D236E235A505802F3CF6FF07F
:100E9000F4CF70F06F516527000E66236723682337
:100EA00070516B27000E6C236D236E2367C068F0B2
:100EB00066C067F065C066F0656B5A505702F3CFA5
:100EC0006FF0F4CF70F06F51652770516623000EFC
:100ED0006723000E68235B505602F3CF6FF0F4CF08
:100EE00070F06F51652770516623000E6723000E66
:100EF000682367C068F066C067F065C066F0656B20
:100F00005A505602F3CF6FF0F4CF70F06F5165274F
:100F100070516623000E6723000E68235C50570251
:100F2000F3CF6FF0F4CF70F06F516B2770516C23DB
:100F3000000E6D23000E6E235B505802F3CF6FF04E
:100F4000F4CF70F06F516B2770516C23000E6D233E
:100F5000000E6E235C505802F3CF6FF0F4CF70F0A8
:100F60006F51606F7051616F626B636B62C063F051
:100F700061C062F060C061F0606B60516B276151CD
:100F80006C2362516D2363516E2365C060F066C0AF
:100F900061F067C062F068C063F0190ED5EF07F02A
:100FA000D8906333623361336033E82ED0EF07F0BB
:100FB00060516B2761516C2362516D2363516E2325
:100FC00067C068F066C067F065C066F0656B695120
:100FD0006AC060F0616B6027000E6123820E60259D
:100FE0006F6FFF0E6121706F0BEF08F0D8906B37B9
:100FF0006C376D376E3768AF00EF08F002EF08F01E
:1010000003EF08F06B81D89065376637673768372C
:101010006F07D8A070076DAF10EF08F012EF08F05F
:10102000F6EF07F0000E696F68AF19EF08F01BEFDD
:1010300008F03FEF08F0FF0E6515606FFF0E6615B4
:10104000616FFF0E6715626F7F0E6815636F6051E9
:10105000611162116311D8B430EF08F032EF08F07B
:1010600036EF08F0010E696F3FEF08F06BA13BEF20
:1010700008F03DEF08F03FEF08F032EF08F069515B
:10108000D8B445EF08F047EF08F06BEF08F0010E19
:101090006B27000E6C236D236E236EA152EF08F0B8
:1010A00054EF08F06BEF08F06BC060F06CC061F0BB
:1010B0006DC062F06EC063F06335633362336133D9
:1010C000603360C06BF061C06CF062C06DF063C0F3
:1010D0006EF06F4B702B70BF76EF08F0705108E127
:1010E0006F29D8A076EF08F078EF08F082EF08F0CB
:1010F000000E6B6F000E6C6F800E6D6F7F0E6E6F4B
:10110000B0EF08F070BF8FEF08F0705106E16F0587
:10111000D8B08DEF08F08FEF08F09BEF08F0000ECD
:101120006B6F000E6C6F000E6D6F000E6E6F000E19
:10113000646FB0EF08F06FC06AF0FF0E6B17FF0E20
:101140006C177F0E6D17000E6E176AA1AAEF08F0DC
:10115000ACEF08F0ADEF08F06D8FD8906A316E6F8C
:1011600064516E136BC056F06CC057F06DC058F0F0
:101170006EC059F01200110E1E6E000E1F6E83EF2E
:101180000AF0250E2718D8B4C8EF08F0CAEF08F007
:10119000D4EF08F00DC0D9FF0EC0DAFF27C0DFFF83
:1011A0000D4A0E2A83EF0AF0000E266E000E256E01
:1011B000000E226E0FC0F6FF10C0F7FF0800F550BA
:1011C000CFEC1DF0D8A0E7EF08F0E9EF08F079EFD9
:1011D00009F0000E266E000E256E25C001F026C017
:1011E00002F0000E046E0A0E036E00EC1EF001C049
:1011F00025F002C026F0D00E176EFF0E186E0FC03D
:10120000F6FF10C0F7FF0800F550196E1A6A175064
:10121000192618501A22195025261A5026220F4A2C
:10122000102A0FC0F6FF10C0F7FF0800F550CFECF2
:101230001DF0D8B01EEF09F020EF09F0EDEF08F037
:1012400079EF09F0265009E1020E255CD8A02BEFBA
:1012500009F02DEF09F032EF09F02506D8A0260697
:1012600040EF09F0000E266E000E256E40EF09F0EB
:101270000DC0D9FF0EC0DAFF200EDF6E0D4A0E2A18
:101280002506D8A02606252806E12628D8A44BEF57
:1012900009F04DEF09F038EF09F05DEF09F01BC0E0
:1012A000D9FF1CC0DAFF0DC0E1FF0EC0E2FFDFCFA7
:1012B000E7FF1B4A1C2A0D4A0E2A2006D8A0210649
:1012C000202806E12128D8A468EF09F06AEF09F088
:1012D0004FEF09F083EF0AF0270E1B6E000E1C6E15
:1012E000000E216E010E206E22EF09F0228C95EF88
:1012F00009F00FC0F6FF10C0F7FF0F4A102A0800D0
:10130000F5CF27F02750000AD8B494EF0AF0640A0A
:10131000D8B495EF09F00D0AD8B495EF09F01C0A7E
:10132000D8B476EF09F06CEF09F022BC9AEF09F01F
:101330009CEF09F0B7EF09F01EC0D9FF1FC0DAFF1C
:10134000DECF23F0DDCF24F0020E1E26000E1F227A
:1013500024BEAFEF09F0ADEF09F0C3EF09F0030EC3
:101360002212236C241ED8B0242AC3EF09F01EC019
:10137000D9FF1FC0DAFFDECF23F0DDCF24F0020E4D
:101380001E26000E1F22010E276E050E2718D8A458
:10139000CCEF09F0CEEF09F0D0EF09F0EAEF09F059
:1013A0002750020D010EF324F66E080EF420F76E9E
:1013B0000900F550235C0900F5502458D8B0E3EF3C
:1013C00009F0E5EF09F0E7EF09F0EAEF09F0272A65
:1013D000C5EF09F025502610D8B4F1EF09F0F3EF6E
:1013E00009F001EF0AF022C017F0030E1716D8B467
:1013F000FCEF09F0FEEF09F001EF0AF02506D8A096
:1014000026062750176E186A2550175C1850800A58
:10141000196E2650800A1958D8B011EF0AF013EF50
:101420000AF019EF0AF02750255E000E265A1DEF2C
:101430000AF0000E266E000E256E25502610D8B438
:1014400024EF0AF026EF0AF03AEF0AF00DC0D9FFB8
:101450000EC0DAFF200EDF6E0D4A0E2A2506D8A038
:10146000260625502610D8A438EF0AF03AEF0AF0E5
:1014700026EF0AF022C017F0030E1716D8B443EF78
:101480000AF045EF0AF04DEF0AF00DC0D9FF0EC08B
:10149000DAFF2D0EDF6E0D4A0E2A27C01DF07AEFFF
:1014A0000AF01D50020D010EF324F66E080EF42012
:1014B000F76E0900F5CF03F00A00F5CF04F023C062
:1014C00001F024C002F039EC1CF001C008F002C0A9
:1014D00009F0000E0B6E0A0E0A6EABEC1CF0085001
:1014E000300F276E0DC0D9FF0EC0DAFF27C0DFFF17
:1014F0000D4A0E2A1D061D28D8A481EF0AF083EF9D
:101500000AF051EF0AF00FC0F6FF10C0F7FF0F4AC4
:10151000102A0800F5CF27F02750D8A492EF0AF040
:1015200094EF0AF0C1EF08F00DC0D9FF0EC0DAFF4A
:10153000000EDF6E12000450800B116E0450042464
:10154000186E03AEA6EF0AF0A8EF0AF0A9EF0AF0B2
:1015500018801850D8B4AFEF0AF0B1EF0AF0C6EF18
:101560000AF01828D8A4B7EF0AF0B9EF0AF0C1EFD3
:101570000AF0000E016E000E026E000E036E000EE9
:10158000046E038E000E046ECEEF0AF0000E016EA4
:10159000000E026E000E036E000E046E0850800BEB
:1015A000111A08500824196E07AED9EF0AF0DBEFC4
:1015B0000AF0DCEF0AF019801950D8B4E2EF0AF013
:1015C000E4EF0AF0F9EF0AF01928D8A4EAEF0AF0DC
:1015D000ECEF0AF0F4EF0AF0000E056E000E066E56
:1015E000000E076E000E086E078E000E086E01EFEB
:1015F0000BF0000E056E000E066E000E076E000E5C
:10160000086E0550061007100810D8A40AEF0BF05A
:101610000CEF0BF024EF0BF0000E016E000E026ECB
:10162000000E036E000E046E800E03127F0E041275
:101630001150041201C001F002C002F003C003F017
:1016400004C004F067EF0CF01850D8A42AEF0BF098
:101650002CEF0BF036EF0BF0000E016E000E026E59
:10166000000E036E000E046E67EF0CF0195018C0E8
:1016700009F00A6A095E000E0A5A7F0E0924126EEA
:10168000000E0A20136E01C00DF002C00EF003C060
:101690000FF004C010F0000E016E000E026E000E7E
:1016A000036E000E046E000E146E000E156E000E1A
:1016B000166E000E176E000E196E97EF0BF0195094
:1016C000D8B465EF0BF067EF0BF07EEF0BF0D8901E
:1016D0000D360E360F361036D890013602360336E8
:1016E000043617AE76EF0BF078EF0BF079EF0BF0D6
:1016F0000180D890143615361636173605500D5C15
:1017000006500E5807500F5808501058D8A08BEFAD
:101710000BF08DEF0BF096EF0BF0178C05500D5E74
:1017200006500E5A07500F5A0850105A192A190E0F
:1017300019649DEF0BF09FEF0BF05FEF0BF00D5076
:101740000E100F101010D8B4A8EF0BF0AAEF0BF08A
:10175000C2EF0BF01480C2EF0BF0D89001360236C6
:101760000336043617AEB7EF0BF0B9EF0BF0BAEF54
:101770000BF00180D890143615361636173612063F
:10178000D8A0130603AEC7EF0BF0C9EF0BF0ADEF17
:101790000BF0000E196E17AED0EF0BF0D2EF0BF07E
:1017A000F6EF0BF0FF0E1414096EFF0E15140A6EFF
:1017B000FF0E16140B6E7F0E17140C6E09500A10D4
:1017C0000B100C10D8B4E7EF0BF0E9EF0BF0EDEFD6
:1017D0000BF0010E196EF6EF0BF001A0F2EF0BF01B
:1017E000F4EF0BF0F6EF0BF0E9EF0BF01950D8B473
:1017F000FCEF0BF0FEEF0BF022EF0CF0010E0126D8
:10180000000E02220322042204A009EF0CF00BEFC9
:101810000CF022EF0CF001C009F002C00AF003C086
:101820000BF004C00CF00C340C320B320A320932CB
:1018300009C001F00AC002F00BC003F00CC004F0B4
:10184000124A132A13BE2DEF0CF0135008E1122890
:10185000D8A02DEF0CF02FEF0CF03AEF0CF0000EAB
:10186000136E1268000E016E000E026E000E036E03
:10187000000E046E13BE47EF0CF0135006E1120485
:10188000D8B045EF0CF047EF0CF055EF0CF0000E20
:10189000136E000E126E000E016E000E026E000E30
:1018A000036E000E046E000E116E12C018F018A028
:1018B0005CEF0CF05EEF0CF061EF0CF0038E62EF6A
:1018C0000CF0039ED8901830046E18EF0BF0120045
:1018D0002D50800B326E2D502D24386E2CAE73EFB0
:1018E0000CF075EF0CF076EF0CF0388038C03DF05E
:1018F0003E6AFF0E2A14436EFF0E2B14446E7F0EB9
:101900002C14456E000E2D14466E3D503E10D8B47A
:101910008CEF0CF08EEF0CF098EF0CF0458E3D281C
:101920003E10D8A496EF0CF098EF0CF0A0EF0CF05E
:10193000000E436E000E446E000E456E000E466EA5
:101940003D503E10D8A4A7EF0CF0A9EF0CF0B3EF78
:101950000CF0000E2A6E000E2B6E000E2C6E000E88
:101960002D6EF5EF0DF03250D8B4B9EF0CF0BBEF9F
:101970000CF0D6EF0CF0000E3F6E000E406E400EE5
:10198000416E000E426E800E4112FF0E4212000E9A
:101990000001D26F210ED16F3FC02AF040C02BF062
:1019A00041C02CF042C02DF0F5EF0DF03D283E1067
:1019B000D8A4DDEF0CF0DFEF0CF0E9EF0CF0000E37
:1019C0003F6E000E406E800E416E7F0E426ECCEF79
:1019D0000CF0810E3D26FF0E3E223D50010B386E6D
:1019E0003E343E323D327F0E3D26000E3E22D890E0
:1019F0004334346E4434356E4534366E4634376E77
:101A0000000E436E000E446E000E456E000E466ED4
:101A1000000E396E000E3A6E000E3B6E010E3C6EEB
:101A20003850D8B416EF0DF018EF0DF01DEF0DF093
:101A3000D8903436353636363736000E336E75EF7D
:101A40000DF0395043123A5044123B5045123C506D
:101A500046124350345C4450355845503658465031
:101A60003758D8A036EF0DF038EF0DF04AEF0DF0F3
:101A70004350345E4450355A4550365A4650375AD2
:101A8000395043263A5044223B5045223C5046228E
:101A90005AEF0DF0391C2E6E3A1C2F6E3B1C306E27
:101AA0003C1C316E2E5043162F50441630504516B4
:101AB0003150461639C02EF03AC02FF03BC030F0FE
:101AC0003CC031F0D890313230322F322E322EC01D
:101AD00039F02FC03AF030C03BF031C03CF0D89024
:101AE0003436353636363736332A180E33647BEFC4
:101AF0000DF07DEF0DF021EF0DF043C02EF044C04E
:101B00002FF045C030F046C031F0D890313230323D
:101B10002F322E322EC043F02FC044F030C045F09B
:101B200031C046F0010E4314396E000E44143A6E73
:101B3000000E45143B6E000E46143C6E43C02EF062
:101B400044C02FF045C030F046C031F0D89031325B
:101B500030322F322E322EC043F02FC044F030C02E
:101B600045F031C046F0395043263A5044223B50AC
:101B700045223C50462246A0C0EF0DF0C2EF0DF0CA
:101B8000D9EF0DF043C02EF044C02FF045C030F027
:101B900046C031F0D890313230322F322E322EC042
:101BA00043F02FC044F030C045F031C046F03D4A0C
:101BB0003E2AFF0E43143F6EFF0E4414406E7F0E0C
:101BC0004514416E000E4614426E3DC038F038A0F8
:101BD000ECEF0DF0EEEF0DF0EFEF0DF0418ED89041
:101BE0003830426E429ECCEF0CF01200E5C034F06B
:101BF000E6C035F0366A376A000E67EC13F034C081
:101C000056F035C057F036C058F037C059F0BD0E09
:101C10005A6E370E5B6E060E5C6E350E5D6EA5EC71
:101C200006F0CDC081F0CEC082F0CFC083F0D0C02E
:101C300084F0000E1E6E000E1F6E800E206E3F0E92
:101C4000216E330E056E930E066E880E076E430EE0
:101C5000086E81C001F082C002F083C003F084C02E
:101C600004F09BEC0AF001C01AF002C01BF003C0A4
:101C70001CF004C01DF045EC04F01AC02AF01BC093
:101C80002BF01CC02CF01DC02DF068EC0CF02AC00D
:101C900056F02BC057F02CC058F02DC059F0800ED4
:101CA0005A6EC40E5B6EA10E5C6E480E5D6EA5ECA6
:101CB00006F056C089F057C08AF058C08BF059C062
:101CC0008CF0BD0E5A6E370E5B6E060E5C6E350ED6
:101CD0005D6E89C056F08AC057F08BC058F08CC03A
:101CE00059F0A5EC06F056C001F057C002F058C0FC
:101CF00003F059C004F0000E056E000E066E000ED3
:101D0000076E400E086E9BEC0AF001C091F002C015
:101D100092F003C093F004C094F0D00E0001796FEC
:101D2000EE0E7A6FE5C07BF0E6C07CF079517B2740
:101D30007A517C237BC034F07CC035F0366A376A38
:101D4000000E67EC13F034C056F035C057F036C0C3
:101D500058F037C059F091C05AF092C05BF093C070
:101D60005CF094C05DF0A5EC06F056C099F057C049
:101D70009AF058C09BF059C09CF099C02AF09AC0C4
:101D80002BF09BC02CF09CC02DF062EC17F02AC009
:101D9000DBF02BC0DCF0B9C066F0BAC067F0BBC0A6
:101DA00068F0BCC069F099C06AF09AC06BF09BC043
:101DB0006CF09CC06DF08FEC1DF066C095F067C0B4
:101DC00096F068C097F069C098F095C056F096C03C
:101DD00057F097C058F098C059F0B5C05AF0B6C047
:101DE0005BF0B7C05CF0B8C05DF0A5EC06F056C083
:101DF00085F057C086F058C087F059C088F0B1C050
:101E000005F0B2C006F0B3C007F0B4C008F0000E91
:101E10005A6E000E5B6EC80E5C6E420E5D6E95C013
:101E200056F096C057F097C058F098C059F0A5ECFE
:101E300006F056C001F057C002F058C003F059C078
:101E400004F09BEC0AF001C02AF002C02BF003C0A2
:101E50002CF004C02DF062EC17F02AC0DDF02BC08E
:101E6000DEF085C071F086C072F087C073F088C064
:101E700074F030EC1BF071C08DF072C08EF073C046
:101E80008FF074C090F08DC02AF08EC02BF08FC000
:101E90002CF090C02DF062EC17F02AC0DFF02BC0C0
:101EA000E0F08BA056EF0FF058EF0FF067EF0FF058
:101EB0000001DE5107E1190EDD5DD8B062EF0FF0D1
:101EC00064EF0FF074EF0FF08B9074EF0FF00001E0
:101ED000DE5109E1510EDD5DD8A071EF0FF073EF17
:101EE0000FF074EF0FF08B8081EC1BF0120089C0B3
:101EF00042F08AC043F08BC044F08CC045F0000E25
:101F0000466E000E476E000E486E000E496EDBEC0A
:101F10001AF0D8A08EEF0FF090EF0FF09BEF0FF0BC
:101F2000000E0001896F000E8A6F800E8B6F3F0ECE
:101F30008C6FEAEF10F0180E016E720E026E310E09
:101F4000036E440E046E89C005F08AC006F08BC093
:101F500007F08CC008F0E5EC17F0D8B0B2EF0FF046
:101F6000B4EF0FF0C3EF0FF0000E0001D26F220E9E
:101F7000D16FFF0E896FFF0E8A6F7F0E8B6F7F0E02
:101F80008C6FEAEF10F089C001F08AC002F08BC0BC
:101F900003F08CC004F0870E056E480E066E3A0EF4
:101FA000076EC40E086EE5EC17F0D8B0DAEF0FF04C
:101FB000DCEF0FF0EBEF0FF0000E0001D26F220EFE
:101FC000D16F000E896F000E8A6F000E8B6F000EAE
:101FD0008C6FEAEF10F000018CBFF1EF0FF0F4EF1F
:101FE0000FF0010EF5EF0FF0000E936F9351D8B480
:101FF000FCEF0FF0FEEF0FF010EF10F089C001F0D2
:102000008AC002F08BC003F08CC004F0B3EC1DF06A
:1020100001C089F002C08AF003C08BF004C08CF0CC
:1020200089C056F08AC057F08BC058F08CC059F068
:102030003B0E5A6EAA0E5B6EB80E5C6E3F0E5D6E66
:10204000A5EC06F056C089F057C08AF058C08BF056
:1020500059C08CF089C056F08AC057F08BC058F038
:102060008CC059F010EC15F056C08DF057C08EF0B2
:1020700058C08FF059C090F08DC02AF08EC02BF060
:102080008FC02CF090C02DF062EC17F02AC091F0B8
:102090002BC092F089C066F08AC067F08BC068F0F0
:1020A0008CC069F091C034F092C035F0000E35BE9E
:1020B000FF0E366E376E010E67EC13F034C06AF017
:1020C00035C06BF036C06CF037C06DF08FEC1DF092
:1020D00066C089F067C08AF068C08BF069C08CF078
:1020E00089C071F08AC072F08BC073F08CC074F03C
:1020F0000B0E0001756F080E766F000E786F090EDB
:10210000776F67EC18F071C081F072C082F073C015
:1021100083F074C084F091C085F092C086F0B1EC79
:1021200015F081C089F082C08AF083C08BF084C032
:102130008CF000019351D8B4A0EF10F0A2EF10F092
:10214000E2EF10F089C042F08AC043F08BC044F047
:102150008CC045F0FF0E466EFF0E476E7F0E486E38
:102160007F0E496EDBEC1AF0D8A0B9EF10F0BBEF90
:1021700010F0C6EF10F0000E0001896F000E8A6F9C
:10218000000E8B6F000E8C6FEAEF10F0000E016EE8
:10219000000E026E800E036E3F0E046E89C005F0C5
:1021A0008AC006F08BC007F08CC008F09BEC0AF0E8
:1021B00001C089F002C08AF003C08BF004C08CF02B
:1021C000EAEF10F089C089F08AC08AF08BC08BF0EA
:1021D0008CC08CF01200660E5A6E660E5B6EA20EFC
:1021E0005C6E400E5D6EF7C034F0F8C035F0366AB4
:1021F000376A000E67EC13F034C056F035C057F064
:1022000036C058F037C059F0A5EC06F056C001F0C2
:1022100057C002F058C003F059C004F0000E056E1C
:10222000C00E066E7F0E076E440E086E9BEC0AF021
:1022300001C0C9F002C0CAF003C0CBF004C0CCF0AA
:10224000000E5A6EE00E5B6E920E5C6E450E5D6E79
:10225000C9C056F0CAC057F0CBC058F0CCC059F036
:10226000A5EC06F056C001F057C002F058C003F0CC
:1022700059C004F0C9C06AF0CAC06BF0CBC06CF0A2
:10228000CCC06DF0660E0001666F660E676FA20E21
:10229000686F400E696F8FEC1DF066C005F067C077
:1022A00006F068C007F069C008F09BEC0AF001C0B6
:1022B000C5F002C0C6F003C0C7F004C0C8F0C5C076
:1022C00001F0C6C002F0C7C003F0C8C004F08D0E14
:1022D000056E710E066E900E076E3C0E086E9BEC3E
:1022E0000AF001C0C1F002C0C2F003C0C3F004C0D4
:1022F000C4F0C1C081F0C2C082F0C3C083F0C4C0CA
:1023000084F041EC14F081C0F3F082C0F4F083C09B
:10231000F5F084C0F6F0F3C005F0F4C006F0F5C0A7
:1023200007F0F6C008F0000E016EE00E026E760EA9
:10233000036E450E046E9BEC0AF001C01AF002C059
:102340001BF003C01CF004C01DF0330E1E6E930E74
:102350001F6E880E206EC30E216E45EC04F01AC06D
:10236000CDF01BC0CEF01CC0CFF01DC0D0F0CDC052
:1023700071F0CEC072F0CFC073F0D0C074F030EC0A
:102380001BF071C087F072C088F073C089F074C010
:102390008AF087C02AF088C02BF089C02CF08AC050
:1023A0002DF062EC17F02AC0E3F02BC0E4F0000E31
:1023B0001E6E000E1F6E000E206E420E216E000E6D
:1023C000056E000E066EA00E076E400E086E000E23
:1023D0005A6E000E5B6E100E5C6E410E5D6ECDC0CF
:1023E00056F0CEC057F0CFC058F0D0C059F0A5EC91
:1023F00006F056C001F057C002F058C003F059C0B3
:1024000004F09BEC0AF001C01AF002C01BF003C0FC
:102410001CF004C01DF045EC04F01AC08BF01BC08A
:102420008CF01CC08DF01DC08EF08BC071F08CC084
:1024300072F08DC073F08EC074F030EC1BF071C080
:102440008FF072C090F073C091F074C092F08FC0A2
:102450002AF090C02BF091C02CF092C02DF062ECCD
:1024600017F02AC0E1F02BC0E2F000F01200000EDD
:102470000001A46F94C042F095C043F096C044F0B0
:1024800097C045F0000E466E000E476E000E486E77
:10249000000E496EDBEC1AF0D8A051EF12F053EFAA
:1024A00012F07CEF12F0000E016E000E026E000EB4
:1024B000036E000E046E98C005F099C006F09AC035
:1024C00007F09BC008F0E5EC17F0D8A06AEF12F017
:1024D0006CEF12F071EF12F0000E0001D26F210EBE
:1024E000D16F000E0001946F000E956F000E966F75
:1024F000000E976F66EF13F098C042F099C043F05A
:102500009AC044F09BC045F0000E466E000E476E28
:10251000000E486E000E496EDBEC1AF0D8A093EF67
:1025200012F095EF12F0A0EF12F0000E0001946F80
:10253000000E956F800E966F3F0E976F66EF13F04B
:10254000000197BFA8EF12F0A6EF12F003EF13F00F
:1025500098C02AF099C02BF09AC02CF09BC02DF0A7
:1025600062EC17F02AC0A5F02BC0A6F02CC0A7F093
:102570002DC0A8F0A5C034F0A6C035F0A7C036F035
:10258000A8C037F0000E67EC13F034C042F035C03D
:1025900043F036C044F037C045F098C046F099C0CB
:1025A00047F09AC048F09BC049F0DBEC1AF0D8B075
:1025B000DCEF12F0DEEF12F0EDEF12F0000E000192
:1025C000D26F210ED16F000E946F000E956F000E2A
:1025D000966F000E976F66EF13F00001A551010B87
:1025E000A46F94C001F095C002F096C003F097C0AC
:1025F00004F0B3EC1DF001C094F002C095F003C0EC
:1026000096F004C097F094C081F095C082F096C017
:1026100083F097C084F041EC14F081C09CF082C03C
:102620009DF083C09EF084C09FF09CC056F09DC07A
:1026300057F09EC058F09FC059F098C05AF099C00A
:102640005BF09AC05CF09BC05DF0A5EC06F056C054
:10265000A0F057C0A1F058C0A2F059C0A3F0A0C08C
:1026600089F0A1C08AF0A2C08BF0A3C08CF077ECF7
:102670000FF089C094F08AC095F08BC096F08CC0A2
:1026800097F00001A451D8B448EF13F04AEF13F0CB
:102690005EEF13F094C001F095C002F096C003F015
:1026A00097C004F0B3EC1DF001C094F002C095F0A7
:1026B00003C096F004C097F066EF13F094C094F056
:1026C00095C095F096C096F097C097F012003C6EBA
:1026D0003C50D8B46EEF13F070EF13F092EF13F09C
:1026E00037BE77EF13F075EF13F092EF13F034C0AD
:1026F00038F035C039F036C03AF037C03BF0381EFC
:10270000391E3A1E3B1E382A000E39223A223B223D
:1027100038C03EF039C03FF03AC040F03BC041F015
:102720009AEF13F034C03EF035C03FF036C040F0B1
:1027300037C041F03450351036103710D8A4A3EF0D
:1027400013F0A5EF13F0AFEF13F0000E346E000E90
:10275000356E000E366E000E376E40EF14F0960E9A
:102760003D6EB9EF13F03D2AD890413240323F32EE
:102770003E32000E3E14386E000E3F14396E000ECD
:1027800040143A6EFE0E41143B6E385039103A1028
:102790003B10D8A4CEEF13F0D0EF13F0B3EF13F04B
:1027A000DEEF13F03D2A010E3E26000E3F224022AE
:1027B0004122D890413240323F323E32000E3E1428
:1027C000386E000E3F14396E000E40143A6EFF0E44
:1027D00041143B6E385039103A103B10D8A4F3EF37
:1027E00013F0F5EF13F0D2EF13F0FDEF13F03D0609
:1027F000D8903E363F364036413640BE02EF14F0A8
:1028000004EF14F00CEF14F0020E3D600AEF14F028
:102810000CEF14F0F7EF13F03DB011EF14F013EFDD
:1028200014F014EF14F0409ED8903D323DC038F0C3
:10283000396A3A6A3B6A38C03BF03A6A396A386AA0
:1028400038503E1239503F123A5040123B5041121C
:102850003C50D8B42EEF14F030EF14F038EF14F0F1
:1028600037BE37EF14F035EF14F038EF14F0418E27
:102870003EC034F03FC035F040C036F041C037F0C4
:102880001200000184BF49EF14F047EF14F057EF36
:1028900014F0000ED26F210ED16F000E816F000E6A
:1028A000826F000E836F000E846F0FEF15F081C0F2
:1028B00042F082C043F083C044F084C045F0000E73
:1028C000466E000E476E000E486E000E496EDBEC41
:1028D0001AF0D8A06EEF14F070EF14F07FEF14F040
:1028E000000E0001D26F220ED16F000E816F000E1C
:1028F000826F000E836F000E846F0FEF15F0000ED5
:102900005A6E000E5B6E000E5C6E400E5D6E850EA4
:10291000526E000E536E81C04EF082C04FF083C0E5
:1029200050F084C051F0BFEC19F04EC056F04FC0CB
:1029300057F050C058F051C059F0A5EC06F056C001
:102940001AF057C01BF058C01CF059C01DF0000E03
:102950001E6E000E1F6E800E206EBF0E216E45ECA7
:1029600004F01AC081F01BC082F01CC083F01DC0AF
:1029700084F000018507D8A0860781C071F082C06D
:1029800072F083C073F084C074F0330E756F080E5C
:10299000766F000E786F080E776F67EC18F071C0D5
:1029A00081F072C082F073C083F074C084F0180E9E
:1029B0005A6E720E5B6E310E5C6E3F0E5D6E85C0A0
:1029C00034F086C035F0000E35BEFF0E366E376E21
:1029D000010E67EC13F034C056F035C057F036C026
:1029E00058F037C059F0A5EC06F056C01AF057C0A1
:1029F0001BF058C01CF059C01DF081C01EF082C0F1
:102A00001FF083C020F084C021F045EC04F01AC010
:102A100081F01BC082F01CC083F01DC084F0120046
:102A200056C04EF057C04FF058C050F059C051F04A
:102A3000640E526E000E536EBFEC19F0000165BFBC
:102A400026EF15F024EF15F041EF15F059BE2DEFEC
:102A500015F02BEF15F037EF15F0000E566E000E47
:102A6000576E800E586EBF0E596EB0EF15F0000E07
:102A7000566E000E576E000E586E000E596EB0EF77
:102A800015F0655109E11D0E645DD8A04AEF15F0FF
:102A90004CEF15F056EF15F056C056F057C057F0F2
:102AA00058C058F059C059F0B0EF15F056C02AF090
:102AB00057C02BF058C02CF059C02DF062EC17F025
:102AC0002AC034F02BC035F02CC036F02DC037F0C2
:102AD000010E67EC13F034C060F035C061F036C011
:102AE00062F037C063F056C001F057C002F058C022
:102AF00003F059C004F060C005F061C006F062C088
:102B000007F063C008F0E5EC17F0D8B08AEF15F0D5
:102B10008CEF15F0A8EF15F060C01AF061C01BF043
:102B200062C01CF063C01DF0000E1E6E000E1F6E12
:102B3000800E206EBF0E216E45EC04F01AC056F0D8
:102B40001BC057F01CC058F01DC059F0B0EF15F075
:102B500060C056F061C057F062C058F063C059F0D1
:102B6000120081C042F082C043F083C044F084C0B0
:102B700045F0000E466E000E476E000E486E000EC9
:102B8000496EDBEC1AF0D8A0C8EF15F0CAEF15F0CB
:102B9000D5EF15F0000E0001816F000E826F000E60
:102BA000836F000E846F4CEF16F0000184517F0B91
:102BB000876F886BD89087378837875185278851EA
:102BC000862383BFE6EF15F0EAEF15F0876B872BBE
:102BD000ECEF15F00001876B87518527000E8623E7
:102BE00086BFF7EF15F0F5EF15F005EF16F0000EC4
:102BF000D26F220ED16F000E816F000E826F000E19
:102C0000836F000E846F4CEF16F086BF0EEF16F048
:102C10008605D8A00EEF16F010EF16F02FEF16F085
:102C2000000ED26F220ED16F84BF1BEF16F019EF8A
:102C300016F025EF16F0FF0E816FFF0E826F7F0EEC
:102C4000836FFF0E846F4CEF16F0FF0E816FFF0E47
:102C5000826F7F0E836F7F0E846F4CEF16F0863588
:102C60008631886F8531876F84518719800B87196A
:102C7000846F85C087F0010E8717873387338351B0
:102C800087197F0B8719836F81C081F082C082F022
:102C900083C083F084C084F012009FEC1EF03BECF4
:102CA0001DF0790E046E080E056EFDEC1BF082BA65
:102CB0005CEF16F05EEF16F065EF16F0000E000107
:102CC000B06F020EAF6F6AEF16F0000E0001B06F2A
:102CD000B40EAF6FAFC0FDF0DCEC16F043EC1EF0AD
:102CE00060EC1EF057EC1EF07BEC1EF072EC1EF058
:102CF0008CEC1EF0F28EF28C0001EE51D8B483EF12
:102D000016F085EF16F08BEF16F0000EEE6FEBEC81
:102D100010F04DEC1EF00001F151D8B492EF16F016
:102D200094EF16F099EF16F0F6EC0DF0000E00019E
:102D3000F16FF251D8B49FEF16F0A1EF16F0A6EFA5
:102D400016F0E9EC18F0000E0001F26FE751D8A47C
:102D5000ACEF16F0AEEF16F0BEEF16F082A8B3EFB0
:102D600016F0B5EF16F07CEF16F08988010EE76FCC
:102D7000000ED86F000ED76F7CEF16F0FD51AD6FCF
:102D8000AE6BD751AD5DD851AE59D8B0CAEF16F081
:102D9000CCEF16F07CEF16F082B8D1EF16F0D3EF3F
:102DA00016F0D8EF16F0000EE76F89987CEF16F05A
:102DB0007CEF16F007EF00F0000E0001986F000E98
:102DC000996F000E9A6F400E9B6F660E946F660EA1
:102DD000956F180E966F440E976F37EC12F094C0F3
:102DE000A9F095C0AAF096C0ABF097C0ACF0A9C00E
:102DF00056F0AAC057F0ABC058F0ACC059F07E0EE8
:102E00005A6E110E5B6E490E5C6E400E5D6EA5EC47
:102E100006F056C0BDF057C0BEF058C0BFF059C054
:102E2000C0F09A0E0001B96F990EBA6FE40EBB6F35
:102E3000440EBC6FBDC056F0BEC057F0BFC058F0C6
:102E4000C0C059F0880E5A6ED30E5B6E8D0E5C6E4C
:102E5000340E5D6EA5EC06F056C0B5F057C0B6F066
:102E600058C0B7F059C0B8F0660E0001B16FE60E59
:102E7000B26FD70EB36F440EB46F450E2A6E5F0E5D
:102E80002B6E890E2C6E3F0E2D6E68EC0CF02AC056
:102E900056F02BC057F02CC058F02DC059F0800EC2
:102EA0005A6EC40E5B6EA10E5C6E480E5D6EA5EC94
:102EB00006F056C000F157C001F158C002F159C0E8
:102EC00003F112002C342D34336E3350D8A46BEF41
:102ED00017F06DEF17F077EF17F0000E2A6E000E67
:102EE0002B6E000E2C6E000E2D6EE4EF17F02AC034
:102EF0002EF02BC02FF02CC030F02DC031F0200E62
:102F000087EF17F0D890313230322F322E32E82E40
:102F100082EF17F02E50326E2C8EFF0E2A16FF0E07
:102F20002B16FF0E2C16000E2D16960E335E33BE9A
:102F30009EEF17F09CEF17F0B4EF17F03350800AB4
:102F4000970FD8B0A6EF17F0A8EF17F0AAEF17F079
:102F50006DEF17F0D8902D322C322B322A32333EBF
:102F6000AAEF17F0CCEF17F01F0E3364BAEF17F08B
:102F7000BCEF17F0C4EF17F06DEF17F0D8902A36BA
:102F80002B362C362D3633063350D8A4CAEF17F023
:102F9000CCEF17F0BEEF17F03250D8B4D2EF17F0E5
:102FA000D4EF17F0DCEF17F02D1E2C1E2B1E2A6C11
:102FB000000E2B222C222D222AC02AF02BC02BF00F
:102FC0002CC02CF02DC02DF01200000E0114096E43
:102FD000000E02140A6E800E03140B6E7F0E041492
:102FE0000C6E09500A100B100C10D8A4FAEF17F051
:102FF000FCEF17F004EF18F0000E016E000E026EE9
:10300000000E036E000E046E000E0514096E000E15
:1030100006140A6E800E07140B6E7F0E08140C6ED9
:1030200009500A100B100C10D8A419EF18F01BEF60
:1030300018F023EF18F0000E056E000E066E000E5D
:10304000076E000E086E04AE28EF18F02AEF18F095
:1030500033EF18F0016C021ED8B0022A031ED8B05C
:10306000032A800E045608AE38EF18F03AEF18F035
:1030700043EF18F0056C061ED8B0062A071ED8B01C
:10308000072A800E0856000E011A000E021A000EC2
:10309000031A800E041A000E051A000E061A000EFE
:1030A000071A800E081A0550015C06500258075096
:1030B000035808500458D8B060EF18F062EF18F0C9
:1030C00065EF18F0D89066EF18F0D880120077C03E
:1030D00079F078C07AF00001D89079377A37D890B3
:1030E00079377A3775C07BF076C07CF079517B27D1
:1030F0007A517C237BC0F6FF7CC0F7FF0900F5CF37
:103100007DF00900F5CF7EF00900F5CF7FF00A00D1
:10311000F5CF80F0D6EF18F07DC05AF07EC05BF09E
:103120007FC05CF080C05DF071C056F072C057F097
:1031300073C058F074C059F0A5EC06F056C01AF0F0
:1031400057C01BF058C01CF059C01DF00001770794
:10315000D8A0780777C079F078C07AF0D89079371E
:103160007A37D89079377A3775C07BF076C07CF0A3
:1031700079517B277A517C237BC0F6FF7CC0F7FF17
:103180000900F5CF1EF00900F5CF1FF00900F5CFBB
:1031900020F00A00F5CF21F045EC04F01AC07DF0D4
:1031A0001BC07EF01CC07FF01DC080F00001775175
:1031B0007811D8A4DEEF18F0E0EF18F08CEF18F0DB
:1031C0007DC071F07EC072F07FC073F080C074F07B
:1031D0001200000E296E0001D94BDA2BE70ED95DE3
:1031E000030EDA59D8A0F7EF18F0F9EF18F0FDEF59
:1031F00018F0000EDA6F000ED96FED2B3B0EED6567
:1032000004EF19F006EF19F020EF19F0000EED6F42
:10321000EC2B3B0EEC650FEF19F011EF19F020EFDE
:1032200019F0000EEC6FEB2B170EEB651AEF19F08F
:103230001CEF19F020EF19F0000EEB6F010E296E54
:10324000EE0E0D6E010E0E6E850E0F6E080E106ED8
:10325000D9C011F0DAC012F0BBEC08F00C0E076E0A
:10326000010E0DEC1DF02950D8B439EF19F03BEFE9
:1032700019F05AEF19F00001FF2BCF0E5E24D96E22
:10328000DA6A010EDA22FF51DE5CD8B04AEF19F09B
:103290004CEF19F05AEF19F0010EFF6F5E2A0C0E79
:1032A0005E6455EF19F057EF19F05AEF19F0010E5F
:1032B0005E6EFE2B12000600F2AA61EF19F063EFBA
:1032C00019F06EEF19F0F2A468EF19F06AEF19F037
:1032D0006EEF19F0DDEC1CF0BDEF19F0F2AC73EFFE
:1032E00019F075EF19F0BDEF19F0A0A27AEF19F0FF
:1032F0007CEF19F087EF19F0A1A281EF19F083EFAD
:1033000019F087EF19F084EC1EF0BDEF19F09DA4C1
:103310008CEF19F08EEF19F099EF19F09EA493EF4E
:1033200019F095EF19F099EF19F013EC1EF0BDEFBD
:1033300019F09DA29EEF19F0A0EF19F0ABEF19F074
:103340009EA2A5EF19F0A7EF19F0ABEF19F093ECDF
:103350001EF0BDEF19F09DACB0EF19F0B2EF19F00F
:10336000BDEF19F09EACB7EF19F0B9EF19F0BDEF52
:1033700019F036EC1EF0BDEF19F05F9211004EC04F
:1033800042F04FC043F050C044F051C045F0000E31
:10339000466E000E476E000E486E000E496EDBEC66
:1033A0001AF0D8A0D6EF19F0D8EF19F0EAEF19F01B
:1033B00052C0D9FF53C0DAFF000EDE6E000EDD6E84
:1033C000000E4E6E000E4F6E000E506E000E516ECF
:1033D00020EF1AF051507F0B546E556AD890543636
:1033E000553652C0D9FF53C0DAFF54C0DEFF55C076
:1033F000DDFF50BEFEEF19F002EF1AF0546A542AB6
:1034000003EF1AF0546A545052C0D9FF53C0DAFF88
:10341000DE12000EDD1252C0D9FF53C0DAFF820E59
:10342000DE26FF0EDD225150800B3F09516E509E6B
:103430004EC04EF04FC04FF050C050F051C051F050
:103440001200010E1C6E000E1E6E000E1D6E1C5032
:10345000D8B42DEF1AF02FEF1AF059EF1AF01D50D3
:103460000924D96E1E500A20DA6EDF50D8A43BEF33
:103470001AF03DEF1AF049EF1AF0000E1C6E1D50C5
:103480000924D96E1E500A20DA6E660EDF6E61EFD7
:103490001AF01D500924D96E1E500A20DA6E0B0E48
:1034A0001D24E16E000E1E20E26EDFCFE7FF61EF0C
:1034B0001AF00B0E1D24D96E000E1E20DA6E660E59
:1034C000DF6E1D4A1E2A1EBE6FEF1AF01E5009E164
:1034D000100E1D5CD8A06FEF1AF071EF1AF027EFF5
:1034E0001AF00B0E1D24D96E000E1E20DA6E000E8F
:1034F000DF6E0B0E046E000E056EFDEC1BF012006D
:1035000056C04EF057C04FF058C050F059C051F05F
:10351000640E526E000E536EBFEC19F0000165BFD1
:1035200096EF1AF094EF1AF0A0EF1AF0000E566E14
:10353000000E576E000E586E000E596EDAEF1AF03C
:10354000655109E11D0E645DD8A0A9EF1AF0ABEF3B
:103550001AF0B5EF1AF056C056F057C057F058C0E1
:1035600058F059C059F0DAEF1AF056C02AF057C097
:103570002BF058C02CF059C02DF062EC17F02AC087
:1035800034F02BC035F02CC036F02DC037F0010ED2
:1035900067EC13F034C060F035C061F036C062F003
:1035A00037C063F060C056F061C057F062C058F099
:1035B00063C059F01200000E42144A6E000E43140C
:1035C0004B6E800E44144C6E7F0E45144D6E4A5067
:1035D0004B104C104D10D8A4F0EF1AF0F2EF1AF087
:1035E000FAEF1AF0000E426E000E436E000E446EAB
:1035F000000E456E000E46144A6E000E47144B6EC8
:10360000800E48144C6E7F0E49144D6E4A504B107C
:103610004C104D10D8A40FEF1BF011EF1BF019EF59
:103620001BF0000E466E000E476E000E486E000E38
:10363000496E465042180FE1475043180CE148507C
:10364000441809E149504518D8B429EF1BF02BEF75
:103650001BF02EEF1BF0D8902FEF1BF0D88012003C
:1036600071C066F072C067F073C068F074C069F032
:1036700071C056F072C057F073C058F074C059F062
:1036800080EC1AF056C06AF057C06BF058C06CF06E
:1036900059C06DF08FEC1DF066C075F067C076F014
:1036A00068C077F069C078F071C01AF072C01BF082
:1036B00073C01CF074C01DF075C01EF076C01FF002
:1036C00077C020F078C021F045EC04F01AC071F00A
:1036D0001BC072F01CC073F01DC074F071C056F0B6
:1036E00072C057F073C058F074C059F080EC1AF0F3
:1036F00056C071F057C072F058C073F059C074F0E2
:103700001200000E076E000E0DEC1DF06C0E0D6E1B
:10371000010E0E6E570E0F6E080E106EDFC011F008
:10372000E0C012F0DDC013F0DEC014F0BBEC08F016
:103730006C0E096E010E0A6E21EC1AF0000E076E77
:10374000010E0DEC1DF0080E0D6E010E0E6E680ED2
:103750000F6E080E106EDBC011F0DCC012F0E3C07B
:1037600013F0E4C014F0E1C015F0E2C016F0BBECB9
:1037700008F0080E096E010E0A6E21EC1AF000F036
:1037800012004A0EF66E3C0EF76E000EF86E01EE59
:10379000D0F010EE22F00900F5CFEEFFE550E15039
:1037A000FAE15C0EF66E3D0EF76E000EF86E00EE5E
:1037B000F9F010EE07F00900F5CFEEFFE550E1500B
:1037C000FAE1630EF66E3D0EF76E000EF86E09001C
:1037D000F5CF5EF001EE00F0D00EEE6AE806FDE1F6
:1037E00000EEB1F0480EEE6AE806FDE15F905F92F0
:1037F000000EF86E00014DEF16F0000E086E1AEF85
:103800001CF008500424066E000E0520076E06C04A
:10381000F6FF07C0F7FFF86A070EF76403D0080049
:10382000F55005D0F6CFE1FFF7CFE2FFE75067ECA8
:103830001DF0082A08500424066E000E0520076EAD
:1038400006C0F6FF07C0F7FFF86A070EF76403D05B
:103850000800F55005D0F6CFE1FFF7CFE2FFE750C3
:103860000009D8A436EF1CF038EF1CF001EF1CF073
:103870001200000E066E000E056E03500410D8B440
:1038800044EF1CF046EF1CF06EEF1CF0010E076ECB
:103890004EEF1CF0D89003360436072A04AE53EFDF
:1038A0001CF055EF1CF04AEF1CF0D8900536063698
:1038B0000350015C04500258D8A061EF1CF063EF84
:1038C0001CF068EF1CF00350015E0450025A0580A2
:1038D000D89004320332072E55EF1CF005C001F0DA
:1038E00006C002F01200066E89968994898206C08D
:1038F0008AFF06C003F0060E046ED8900332042E31
:103900007DEF1CF0033A034603468B500318BF0BB0
:1039100003188B6E036A06AE01D0032A033203320A
:103920008B5003187F0B03188B6E8992000E056E67
:103930009CEF1CF000D0052A0550036E046A01506C
:10394000035C02500458D8A0A8EF1CF0AAEF1CF0AA
:103950009AEF1CF012000A500B10D8B4B2EF1CF012
:10396000B4EF1CF0D8EF1CF0010E0C6EBCEF1CF095
:10397000D8900A360B360C2A0BAEC1EF1CF0C3EF01
:103980001CF0B8EF1CF00A50085C0B500958D8A086
:10399000CCEF1CF0CEEF1CF0D2EF1CF00A50085E0A
:1039A0000B50095AD8900B320A320C2EC3EF1CF080
:1039B00008C008F009C009F012000001FC51D76EE0
:1039C000FBC0D6FFF29489BAE8EF1CF0EAEF1CF0D6
:1039D000EBEF1CF0898AE92B0A0EE919D8A4F3EF62
:1039E0001CF0F5EF1CF0F9EF1CF0000EE96FA9ECEC
:1039F0001EF00001D54BD62BC80ED519D611D8A470
:103A000004EF1DF006EF1DF00CEF1DF0010EF26F3C
:103A1000000ED66F000ED56F12000D6E020E0D60F7
:103A200014EF1DF016EF1DF032EF1DF00D50D8B45D
:103A30001CEF1DF01EEF1DF028EF1DF0C00E07C09B
:103A400008F0096A08100A6E09500B6E30EF1DF07D
:103A5000800E07C008F0096A08100A6E09500B6E44
:103A60000AC00CF0000E026E320E016E0C5080097E
:103A700073EC1CF01200270E076EF50EE82EFED731
:103A8000072EFCD700F0000E026E320E016E3C0EC7
:103A900073EC1CF0000E026E320E016E080E73EC19
:103AA0001CF0000E026E320E016E060E73EC1CF05E
:103AB000070E026ED00E016E010E73EC1CF0000EAC
:103AC000026E320E016E0C0E73EC1CF01200036ECF
:103AD00089868994898203C08AFF03C001F0060E9B
:103AE000026ED8900132022E71EF1DF0013A0146AC
:103AF00001468B500118BF0B01188B6E016A03AE93
:103B000001D0012A013201328B5001187F0B0118BC
:103B10008B6E8992210EE82EFED700F01200000E67
:103B200000016A1B000E6B1B000E6C1B800E6D1BD0
:103B300066C01AF067C01BF068C01CF069C01DF0B9
:103B40006AC01EF06BC01FF06CC020F06DC021F089
:103B500045EC04F01AC066F01BC067F01CC068F0AA
:103B60001DC069F012000150021003100410D8B4F7
:103B7000BCEF1DF0BEEF1DF0C6EF1DF0000E011AE8
:103B8000000E021A000E031A800E041A01C001F082
:103B900002C002F003C003F004C004F01200036E80
:103BA000000E026E3A0E0360D8EF1DF0DAEF1DF042
:103BB000E4EF1DF02F0E0364E0EF1DF0E2EF1DF0C7
:103BC000E4EF1DF0010E026E02C001F001301200A0
:103BD000000E896E000E8A6E000E8B6E92689368DE
:103BE0009468000E936E9292929692949298929A02
:103BF00094909492949C949E0E0EC16EF18E12003D
:103C000001500302F3CF05F0F4CF06F00150040297
:103C1000F350062602500302F350062605C001F0B9
:103C200006C002F01200BECFE5F0BFCFE6F0000EF6
:103C3000BD6E000EBF6E000EBE6E9E949D9499ECFC
:103C40001EF0010E0001F16F12001F1C1F1E1F1E2F
:103C50001F1F1E1F1E1F30313A30303A30300030E7
:103C6000312F30342F3231002D2D2D00000E000168
:103C7000F86F000EF76FC350F727000EF8239E9CD5
:103C8000010EEE6F12000001FC51D76EFBC0D6FF93
:103C9000F294F28A980ED56E1200000ECC6E9E92AF
:103CA0009D82CA8469EC1EF0899ACD801200310E83
:103CB000CB6E400ECA6E000ECC6E9E929D9212008C
:103CC0009E909D90800ECD6E000ECF6E000ECE6E3B
:103CD0001200000EBF6E000EBE6E040EBD6E9E94EE
:103CE0009D8412000C0EBA6E180EBB6E300EBA1206
:103CF000000EBC6E1200000EBD6E000EBF6E000EF8
:103D0000BE6E9E949D941200B1900001FA51B36E64
:103D1000F9C0B2FFA1921200010EC26EA80EC06ED1
:103D20009E9C9D8C1200CA94000ECC6E9D929E9219
:103D30001200CD90000ECF6E000ECE6E1200E8EC99
:103D40001DF0A4EC1EF01200100ED36E000E9B6E40
:103D50001200000E0001EE6FC28212001DFBEDD8B2
:043D60000215010443
:020000040020DA
:08000000FFFFFFFFFFFFFFFF00
:020000040030CA
:0E000000210C111EFF8181FF0FC00FE00F4089
:00000001FF
